{
  "_format": "hh-sol-artifact-1",
  "contractName": "SpinOPZKGameContract",
  "sourceName": "contracts/game_opzk/GameContract.sol",
  "abi": [
    {
      "inputs": [
        {
          "internalType": "address",
          "name": "_verifier",
          "type": "address"
        }
      ],
      "stateMutability": "nonpayable",
      "type": "constructor"
    },
    {
      "anonymous": false,
      "inputs": [
        {
          "indexed": true,
          "internalType": "uint256",
          "name": "submissionIndex",
          "type": "uint256"
        },
        {
          "indexed": true,
          "internalType": "address",
          "name": "challenger",
          "type": "address"
        }
      ],
      "name": "ChallengeEvent",
      "type": "event"
    },
    {
      "anonymous": false,
      "inputs": [
        {
          "indexed": true,
          "internalType": "uint256",
          "name": "submissionIndex",
          "type": "uint256"
        }
      ],
      "name": "SettleEvent",
      "type": "event"
    },
    {
      "anonymous": false,
      "inputs": [
        {
          "indexed": true,
          "internalType": "uint256",
          "name": "submissionIndex",
          "type": "uint256"
        }
      ],
      "name": "SettleSubmissionDroppedEvent",
      "type": "event"
    },
    {
      "anonymous": false,
      "inputs": [
        {
          "indexed": true,
          "internalType": "uint256",
          "name": "submissionIndex",
          "type": "uint256"
        },
        {
          "indexed": true,
          "internalType": "uint256",
          "name": "submissionNonce",
          "type": "uint256"
        },
        {
          "indexed": true,
          "internalType": "address",
          "name": "playerAddress",
          "type": "address"
        }
      ],
      "name": "SubmissionEvent",
      "type": "event"
    },
    {
      "inputs": [],
      "name": "CHALLENGING_WINDOW",
      "outputs": [
        {
          "internalType": "uint256",
          "name": "",
          "type": "uint256"
        }
      ],
      "stateMutability": "view",
      "type": "function"
    },
    {
      "inputs": [
        {
          "internalType": "uint64",
          "name": "input",
          "type": "uint64"
        }
      ],
      "name": "_reverseBytes",
      "outputs": [
        {
          "internalType": "uint64",
          "name": "",
          "type": "uint64"
        }
      ],
      "stateMutability": "pure",
      "type": "function"
    },
    {
      "inputs": [],
      "name": "batch_settle",
      "outputs": [],
      "stateMutability": "nonpayable",
      "type": "function"
    },
    {
      "inputs": [],
      "name": "batch_submit_submission",
      "outputs": [],
      "stateMutability": "nonpayable",
      "type": "function"
    },
    {
      "inputs": [
        {
          "internalType": "uint256",
          "name": "submissionIndex",
          "type": "uint256"
        },
        {
          "internalType": "uint256",
          "name": "segmentIndex",
          "type": "uint256"
        },
        {
          "internalType": "uint256[]",
          "name": "proof",
          "type": "uint256[]"
        },
        {
          "internalType": "uint256[]",
          "name": "verify_instance",
          "type": "uint256[]"
        },
        {
          "internalType": "uint256[]",
          "name": "aux",
          "type": "uint256[]"
        },
        {
          "internalType": "uint256[][]",
          "name": "instances",
          "type": "uint256[][]"
        }
      ],
      "name": "challenge_idle_challenger",
      "outputs": [],
      "stateMutability": "nonpayable",
      "type": "function"
    },
    {
      "inputs": [
        {
          "internalType": "uint256",
          "name": "submissionIndex",
          "type": "uint256"
        },
        {
          "internalType": "uint256",
          "name": "segmentIndex",
          "type": "uint256"
        },
        {
          "internalType": "uint256[]",
          "name": "proof",
          "type": "uint256[]"
        },
        {
          "internalType": "uint256[]",
          "name": "verify_instance",
          "type": "uint256[]"
        },
        {
          "internalType": "uint256[]",
          "name": "aux",
          "type": "uint256[]"
        },
        {
          "internalType": "uint256[][]",
          "name": "instances",
          "type": "uint256[][]"
        }
      ],
      "name": "challenge_operator",
      "outputs": [],
      "stateMutability": "nonpayable",
      "type": "function"
    },
    {
      "inputs": [
        {
          "internalType": "uint64[4]",
          "name": "a",
          "type": "uint64[4]"
        },
        {
          "internalType": "uint64[4]",
          "name": "b",
          "type": "uint64[4]"
        }
      ],
      "name": "equalUintArrays",
      "outputs": [
        {
          "internalType": "bool",
          "name": "",
          "type": "bool"
        }
      ],
      "stateMutability": "pure",
      "type": "function"
    },
    {
      "inputs": [],
      "name": "getRegistryContract",
      "outputs": [
        {
          "internalType": "address",
          "name": "",
          "type": "address"
        }
      ],
      "stateMutability": "view",
      "type": "function"
    },
    {
      "inputs": [],
      "name": "getStakingContract",
      "outputs": [
        {
          "internalType": "address",
          "name": "",
          "type": "address"
        }
      ],
      "stateMutability": "view",
      "type": "function"
    },
    {
      "inputs": [
        {
          "internalType": "uint256",
          "name": "submissionIndex",
          "type": "uint256"
        }
      ],
      "name": "getSubmission",
      "outputs": [
        {
          "internalType": "uint256",
          "name": "gameId",
          "type": "uint256"
        },
        {
          "internalType": "uint256",
          "name": "blockNumber",
          "type": "uint256"
        },
        {
          "internalType": "address",
          "name": "playerAddress",
          "type": "address"
        },
        {
          "internalType": "address",
          "name": "operatorAddress",
          "type": "address"
        },
        {
          "internalType": "enum SubmissionStatus",
          "name": "status",
          "type": "uint8"
        },
        {
          "internalType": "bytes32[]",
          "name": "segmentInitialStateHashes",
          "type": "bytes32[]"
        }
      ],
      "stateMutability": "view",
      "type": "function"
    },
    {
      "inputs": [
        {
          "internalType": "address",
          "name": "player",
          "type": "address"
        }
      ],
      "name": "getSubmissionNonce",
      "outputs": [
        {
          "internalType": "uint256",
          "name": "",
          "type": "uint256"
        }
      ],
      "stateMutability": "view",
      "type": "function"
    },
    {
      "inputs": [],
      "name": "getVerifierContract",
      "outputs": [
        {
          "internalType": "address",
          "name": "",
          "type": "address"
        }
      ],
      "stateMutability": "view",
      "type": "function"
    },
    {
      "inputs": [
        {
          "internalType": "bytes32",
          "name": "data",
          "type": "bytes32"
        }
      ],
      "name": "hashBytes32ToUint64Array",
      "outputs": [
        {
          "internalType": "uint64[4]",
          "name": "",
          "type": "uint64[4]"
        }
      ],
      "stateMutability": "pure",
      "type": "function"
    },
    {
      "inputs": [],
      "name": "nextSettleIndex",
      "outputs": [
        {
          "internalType": "uint256",
          "name": "",
          "type": "uint256"
        }
      ],
      "stateMutability": "view",
      "type": "function"
    },
    {
      "inputs": [],
      "name": "nextSubmissionIndex",
      "outputs": [
        {
          "internalType": "uint256",
          "name": "",
          "type": "uint256"
        }
      ],
      "stateMutability": "view",
      "type": "function"
    },
    {
      "inputs": [],
      "name": "owner",
      "outputs": [
        {
          "internalType": "address",
          "name": "",
          "type": "address"
        }
      ],
      "stateMutability": "view",
      "type": "function"
    },
    {
      "inputs": [
        {
          "internalType": "uint256[3]",
          "name": "addressParts",
          "type": "uint256[3]"
        }
      ],
      "name": "parseAddress",
      "outputs": [
        {
          "internalType": "address",
          "name": "",
          "type": "address"
        }
      ],
      "stateMutability": "pure",
      "type": "function"
    },
    {
      "inputs": [
        {
          "internalType": "uint256[][]",
          "name": "instances",
          "type": "uint256[][]"
        }
      ],
      "name": "parseProofInstances",
      "outputs": [
        {
          "internalType": "uint64[4]",
          "name": "metaDataHash",
          "type": "uint64[4]"
        },
        {
          "internalType": "uint64[4]",
          "name": "endGameStateHash",
          "type": "uint64[4]"
        }
      ],
      "stateMutability": "pure",
      "type": "function"
    },
    {
      "inputs": [
        {
          "internalType": "address",
          "name": "",
          "type": "address"
        }
      ],
      "name": "playerSubmissionNonce",
      "outputs": [
        {
          "internalType": "uint256",
          "name": "",
          "type": "uint256"
        }
      ],
      "stateMutability": "view",
      "type": "function"
    },
    {
      "inputs": [
        {
          "internalType": "bytes32",
          "name": "hash",
          "type": "bytes32"
        },
        {
          "components": [
            {
              "internalType": "bytes32",
              "name": "r",
              "type": "bytes32"
            },
            {
              "internalType": "bytes32",
              "name": "yParityAndS",
              "type": "bytes32"
            }
          ],
          "internalType": "struct SignatureCompact",
          "name": "sig",
          "type": "tuple"
        }
      ],
      "name": "recoverHashFromCompact",
      "outputs": [
        {
          "internalType": "address",
          "name": "",
          "type": "address"
        }
      ],
      "stateMutability": "pure",
      "type": "function"
    },
    {
      "inputs": [],
      "name": "registryContract",
      "outputs": [
        {
          "internalType": "contract SpinGameRegistryContract",
          "name": "",
          "type": "address"
        }
      ],
      "stateMutability": "view",
      "type": "function"
    },
    {
      "inputs": [
        {
          "internalType": "address",
          "name": "new_owner",
          "type": "address"
        }
      ],
      "name": "setOwner",
      "outputs": [],
      "stateMutability": "nonpayable",
      "type": "function"
    },
    {
      "inputs": [
        {
          "internalType": "address",
          "name": "verifier_address",
          "type": "address"
        }
      ],
      "name": "setVerifier",
      "outputs": [],
      "stateMutability": "nonpayable",
      "type": "function"
    },
    {
      "inputs": [
        {
          "internalType": "uint256",
          "name": "submissionIndex",
          "type": "uint256"
        }
      ],
      "name": "settle",
      "outputs": [],
      "stateMutability": "nonpayable",
      "type": "function"
    },
    {
      "inputs": [],
      "name": "stakingContract",
      "outputs": [
        {
          "internalType": "contract StakingContract",
          "name": "",
          "type": "address"
        }
      ],
      "stateMutability": "view",
      "type": "function"
    },
    {
      "inputs": [
        {
          "internalType": "uint256",
          "name": "",
          "type": "uint256"
        }
      ],
      "name": "submissionPayment",
      "outputs": [
        {
          "internalType": "uint256",
          "name": "",
          "type": "uint256"
        }
      ],
      "stateMutability": "view",
      "type": "function"
    },
    {
      "inputs": [
        {
          "internalType": "uint256",
          "name": "gameId",
          "type": "uint256"
        },
        {
          "internalType": "uint256",
          "name": "submissionNonce",
          "type": "uint256"
        },
        {
          "internalType": "address",
          "name": "paymasterAddress",
          "type": "address"
        },
        {
          "components": [
            {
              "internalType": "bytes32",
              "name": "r",
              "type": "bytes32"
            },
            {
              "internalType": "bytes32",
              "name": "yParityAndS",
              "type": "bytes32"
            }
          ],
          "internalType": "struct SignatureCompact",
          "name": "playerSignature",
          "type": "tuple"
        },
        {
          "internalType": "bytes32[]",
          "name": "segmentInitialStateHashes",
          "type": "bytes32[]"
        },
        {
          "internalType": "bytes32[]",
          "name": "segmentPlayerInputsHashes",
          "type": "bytes32[]"
        },
        {
          "internalType": "bytes",
          "name": "finalState",
          "type": "bytes"
        }
      ],
      "name": "submit_submission",
      "outputs": [],
      "stateMutability": "nonpayable",
      "type": "function"
    },
    {
      "inputs": [],
      "name": "verifier",
      "outputs": [
        {
          "internalType": "contract IZKVerifier",
          "name": "",
          "type": "address"
        }
      ],
      "stateMutability": "view",
      "type": "function"
    }
  ],
  "bytecode": "0x6080346200014957601f62004d7e38819003918201601f19168301926001600160401b0392909183851183861017620001335781602092849260409788528339810103126200014957516001600160a01b03808216929091839003620001495760018060a01b03199233846002541617600255836001541617600155835190611263918281019281841083851117620001335762003b1b823930835260208160009403019083f08015620001295783168483541617825584519061157b808301918383109083111762000115576020918391620025a0833930815203019082f09081156200010a575016906003541617600355600160075560016008555161245190816200014f8239f35b8451903d90823e3d90fd5b634e487b7160e01b84526041600452602484fd5b85513d84823e3d90fd5b634e487b7160e01b600052604160045260246000fd5b600080fdfe608080604052600436101561001357600080fd5b600090813560e01c9081631255aa5a146118815750806313af403514611838578063235081b3146116e757806323c19ebf1461162557806328c1f99b146115c45780632b7ac3f3146102dc5780632bdd45b9146115eb57806336ca3d73146115c457806337e87d57146115985780633a8ff2c314610c6e5780633e8686cc14610ba25780634a00ac6914610b4657806350a2aaa914610b285780635437988d14610ae05780636679879214610a985780636800ad1514610a7c5780636e77927114610a435780637189997e1461098b5780638427fe8e146108cf5780638da5cb5b146108a65780638df828001461032f5780638e68dce414610175578063951f9a5c14610305578063a74a0434146102dc578063b49dac2c146102c8578063d9056eef1461019e578063ee99205c146101755763fd9ce9a61461015557600080fd5b346101725780600319360112610172576020600754604051908152f35b80fd5b50346101725780600319360112610172576003546040516001600160a01b039091168152602090f35b5034610172576101ad366118fd565b956101c660079a98999a96929695939554891115611ae1565b878b526004602052600160408c20015498600a8a01808b116102b45743111561025e578b9a6101f499611eda565b6003546001600160a01b0316803b1561025a576040516330f1fa1f60e21b8152336004820152602481019290925282908290818381604481015b03925af1801561024f5761023f5750f35b61024890611a21565b6101725780f35b6040513d84823e3d90fd5b5050fd5b60405162461bcd60e51b815260206004820152602860248201527f4e6f726d616c206368616c6c656e67696e672077696e646f7720686173206e6f6044820152671d081c185cdcd95960c21b6064820152608490fd5b634e487b7160e01b8d52601160045260248dfd5b503461017257806003193601126101725780f35b50346101725780600319360112610172576001546040516001600160a01b039091168152602090f35b50346101725760203660031901126101725760406020916004358152600583522054604051908152f35b503461017257602090816003193601126101725760043591610355600754841115611ae1565b826008540361084b578282526004815260408220926003840191825460ff8160a01c16600481101561083757600281146107f25760019060018801549081156107b15760010361040e575b5050508394506005906103b4600854611d0f565b60085560018060a01b038060035416945416928552526040832054823b156104095760405163061043c560e51b81526001600160a01b039092166004830152602482015290829082908183816044810161022e565b505050fd5b600a810180911161079d57431061074e57600487018054156107385760005282600020549060018060a01b039283885416928954938960028c019560448888541691604051948593849263d296306360e01b8452600484015260248301525afa90811561072d5787918b9182916106a6575b50610498908360405192828480945193849201611c41565b8101039060025afa1561069b5788510361065b575082875416976006848254945416910190893b15610657576040519363604ffaeb60e11b85526004850152602484015260606044840152879181546104f081611cd5565b9283606487015260849160018116908160001461062c57506001146105f7575b50505050818798818981819503925af19081156105ec5786916105d4575b5050835460ff60a01b1916600160a11b178455827f67f9b6da05d35c16622d2e4741ef3dea2b527d384310142c1695c305906e569e8680a25b806003541690845416813b156105d057859160448392604051948593849263fc66db6960e01b84526001600485015260248401525af19081156105c55785916105b1575b806103a0565b6105ba90611a21565b6104095783386105ab565b6040513d87823e3d90fd5b8580fd5b6105dd90611a21565b6105e857843861052e565b8480fd5b6040513d88823e3d90fd5b8a52868a208a94505b8385106106195750505050810160840181888189610510565b8054868601830152938701938201610600565b60ff191660848089019190915294151560051b870190940194508593508b92508391508a9050610510565b8880fd5b60ff60a01b1916600360a01b17865550949550859450827f4f13636edcd4cbb9552e5d208fab3cff0feadf50b18a6e17226fca096cb25ad18680a2610567565b6040513d8a823e3d90fd5b925050503d808b833e6106b98183611a6a565b8101908781830312610729578051906001600160401b038211610725570181601f82011215610729578051906106ee82611cba565b926106fc6040519485611a6a565b828452898383010111610725578261071f8d93610498938c808098019101611c41565b90610480565b8b80fd5b8a80fd5b6040513d8c823e3d90fd5b634e487b7160e01b600052603260045260246000fd5b60405162461bcd60e51b815260048101849052602160248201527f4368616c6c656e67696e672077696e646f7720686173206e6f742070617373656044820152601960fa1b6064820152608490fd5b634e487b7160e01b87526011600452602487fd5b60405162461bcd60e51b815260048101869052601960248201527814dd589b5a5cdcda5bdb88191bd95cc81b9bdd08195e1a5cdd603a1b6044820152606490fd5b60405162461bcd60e51b815260048101849052601a60248201527f5375626d697373696f6e20616c726561647920736574746c65640000000000006044820152606490fd5b634e487b7160e01b86526021600452602486fd5b6084906040519062461bcd60e51b82526004820152602e60248201527f5375626d697373696f6e20616c726561647920736574746c65642c20496e646560448201526d3c1037baba1037b31037b93232b960911b6064820152fd5b50346101725780600319360112610172576002546040516001600160a01b039091168152602090f35b5034610172576060366003190112610172573660231215610172576040516108f681611a34565b60648136821161098757602093506004905b828210610978575050506001600160401b0363ffffffff61094861092e83855116611b2d565b92604061093f828888015116611b2d565b95015116611b2d565b916bffffffffffffffff0000000060405194861b16906001600160401b0360601b9060601b161791841c16178152f35b81358152908401908401610908565b8380fd5b503461017257610100366003190112610172573660231215610a26576040516109b381611a4f565b608481368211610a26576004905b828210610a2b57833660a31215610a2657604051906109df82611a4f565b8161010491368311610a26576020936084905b848210610a0f575050610a059250611e74565b6040519015158152f35b858091610a1b84611985565b8152019101906109f2565b600080fd5b60208091610a3884611985565b8152019101906109c1565b5034610172576020366003190112610172576020906040906001600160a01b03610a6b6118b7565b168152600683522054604051908152f35b50346101725780600319360112610172576020604051600a8152f35b503461017257806003193601126101725760405162461bcd60e51b815260206004820152600f60248201526e139bdd081a5b5c1b195b595b9d1959608a1b6044820152606490fd5b503461017257602036600319011261017257610afa6118b7565b6002546001600160a01b039190610b149083163314611a8b565b1660018060a01b0319600154161760015580f35b50346101725780600319360112610172576020600854604051908152f35b503461017257602036600319011261017257600435906001600160401b03821161017257610100610ba0610b86610b8036600487016118cd565b90611d5b565b610b966040939293518094611999565b6080830190611999565bf35b5034610172576020908160031936011261017257600435815260048252604081209081549160019160018201549060018060a01b039182600285015416916004600386015495019060405196878a845491828152019383528a8320925b8b828210610c5b578b610c578c610c468d8d8d8d610c1f868f0387611a6a565b604051988998895288015260408701528116606086015260ff608086019160a01c166119ca565b60c060a084015260c08301906119ed565b0390f35b8454865290940193928201928201610bff565b503461017257610100366003190112610172576044356001600160a01b0381169003610a265760403660631901126101725760a4356001600160401b0381116112c257610cbf9036906004016118cd565b60c4356001600160401b03811161098757610cde9036906004016118cd565b9190926001600160401b0360e435116105e85736602360e4350112156105e8576001600160401b0360e43560040135116105e85736602460e4356004013560e4350101116105e857602085610d8e604051838101906004358252602435604082015260806060820152610d7d81610d6f610d5c60a083018b8b611c1d565b828103601f190160808401528b8d611c1d565b03601f198101835282611a6a565b604051928392839251928391611c41565b8101039060025afa1561158d57845160405160208101917f19457468657265756d205369676e6564204d6573736167653a0a3332000000008352603c820152603c8152610dda81611a34565b51902060ff608435811c601b0111611577576000608060209260405190815260ff608435811c601b011684820152606435604082015260018060ff1b0360843516606082015282805260015afa1561156b576000516001600160a01b031680865260066020526040862054909490602435900361152b578554604051631c169c4160e11b8152600480359082015290602090829060249082906001600160a01b03165afa9081156115205787916114e1575b50156114a6576001602435016024351161149257848652600660205260016024350160408720556007549360405193846101008101106001600160401b036101008701111761147c57610f1593610f0991610100870160405260043587524360208801528860408801523360608801528960808801523691611c64565b60a08501523691611c64565b60c0820152610f2960e43560040135611cba565b610f366040519182611a6a565b60e435600481013580835290602401602083013784602060e435600401358301015260e082015281845260046020526040842081518155602082015160018201556002810160018060a01b0360408401511660018060a01b031982541617905560018060a01b0360608301511660038201549060808401516004811015611468576001600160a81b03199092161760a091821b60ff60a01b161760038301558201518051906001600160401b0382116113d657600160401b82116113d657600483015482600485015580831061143d575b5060200160048301875260208720875b838110611429575050505060c08201518051906001600160401b0382116113d657600160401b82116113d65760058301548260058501558083106113fe575b5060200160058301875260208720875b8381106113ea575050505060e08201518051906001600160401b0382116113d6576110946006840154611cd5565b601f8111611391575b50602090601f83116001146113245760069291889183611319575b50508160011b916000199060031b1c1916179101555b6110d9600754611d0f565b60075560035484906001600160a01b0316803b156112c2578180916044604051809481936308fe53e760e21b8352600160048401523360248401525af1801561024f57611305575b505060405192602435837fb4369ae4c165e1165289efdf37dcee8df18857e3379869e35d225ed65bb514058780a46044356001600160a01b0316611163578380f35b63078d89c560e11b83526020600484018190528151602485015281810151604485015260408201516001600160a01b0390811660648601526060830151166084850152608082015190918491839183916111c19060a48401906119ca565b6111dc60a082015161010060c48501526101248401906119ed565b60e06111fa60c08401519260231993848783030160e48801526119ed565b920151908383030161010484015261121d81518092818552868086019101611c41565b601f01601f1916010301816044356001600160a01b03165afa9182156112fa5783926112c6575b5060035483906001600160a01b0316803b156112c25760405163991bab5360e01b8152604480356001600160a01b0316600483015260248201869052909183918391829084905af1801561024f576112aa575b5052600560205260408220553880808380f35b6112b390611a21565b6112be578238611297565b8280fd5b5080fd5b9091506020813d6020116112f2575b816112e260209383611a6a565b810103126112be57519038611244565b3d91506112d5565b6040513d85823e3d90fd5b61130e90611a21565b610987578338611121565b0151905038806110b8565b906006840188526020882091885b601f19851681106113795750918391600193600695601f19811610611360575b505050811b019101556110ce565b015160001960f88460031b161c19169055388080611352565b91926020600181928685015181550194019201611332565b60068401885260208820601f840160051c8101602085106113cf575b601f830160051c820181106113c357505061109d565b600081556001016113ad565b50806113ad565b634e487b7160e01b87526041600452602487fd5b600190602084519401938184015501611066565b60058401885260208820908382015b818301811061141d575050611056565b6000815560010161140d565b600190602084519401938184015501611017565b60048401885260208820908382015b818301811061145c575050611007565b6000815560010161144c565b634e487b7160e01b88526021600452602488fd5b634e487b7160e01b600052604160045260246000fd5b634e487b7160e01b86526011600452602486fd5b60405162461bcd60e51b815260206004820152601360248201527211d85b5948191bd95cc81b9bdd08195e1a5cdd606a1b6044820152606490fd5b90506020813d602011611518575b816114fc60209383611a6a565b81010312611514575180151581036115145738610e8c565b8680fd5b3d91506114ef565b6040513d89823e3d90fd5b60405162461bcd60e51b8152602060048201526018602482015277496e76616c6964207375626d697373696f6e206e6f6e636560401b6044820152606490fd5b6040513d6000823e3d90fd5b634e487b7160e01b600052601160045260246000fd5b6040513d86823e3d90fd5b50346101725760203660031901126101725760806115b7600435611b8e565b610ba06040518092611999565b5034610172578060031936011261017257546040516001600160a01b039091168152602090f35b5034610172576020366003190112610172576004356001600160401b038082168203610a265761161c602092611b2d565b60405191168152f35b50346101725760603660031901126101725760403660231901126101725760405160208101907f19457468657265756d205369676e6564204d6573736167653a0a3332000000008252600435603c820152603c815261168381611a34565b5190206044358060ff1c601b0160ff81116115775760209260009260ff6080936040519384521685830152602435604083015260018060ff1b0316606082015282805260015afa1561156b576000516040516001600160a01b039091168152602090f35b5034610172576116f6366118fd565b9561170e60079b9a9b969296959395548c1115611ae1565b8a8a52600460205260408a20976001890154600a8101809111611824574310156117df57600398909801805460ff60a01b198116600160a01b179091559861175798908c611eda565b6003546001600160a01b0390811691823b1561098757906064849283604051958694859363577061c960e11b8552600160048601523360248601521660448401525af1801561024f576117d0575b509033907feaa488150dd59807afe629755b02de91b8f4fd621b0118f80a3da9a7b8704baf8380a380f35b6117d990611a21565b386117a5565b60405162461bcd60e51b815260206004820152601d60248201527f4368616c6c656e67696e672077696e646f7720686173207061737365640000006044820152606490fd5b634e487b7160e01b8c52601160045260248cfd5b5034610172576020366003190112610172576118526118b7565b600254906001600160a01b039061186c3383851614611a8b565b6001600160a01b031990921691161760025580f35b9050346112c25760203660031901126112c2576020916040906001600160a01b036118aa6118b7565b1681526006845220548152f35b600435906001600160a01b0382168203610a2657565b9181601f84011215610a26578235916001600160401b038311610a26576020808501948460051b010111610a2657565b60c0600319820112610a265760043591602435916001600160401b0390604435828111610a265781611931916004016118cd565b93909392606435818111610a26578361194c916004016118cd565b93909392608435838111610a265782611967916004016118cd565b9390939260a435918211610a2657611981916004016118cd565b9091565b35906001600160401b0382168203610a2657565b6000915b600483106119aa57505050565b6001906001600160401b038351168152602080910192019201919061199d565b9060048210156119d75752565b634e487b7160e01b600052602160045260246000fd5b90815180825260208080930193019160005b828110611a0d575050505090565b8351855293810193928101926001016119ff565b6001600160401b03811161147c57604052565b606081019081106001600160401b0382111761147c57604052565b608081019081106001600160401b0382111761147c57604052565b90601f801991011681019081106001600160401b0382111761147c57604052565b15611a9257565b60405162461bcd60e51b815260206004820152602160248201527f4f6e6c79206f776e65722063616e2063616c6c20746869732066756e6374696f6044820152603760f91b6064820152608490fd5b15611ae857565b60405162461bcd60e51b815260206004820152601e60248201527f5375626d697373696f6e20696e646578206f7574206f6620626f756e647300006044820152606490fd5b600091825b600880851015611b76576001600160fd1b03851685036115775767ffffffffffffff0060019260ff6001600160401b0387168860031b1c16921b1617930192611b32565b5092509050565b9060048110156107385760051b0190565b9060406080604051611b9f81611a4f565b36903760405190611baf82611a4f565b608036833760005b600480821015611c15578160061b90828204841483151715611c005760c0918203918211611c005750906001600160401b03866001931c16611bf98286611b7d565b5201611bb7565b601190634e487b7160e01b6000525260246000fd5b509193505050565b81835290916001600160fb1b038311610a265760209260051b809284830137010190565b60005b838110611c545750506000910152565b8181015183820152602001611c44565b9092916001600160401b03841161147c578360051b6020926020604051611c8d82850182611a6a565b8097815201918101928311610a2657905b828210611cab5750505050565b81358152908301908301611c9e565b6001600160401b03811161147c57601f01601f191660200190565b90600182811c92168015611d05575b6020831014611cef57565b634e487b7160e01b600052602260045260246000fd5b91607f1691611ce4565b60001981146115775760010190565b901561073857803590601e1981360301821215610a265701908135916001600160401b038311610a26576020018260051b36038113610a26579190565b9160405192611d6984611a4f565b60803685378360405191611d7c83611a4f565b60803684378294611d8d8183611d1e565b93909315610738576001600160401b03809435168152611dad8284611d1e565b6001101561073857602085910135166020820152611dcb8284611d1e565b6002101561073857604085910135166040820152611de98284611d1e565b60031015610738578460608092013516910152611e068183611d1e565b60041015610738576080013583168452611e208183611d1e565b600510156107385760a0013583166020850152611e3d8183611d1e565b60069391931015610738578360c0611e5c940135166040860152611d1e565b600792919210156107385760e0606092013516910152565b9060009060005b60048110611e8c5750505050600190565b6001600160401b0380611e9f8387611b7d565b511690611eac8385611b7d565b511603611ebb57600101611e7b565b5050905090565b80548210156107385760005260206000200190600090565b989498979691979592939560005260046020526040600020611efc8689611d5b565b60048392930190600185019081861161157757611f2b611f1f611f319385611ec2565b90549060031b1c611b8e565b90611e74565b6123b857611f1f611f48611f1f86611f5294611ec2565b9460058401611ec2565b9054926080604051611f6381611a4f565b3690376001600160401b03815116916001600160401b03602083015116916001600160401b03606081604084015116920151166001600160401b03835116906001600160401b03602085015116926001600160401b036060816040880151169601511695604051978a60208a015260408901526060880152608087015260a086015260c085015260e084015261010083015261012090818301528152806101408101106001600160401b036101408301111761147c576000816101406020930160405261014081805161203b81848401888501611c41565b810103910160025afa1561156b5761205d90612058600051611b8e565b611e74565b156123575760005460405163f3a0057560e01b81526004810192909252606090829060249082906001600160a01b03165afa90811561156b576000916122e2575b5080516121c9575b506001546001600160a01b031696873b15610a265760405163ae022ccd60e01b815260806004820152988997959461211294939261210292916120ee9160848c019190611c1d565b9060031998898b84030160248c0152611c1d565b9186888403016044890152611c1d565b92848403016064850152808352602083019060208160051b85010193836000915b8383106121625750505050505091818060009403915afa801561156b576121575750565b61216090611a21565b565b9193959092949650601f198282030186528635601e1984360301811215610a2657830190602082359201916001600160401b038111610a26578060051b36038313610a26576121b76020928392600195611c1d565b98019601930190918896959492612133565b886001101561073857805160208701350361229d578860021015610738576020810151604087013503612258578860031015610738576040015160608601350361221357386120a6565b60405162461bcd60e51b815260206004820152601a60248201527f496e76616c696420696d61676520636f6d6d69746d656e7420320000000000006044820152606490fd5b60405162461bcd60e51b815260206004820152601a60248201527f496e76616c696420696d61676520636f6d6d69746d656e7420310000000000006044820152606490fd5b60405162461bcd60e51b815260206004820152601a60248201527f496e76616c696420696d61676520636f6d6d69746d656e7420300000000000006044820152606490fd5b905060603d606011612350575b6122f98183611a6a565b6060828281010312610a2657808201601f83011215610a26576040519161231f83611a34565b8290606081019281018311610a2657905b828210612340575050503861209e565b8151815260209182019101612330565b503d6122ef565b60405162461bcd60e51b815260206004820152603360248201527f537461727420737461746520646f6573206e6f74206d61746368207375626d696044820152727373696f6e2c206e6f206368616c6c656e676560681b6064820152608490fd5b60405162461bcd60e51b815260206004820152603560248201527f4f75747075742066726f6d2070726f6f6620646f6573206d61746368207375626044820152746d697373696f6e2c206e6f206368616c6c656e676560581b6064820152608490fdfea264697066735822122037a8206f349f6325e86620f35be07d7ed80811ff7ca15620b6d55c99df9154e364736f6c6343000818003360803461007457601f61157b38819003918201601f19168301916001600160401b038311848410176100795780849260209460405283398101031261007457516001600160a01b0381169081900361007457600080546001600160a01b0319169190911790556040516114eb90816100908239f35b600080fd5b634e487b7160e01b600052604160045260246000fdfe6040608081526004908136101561001557600080fd5b600091823560e01c90816301e28005146111d057816306686b4a146111985781630c4d110d1461114f57816313c57ba0146110fd578163238c0cda14610bc857816323f94f9c1461104c5781632ce569f214610e155781632ffac69e1461102f57816338b2471e14610e15578163424aa23014610ff95781634670998814610fea57816346d2d68f14610fc45781634ef1a2c814610fa75781634f1242ac14610bc8578163623d6a5f14610f1e57816373de880614610f0157816374365f7f14610eed578163759ffb7b14610e525781637dae12c214610e1a57816382fbf80d14610e155781638e8e082e14610dea5781639045bf1814610bc8578163991bab5314610d87578163aee0c39214610bcd578163b2c7b1c314610bc8578163b39bcf3f14610b90578163b57fdcb514610855578163c20878a0146107f5578163c3c7e87c146105c4578163cbed6c9f1461038e578163cc65653714610361578163d38589bb1461030f578163d3f33009146102e7578163d42b7395146102cb578163f738978914610293578163fc66db691461020e575063fea245c8146101ba57600080fd5b8160031936011261020a5733825260016020528082206101db3482546112af565b9055513481527fe967d7e6b0193751e3222ac2bc8e7c61bc0c99a7deb97c78b2304799221c0d9960203392a280f35b5080fd5b90503461028f578160031936011261028f5760207fa073359ad4bc40c094d3e6c4a846502f3a281056368c29b8442972c4ad1d6987913561024d611208565b85546001600160a01b03919061026690831633146112d2565b16938486526002835261027c8282882054611361565b858752600284528187205551908152a280f35b8280fd5b50503461020a57602036600319011261020a5760209181906001600160a01b036102bb6111f2565b1681526002845220549051908152f35b50503461020a578160031936011261020a5760209051600a8152f35b50503461020a578160031936011261020a57905490516001600160a01b039091168152602090f35b50508160031936011261020a5733825260036020528082206103323482546112af565b9055513481527f13d94c4c4e9a7306e1d75f4d1b544bbf746ce406d62bed04b4a6e018a79c8a5c60203392a280f35b50503461020a57602036600319011261020a576020906103876103826111f2565b611478565b9051908152f35b90503461028f578160031936011261028f5767ffffffffffffffff9181358381116105c0576103c0903690840161127e565b92906024946024359081116105bc576103dc903690840161127e565b929095875b8681106104525750509161043c61044c927f61477f9d307a0043d5e24cb59df826ea63bc741dafba391b277a9067a1da3cc8969594338a5260205284892061042a878254611361565b90558451958587968752860191611454565b9083820360208501523396611454565b0390a280f35b61045d818886611444565b35606490818101908181116105aa5761044c018091116105985743111561054257610489828987611444565b358a52896005916104ae8b6104a7868b8d6020978989522093611444565b3590611234565b90543360039290921b1c6001600160a01b03160361050e57506104f38a6104a7858a8f8d908f98610508986104e88f9c809c60019e611444565b358352522093611444565b81549060018060a01b039060031b1b19169055565b016103e1565b885162461bcd60e51b81528087018390526012818701527124b73b30b634b21031b430b63632b733b2b960711b6044820152fd5b836b081a5b881d1a19481c185cdd60a21b608492602c8660208c519562461bcd60e51b87528601528401527f496e76616c696420626c6f636b2077696e646f772c206e65656420746f2062656044840152820152fd5b634e487b7160e01b8b5260118552838bfd5b634e487b7160e01b8c5260118652848cfd5b8680fd5b8480fd5b8391503461020a578260031936011261020a576105df6111f2565b91602480359160018060a01b03906105fb8282541633146112d2565b61060b6064946064810690611361565b92606484018085116107e35761044c85018091116107e35743106107a1579495821694815b84835260056020908082528a8520805484101561079d579061065484889493611234565b939054600394851b1c16928387528b83528c87205415610742576106856103e88e868a5283865289205410156113ed565b8680808061012c8180f11561073857868080806102bc8f82f1156107385783875282528b862080546103e71981019190821161072657558286528a82528b86208054600019810191908211610726578b9360019695938f92937ff9dc5cdc953d34f6526769033d6745919ece6254c7c8eb6876116deb45c1039694558b8a5281526107156104f387848c20611234565b858251918c8352820152a301610630565b634e487b7160e01b885260118d528688fd5b8c513d88823e3d90fd5b508b5162461bcd60e51b8152808c018390526030818701527f4368616c6c656e67657220686173206e6f7420636f6d6d697474656420746f2060448201526f616e7920626c6f636b2077696e646f7760801b818b0152608490fd5b8580f35b85601f60649260208b519362461bcd60e51b85528401528201527f4368616c6c656e67652077696e646f7720616c726561647920706173736564006044820152fd5b50634e487b7160e01b82526011865290fd5b50503461020a578060031936011261020a57818080806108136111f2565b6024359060018060a01b0361082c8185541633146112d2565b8391831561084b575b1690f115610841575080f35b51903d90823e3d90fd5b6108fc9250610835565b83833461020a576108653661121e565b606492919294856108768584611361565b06610b3d5743841115610ae55783821115610a6e57858406610a0b5761089b3361136e565b6108a58584611361565b90600a820291808304600a14901517156109f857906108c591101561131e565b8385526005956020966005602052818588205410156109bc57855b848110610947575050849596506108f9600a9584611361565b049033875260205261090f8387209182546112af565b9055815193845260208401528201527fa8e733e57775d1eca32d84027a85d4c42f4c9387c801a80ce07c1a503b13804460603392a280f35b868852818952858820805490600160401b8210156109a9579061096f91600182018155611234565b81546001600160a01b0360039290921b91821b19163390911b179055808301908110156108e057634e487b7160e01b885260118452602488fd5b634e487b7160e01b8a526041865260248afd5b5090602084519162461bcd60e51b8352820152601760248201527610da185b1b195b99d95c881c1bdbdb081a5cc8199d5b1b604a1b6044820152fd5b634e487b7160e01b875260118352602487fd5b608490776d756c7469706c65206f6620626c6f636b2077696e646f7760401b87602086519362461bcd60e51b8552840152603860248401527f496e76616c696420737461727420626c6f636b2c206e65656420746f206265206044840152820152fd5b60a4907f626c6f636b206d7573742062652067726561746572207468616e20737461727487602086519362461bcd60e51b8552840152604660248401527f496e76616c696420626c6f636b2077696e646f772072616e67652c20656e642060448401528201526520626c6f636b60d01b6084820152fd5b6084906c696e207468652066757475726560981b87602086519362461bcd60e51b8552840152602d60248401527f496e76616c696420737461727420626c6f636b2c206e65656420746f206265206044840152820152fd5b608490676d756c7469706c6560c01b87602086519362461bcd60e51b8552840152602860248401527f496e76616c696420626c6f636b2077696e646f772072616e67652c206e6f74206044840152820152fd5b50503461020a57602036600319011261020a5760209181906001600160a01b03610bb86111f2565b1681526001845220549051908152f35b611262565b83833461020a57606036600319011261020a578235610bea611208565b6044356001600160a01b038181169491859003610d8357610c0f8187541633146112d2565b606484029084820460641485151715610d705785875260209160018352610c3b848920548211156113ed565b61c35086028181046101f41482151715610d5d578899506103e89004978895818088159b8c610d53575b82809291818093f115610d4757831698868a8392610d3d575b8392839283928392f115610d325792610cdb8593879593610ccf7f2e4b40321e205f512441db155b5080356c197414d55b00fbf7ef0529200c8fc19a98868d60609c98526001875220918254611361565b90558b541633146112d2565b878a5260028152610cef85848c2054611361565b888b5260028252838b2055877fa073359ad4bc40c094d3e6c4a846502f3a281056368c29b8442972c4ad1d6987828551888152a28251948552840152820152a380f35b8451903d90823e3d90fd5b6108fc9250610c7e565b508451903d90823e3d90fd5b6108fc9150610c65565b634e487b7160e01b895260118a52602489fd5b634e487b7160e01b875260118852602487fd5b8580fd5b50508060031936011261020a57610de5610d9f6111f2565b835460243593916001600160a01b0391610dbc90831633146112d2565b168085526006602052610dd48483872054101561131e565b845260066020528320918254611361565b905580f35b8334610e125780600319360112610e1257610e0f60018060a01b0382541633146112d2565b80f35b80fd5b6111d0565b50503461020a57602036600319011261020a5760209181906001600160a01b03610e426111f2565b1681526006845220549051908152f35b90503461028f57602036600319011261028f573590610e7b82610e743361136e565b101561131e565b3383526003602052808320610e91838254611361565b90558280838015610ee3575b8280929181923390f115610ed857519081527fedbaf812a554c50088c17404a924a56317bdeeab92b2a4d7bc32493721f6a90460203392a280f35b51913d9150823e3d90fd5b6108fc9150610e9d565b8334610e125780600319360112610e125780f35b50503461020a578160031936011261020a57602090516103e88152f35b90503461028f57602036600319011261028f573590610f4082610e7433611478565b3383526001602052808320610f56838254611361565b90558280838015610f9d575b8280929181923390f115610ed857519081527f7ece0b5879e2c02894ab69f96547e98f6b2726dd6be98c7fd338ec72c85cf03460203392a280f35b6108fc9150610f62565b50503461020a578160031936011261020a576020905161012c8152f35b50503461020a57602036600319011261020a57602090610387610fe56111f2565b61136e565b8380600319360112610e125780f35b90503461028f57602036600319011261028f5760209282916001600160a01b036110216111f2565b168252845220549051908152f35b50503461020a578160031936011261020a57602090516102bc8152f35b90503461028f578160031936011261028f57803590611069611208565b84546001600160a01b03929061108290841633146112d2565b6064840290848204606414851517156110ea575091816110c9602094610e747f208d2f04c8fbda7bae9dd6d8f88ff4fc0e5db7dc80f79de7adfd310210239de49795611478565b1693848652600283528086206110e08382546112af565b905551908152a280f35b634e487b7160e01b875260119052602486fd5b50508160031936011261020a5733825260066020528082206111203482546112af565b9055513481527f465f2f25d935a282b8cd15491a42bf6504e87fff5999088738acc28568fd414760203392a280f35b50503461020a5761115f3661121e565b929081526005602052818120908154841015610e12575060209261118291611234565b905491519160018060a01b039160031b1c168152f35b50503461020a57602036600319011261020a5760209181906001600160a01b036111c06111f2565b1681526003845220549051908152f35b346111ed5760003660031901126111ed5760206040516101f48152f35b600080fd5b600435906001600160a01b03821682036111ed57565b602435906001600160a01b03821682036111ed57565b60409060031901126111ed576004359060243590565b805482101561124c5760005260206000200190600090565b634e487b7160e01b600052603260045260246000fd5b346111ed5760003660031901126111ed57602060405160648152f35b9181601f840112156111ed5782359167ffffffffffffffff83116111ed576020808501948460051b0101116111ed57565b919082018092116112bc57565b634e487b7160e01b600052601160045260246000fd5b156112d957565b60405162461bcd60e51b815260206004820152601f60248201527f43616c6c6572206973206e6f74207468652067616d6520636f6e7472616374006044820152606490fd5b1561132557565b60405162461bcd60e51b8152602060048201526014602482015273496e73756666696369656e742062616c616e636560601b6044820152606490fd5b919082039182116112bc57565b9060009160018060a01b031682526003602052604082205460046020526040832054906064820291808304606414811517156113d9576103e80291808304600a14901517156113c5576113c2929350611361565b90565b634e487b7160e01b84526011600452602484fd5b634e487b7160e01b85526011600452602485fd5b156113f457565b60405162461bcd60e51b815260206004820152602260248201527f496e73756666696369656e742062616c616e636520746f20626520736c617368604482015261195960f21b6064820152608490fd5b919081101561124c5760051b0190565b81835290916001600160fb1b0383116111ed5760209260051b809284830137010190565b60018060a01b0316600052600160205260406000205460026020526040600020546064810290808204606414901517156112bc576113c29161136156fea2646970667358221220565b2e099fc2d8eb7a6cbc0f4d27a909f78f19a5de98575662a879d7cabd633564736f6c6343000818003360803461007857601f61126338819003918201601f19168301916001600160401b0383118484101761007d5780849260209460405283398101031261007857516001600160a01b038116908190036100785760018055600080546001600160a01b0319169190911790556040516111cf90816100948239f35b600080fd5b634e487b7160e01b600052604160045260246000fdfe608080604052600436101561001357600080fd5b600090813560e01c908162218d7c1461046d57508063117a5b90146103c7578063382d38821461039b578063b135bbb01461037d578063c09ff5d614610240578063d296306314610137578063d3f33009146101105763f3a005751461007857600080fd5b3461010d576020806003193601126101095790606060405161009981610b0a565b369037600435815260026020526002604082200191604051928383905b600382106100f3575050506100ca83610b0a565b6040519291835b600382106100de57606085f35b828060019286518152019401910190926100d1565b82548152600192830192919091019083016100b6565b5080fd5b80fd5b503461010d578060031936011261010d57546040516001600160a01b039091168152602090f35b503461010d57604036600319011261010d57610151610c49565b6004358252602090600282528260018060a01b03602481600160408520015416936040519485938492634fe8446f60e01b84521660048301525afa9283156102345780936101b4575b50506101b0604051928284938452830190610c24565b0390f35b909192503d8082843e6101c78184610b3b565b8201918381840312610109578051906001600160401b038211610230570182601f82011215610109578051916101fc83610c5f565b9361020a6040519586610b3b565b83855285848401011161010d57509061022891848085019101610c01565b90388061019a565b8280fd5b604051903d90823e3d90fd5b503461010d57606036600319011261010d5761025a610c49565b6001600160401b036044358181116103795761027a903690600401610a9e565b84546001600160a01b03949085163303610322578592600435845260026020528560016040862001541691823b1561031e576102d793859160405198899687958694631535530f60e01b8652604060048701526044860191610cc8565b9116602483015203925af18015610313576102f0578280f35b81116102ff5760405238808280f35b634e487b7160e01b82526041600452602482fd5b6040513d85823e3d90fd5b8480fd5b60405162461bcd60e51b815260206004820152602960248201527f4f6e6c792067616d6520636f6e74726163742063616e2063616c6c207468697360448201526810333ab731ba34b7b760b91b6064820152608490fd5b8380fd5b503461010d578060031936011261010d576020600154604051908152f35b503461010d57602036600319011261010d57604060209160043581526002835220541515604051908152f35b503461010d57602036600319011261010d57604090600435815260026020522080546101b060018060a01b039261045f84600183015416946005830154169161045161041560068301610b5c565b61042d600861042660078601610b5c565b9401610b5c565b9460405198899889526020890152604088015260c0606088015260c0870190610c24565b908582036080870152610c24565b9083820360a0850152610c24565b9050346101095760c03660031901126101095736606411610109576064356001600160401b038111610230576104a7903690600401610a9e565b90916084356001600160401b03811161031e576104c8903690600401610a9e565b919060a4356001600160401b038111610a9a576104e9903690600401610a9e565b9190926104b0808201908282106001600160401b03831117610a7b576020918391610cea833930815203019088f0938415610a8f576001546040518060e08101106001600160401b0360e083011117610a7b5760e0810160409081528282526001600160a01b0388166020830152519161056283610b0a565b6004835b60648210610a6b57505060408201928352336060830152610588368a8c610c7a565b6080830152610598368587610c7a565b60a08301526105a8368789610c7a565b60c08301528a526002602090815260408b2082518155908201516001820180546001600160a01b0319166001600160a01b039290921691909117905591518a5b60038110610a5457505060608101516005830180546001600160a01b0319166001600160a01b039290921691909117905560808101518051906001600160401b0382116109935781908c61063f6006870154610ad0565b601f8111610a21575b5050602090601f83116001146109b2578d926109a7575b50508160011b916000199060031b1c19161760068301555b60a08101519081516001600160401b038111610993578b61069b6007860154610ad0565b601f8111610960575b50506020928c601f83116001146108ed5760c0949091836108e2575b50508160011b916000199060031b1c19161760078401555b01518051906001600160401b0382116108ce576106f86008840154610ad0565b601f8111610890575b506020908b601f84116001146107f057936008846107af956107bd99956107a19f9e9c99957f1c89d1b32ffa483287a960141c99b4a26287008b18903c257073f80eb961bd5c9e9c99926107e5575b50508160011b916000199060031b1c1916179101555b6001546040516001600160a01b0390981688529a8b9a97988998906101006060600460208d01373360808c01528060a08c01528a0191610cc8565b9187830360c0890152610cc8565b9184830360e0860152610cc8565b0390a2600181018091116107d15760015580f35b634e487b7160e01b82526011600452602482fd5b015190503880610750565b5090600884018c5260208c20918c5b601f198516811061087857509360086001856107bd99956107a19f9e9c99957f1c89d1b32ffa483287a960141c99b4a26287008b18903c257073f80eb961bd5c9e9c996107af99601f1981161061085f575b505050811b01910155610766565b015160001960f88460031b161c19169055388080610851565b919260206001819286850151815501940192016107ff565b6108be90600885018d5260208d20601f850160051c810191602086106108c4575b601f0160051c0190610cb1565b38610701565b90915081906108b1565b634e487b7160e01b8b52604160045260248bfd5b0151905038806106c0565b50909192600785018d5260208d20918d5b601f1985168110610948575091839160019360c09695601f1981161061092f575b505050811b0160078401556106d8565b015160001960f88460031b161c1916905538808061091f565b919260206001819286850151815501940192016108fe565b602061098c9260078801815220601f840160051c810191602085106108c457601f0160051c0190610cb1565b8b386106a4565b634e487b7160e01b8c52604160045260248cfd5b01519050388061065f565b9250600685018d5260208d20908d935b601f1984168510610a06576001945083601f198116106109ed575b505050811b016006830155610677565b015160001960f88460031b161c191690553880806109dd565b818101518355602094850194600190930192909101906109c2565b6020610a4d9260068901815220601f850160051c810191602086106108c457601f0160051c0190610cb1565b8c38610648565b6001906020835193019260028287010155016105e8565b8135815260209182019101610566565b634e487b7160e01b8a52604160045260248afd5b6040513d89823e3d90fd5b8680fd5b9181601f84011215610acb578235916001600160401b038311610acb5760208381860195010111610acb57565b600080fd5b90600182811c92168015610b00575b6020831014610aea57565b634e487b7160e01b600052602260045260246000fd5b91607f1691610adf565b606081019081106001600160401b03821117610b2557604052565b634e487b7160e01b600052604160045260246000fd5b90601f801991011681019081106001600160401b03821117610b2557604052565b90604051918260008254610b6f81610ad0565b90818452602094600191600181169081600014610bdf5750600114610ba0575b505050610b9e92500383610b3b565b565b600090815285812095935091905b818310610bc7575050610b9e9350820101388080610b8f565b85548884018501529485019487945091830191610bae565b92505050610b9e94925060ff191682840152151560051b820101388080610b8f565b60005b838110610c145750506000910152565b8181015183820152602001610c04565b90602091610c3d81518092818552858086019101610c01565b601f01601f1916010190565b602435906001600160a01b0382168203610acb57565b6001600160401b038111610b2557601f01601f191660200190565b929192610c8682610c5f565b91610c946040519384610b3b565b829481845281830111610acb578281602093846000960137010152565b818110610cbc575050565b60008155600101610cb1565b908060209392818452848401376000828201840152601f01601f191601019056fe60803461007457601f6104b038819003918201601f19168301916001600160401b038311848410176100795780849260209460405283398101031261007457516001600160a01b0381169081900361007457600080546001600160a01b03191691909117905560405161042090816100908239f35b600080fd5b634e487b7160e01b600052604160045260246000fdfe604060808152600436101561001357600080fd5b600090813560e01c806302a22337146102595780631535530f1461008c57634fe8446f1461004057600080fd5b3461008857602036600319011261008857610084916100799082906001600160a01b0361006b610281565b1681526001602052206102d6565b9051918291826103a1565b0390f35b5080fd5b50346100885780600319360112610088576004359067ffffffffffffffff8083116102555736602384011215610255578260040135908111610255576024368183860101116102515780356001600160a01b038181169182900361024d57865416330361020057855260019260209084825286209461010b865461029c565b601f81116101ba575b508691601f851160011461015257509183949184938895610145575b5050501b916000199060031b1c191617905580f35b0101359250388080610130565b92909184601f198116888a52858a20958a905b8983831061019e5750505010610182575b50505050811b01905580f35b60001960f88660031b161c199201013516905538808080610176565b8786018701358955909701969384019388935090810190610165565b868852828820601f860160051c8101918487106101f6575b601f0160051c019086905b8281106101eb575050610114565b8981550186906101dd565b90915081906101d2565b835162461bcd60e51b8152602060048201526021818401527f4f6e6c79206f776e65722063616e2063616c6c20746869732066756e6374696f6044820152603760f91b6064820152608490fd5b8680fd5b8480fd5b8380fd5b503461008857602036600319011261008857610084916100799082906001600160a01b0361006b5b600435906001600160a01b038216820361029757565b600080fd5b90600182811c921680156102cc575b60208310146102b657565b634e487b7160e01b600052602260045260246000fd5b91607f16916102ab565b906040519160009080546102e98161029c565b908186526020926001916001811690816000146103835750600114610347575b50505050829003601f01601f1916820167ffffffffffffffff81118382101761033157604052565b634e487b7160e01b600052604160045260246000fd5b909293506000528260002091836000935b83851061036f575050505083010138808080610309565b805488860183015293019284908201610358565b60ff191688860152505050151560051b840101905038808080610309565b6020808252825181830181905290939260005b8281106103d657505060409293506000838284010152601f8019910116010190565b8181018601518482016040015285016103b456fea2646970667358221220a1911dd4bcab15278556c1946972989ee04fd46405aead5618e9779f08e86e6d64736f6c63430008180033a264697066735822122094be36bce0a05e6cff9a12777249609eec55222b68c4e114dc1e1c56a426b2df64736f6c63430008180033",
  "linkReferences": {},
  "deployedLinkReferences": {}
}