{
  "_format": "hh-sol-artifact-1",
  "contractName": "SpinOPZKGameContract",
  "sourceName": "contracts/game_opzk/GameContract.sol",
  "abi": [
    {
      "inputs": [
        {
          "internalType": "address",
          "name": "_verifier",
          "type": "address"
        }
      ],
      "stateMutability": "nonpayable",
      "type": "constructor"
    },
    {
      "anonymous": false,
      "inputs": [
        {
          "indexed": true,
          "internalType": "uint256",
          "name": "submissionIndex",
          "type": "uint256"
        },
        {
          "indexed": true,
          "internalType": "address",
          "name": "challenger",
          "type": "address"
        }
      ],
      "name": "ChallengeEvent",
      "type": "event"
    },
    {
      "anonymous": false,
      "inputs": [
        {
          "indexed": true,
          "internalType": "uint256",
          "name": "submissionIndex",
          "type": "uint256"
        }
      ],
      "name": "SettleEvent",
      "type": "event"
    },
    {
      "anonymous": false,
      "inputs": [
        {
          "indexed": true,
          "internalType": "uint256",
          "name": "submissionIndex",
          "type": "uint256"
        }
      ],
      "name": "SettleSubmissionDroppedEvent",
      "type": "event"
    },
    {
      "anonymous": false,
      "inputs": [
        {
          "indexed": true,
          "internalType": "uint256",
          "name": "submissionIndex",
          "type": "uint256"
        },
        {
          "indexed": true,
          "internalType": "uint256",
          "name": "submissionNonce",
          "type": "uint256"
        },
        {
          "indexed": true,
          "internalType": "address",
          "name": "playerAddress",
          "type": "address"
        }
      ],
      "name": "SubmissionEvent",
      "type": "event"
    },
    {
      "inputs": [],
      "name": "CHALLENGING_WINDOW",
      "outputs": [
        {
          "internalType": "uint256",
          "name": "",
          "type": "uint256"
        }
      ],
      "stateMutability": "view",
      "type": "function"
    },
    {
      "inputs": [
        {
          "internalType": "uint64",
          "name": "input",
          "type": "uint64"
        }
      ],
      "name": "_reverseBytes",
      "outputs": [
        {
          "internalType": "uint64",
          "name": "",
          "type": "uint64"
        }
      ],
      "stateMutability": "pure",
      "type": "function"
    },
    {
      "inputs": [],
      "name": "batch_settle",
      "outputs": [],
      "stateMutability": "nonpayable",
      "type": "function"
    },
    {
      "inputs": [],
      "name": "batch_submit_submission",
      "outputs": [],
      "stateMutability": "nonpayable",
      "type": "function"
    },
    {
      "inputs": [
        {
          "internalType": "uint256",
          "name": "gameId",
          "type": "uint256"
        },
        {
          "internalType": "uint256",
          "name": "submissionIndex",
          "type": "uint256"
        },
        {
          "internalType": "uint256",
          "name": "segmentIndex",
          "type": "uint256"
        },
        {
          "internalType": "uint256[]",
          "name": "proof",
          "type": "uint256[]"
        },
        {
          "internalType": "uint256[]",
          "name": "verify_instance",
          "type": "uint256[]"
        },
        {
          "internalType": "uint256[]",
          "name": "aux",
          "type": "uint256[]"
        },
        {
          "internalType": "uint256[][]",
          "name": "instances",
          "type": "uint256[][]"
        }
      ],
      "name": "challenge_idle_challenger",
      "outputs": [],
      "stateMutability": "nonpayable",
      "type": "function"
    },
    {
      "inputs": [
        {
          "internalType": "uint256",
          "name": "gameId",
          "type": "uint256"
        },
        {
          "internalType": "uint256",
          "name": "submissionIndex",
          "type": "uint256"
        },
        {
          "internalType": "uint256",
          "name": "segmentIndex",
          "type": "uint256"
        },
        {
          "internalType": "uint256[]",
          "name": "proof",
          "type": "uint256[]"
        },
        {
          "internalType": "uint256[]",
          "name": "verify_instance",
          "type": "uint256[]"
        },
        {
          "internalType": "uint256[]",
          "name": "aux",
          "type": "uint256[]"
        },
        {
          "internalType": "uint256[][]",
          "name": "instances",
          "type": "uint256[][]"
        }
      ],
      "name": "challenge_operator",
      "outputs": [],
      "stateMutability": "nonpayable",
      "type": "function"
    },
    {
      "inputs": [
        {
          "internalType": "uint64[4]",
          "name": "a",
          "type": "uint64[4]"
        },
        {
          "internalType": "uint64[4]",
          "name": "b",
          "type": "uint64[4]"
        }
      ],
      "name": "equalUintArrays",
      "outputs": [
        {
          "internalType": "bool",
          "name": "",
          "type": "bool"
        }
      ],
      "stateMutability": "pure",
      "type": "function"
    },
    {
      "inputs": [],
      "name": "getStakingContract",
      "outputs": [
        {
          "internalType": "address",
          "name": "",
          "type": "address"
        }
      ],
      "stateMutability": "view",
      "type": "function"
    },
    {
      "inputs": [],
      "name": "getStorageContract",
      "outputs": [
        {
          "internalType": "address",
          "name": "",
          "type": "address"
        }
      ],
      "stateMutability": "view",
      "type": "function"
    },
    {
      "inputs": [
        {
          "internalType": "uint256",
          "name": "submissionIndex",
          "type": "uint256"
        }
      ],
      "name": "getSubmission",
      "outputs": [
        {
          "internalType": "uint256",
          "name": "gameId",
          "type": "uint256"
        },
        {
          "internalType": "uint256",
          "name": "blockNumber",
          "type": "uint256"
        },
        {
          "internalType": "address",
          "name": "playerAddress",
          "type": "address"
        },
        {
          "internalType": "address",
          "name": "operatorAddress",
          "type": "address"
        },
        {
          "internalType": "enum SubmissionStatus",
          "name": "status",
          "type": "uint8"
        },
        {
          "internalType": "bytes32[]",
          "name": "segmentInitialStateHashes",
          "type": "bytes32[]"
        }
      ],
      "stateMutability": "view",
      "type": "function"
    },
    {
      "inputs": [
        {
          "internalType": "address",
          "name": "player",
          "type": "address"
        }
      ],
      "name": "getSubmissionNonce",
      "outputs": [
        {
          "internalType": "uint256",
          "name": "",
          "type": "uint256"
        }
      ],
      "stateMutability": "view",
      "type": "function"
    },
    {
      "inputs": [],
      "name": "getVerifierContract",
      "outputs": [
        {
          "internalType": "address",
          "name": "",
          "type": "address"
        }
      ],
      "stateMutability": "view",
      "type": "function"
    },
    {
      "inputs": [
        {
          "internalType": "bytes32",
          "name": "data",
          "type": "bytes32"
        }
      ],
      "name": "hashBytes32ToUint64Array",
      "outputs": [
        {
          "internalType": "uint64[4]",
          "name": "",
          "type": "uint64[4]"
        }
      ],
      "stateMutability": "pure",
      "type": "function"
    },
    {
      "inputs": [],
      "name": "nextSettleIndex",
      "outputs": [
        {
          "internalType": "uint256",
          "name": "",
          "type": "uint256"
        }
      ],
      "stateMutability": "view",
      "type": "function"
    },
    {
      "inputs": [],
      "name": "nextSubmissionIndex",
      "outputs": [
        {
          "internalType": "uint256",
          "name": "",
          "type": "uint256"
        }
      ],
      "stateMutability": "view",
      "type": "function"
    },
    {
      "inputs": [],
      "name": "owner",
      "outputs": [
        {
          "internalType": "address",
          "name": "",
          "type": "address"
        }
      ],
      "stateMutability": "view",
      "type": "function"
    },
    {
      "inputs": [
        {
          "internalType": "uint256[3]",
          "name": "addressParts",
          "type": "uint256[3]"
        }
      ],
      "name": "parseAddress",
      "outputs": [
        {
          "internalType": "address",
          "name": "",
          "type": "address"
        }
      ],
      "stateMutability": "pure",
      "type": "function"
    },
    {
      "inputs": [
        {
          "internalType": "uint256[][]",
          "name": "instances",
          "type": "uint256[][]"
        }
      ],
      "name": "parseProofInstances",
      "outputs": [
        {
          "internalType": "uint64[4]",
          "name": "metaDataHash",
          "type": "uint64[4]"
        },
        {
          "internalType": "uint64[4]",
          "name": "endGameStateHash",
          "type": "uint64[4]"
        }
      ],
      "stateMutability": "pure",
      "type": "function"
    },
    {
      "inputs": [
        {
          "internalType": "address",
          "name": "",
          "type": "address"
        }
      ],
      "name": "playerSubmissionNonce",
      "outputs": [
        {
          "internalType": "uint256",
          "name": "",
          "type": "uint256"
        }
      ],
      "stateMutability": "view",
      "type": "function"
    },
    {
      "inputs": [
        {
          "internalType": "bytes32",
          "name": "hash",
          "type": "bytes32"
        },
        {
          "components": [
            {
              "internalType": "bytes32",
              "name": "r",
              "type": "bytes32"
            },
            {
              "internalType": "bytes32",
              "name": "yParityAndS",
              "type": "bytes32"
            }
          ],
          "internalType": "struct SignatureCompact",
          "name": "sig",
          "type": "tuple"
        }
      ],
      "name": "recoverHashFromCompact",
      "outputs": [
        {
          "internalType": "address",
          "name": "",
          "type": "address"
        }
      ],
      "stateMutability": "pure",
      "type": "function"
    },
    {
      "inputs": [
        {
          "internalType": "address",
          "name": "new_owner",
          "type": "address"
        }
      ],
      "name": "setOwner",
      "outputs": [],
      "stateMutability": "nonpayable",
      "type": "function"
    },
    {
      "inputs": [
        {
          "internalType": "address",
          "name": "verifier_address",
          "type": "address"
        }
      ],
      "name": "setVerifier",
      "outputs": [],
      "stateMutability": "nonpayable",
      "type": "function"
    },
    {
      "inputs": [
        {
          "internalType": "uint256[3]",
          "name": "commitments",
          "type": "uint256[3]"
        }
      ],
      "name": "setVerifierImageCommitments",
      "outputs": [],
      "stateMutability": "nonpayable",
      "type": "function"
    },
    {
      "inputs": [
        {
          "internalType": "uint256",
          "name": "gameId",
          "type": "uint256"
        },
        {
          "internalType": "uint256",
          "name": "submissionIndex",
          "type": "uint256"
        },
        {
          "internalType": "bytes",
          "name": "finalState",
          "type": "bytes"
        }
      ],
      "name": "settle",
      "outputs": [],
      "stateMutability": "nonpayable",
      "type": "function"
    },
    {
      "inputs": [],
      "name": "stakingContract",
      "outputs": [
        {
          "internalType": "contract StakingContract",
          "name": "",
          "type": "address"
        }
      ],
      "stateMutability": "view",
      "type": "function"
    },
    {
      "inputs": [],
      "name": "storageContract",
      "outputs": [
        {
          "internalType": "contract GameStateStorage",
          "name": "",
          "type": "address"
        }
      ],
      "stateMutability": "view",
      "type": "function"
    },
    {
      "inputs": [
        {
          "internalType": "uint256",
          "name": "",
          "type": "uint256"
        }
      ],
      "name": "submissionPayment",
      "outputs": [
        {
          "internalType": "uint256",
          "name": "",
          "type": "uint256"
        }
      ],
      "stateMutability": "view",
      "type": "function"
    },
    {
      "inputs": [
        {
          "internalType": "uint256",
          "name": "game_id",
          "type": "uint256"
        },
        {
          "internalType": "uint256",
          "name": "submission_nonce",
          "type": "uint256"
        },
        {
          "internalType": "address",
          "name": "paymaster",
          "type": "address"
        },
        {
          "components": [
            {
              "internalType": "bytes32",
              "name": "r",
              "type": "bytes32"
            },
            {
              "internalType": "bytes32",
              "name": "yParityAndS",
              "type": "bytes32"
            }
          ],
          "internalType": "struct SignatureCompact",
          "name": "player_signature",
          "type": "tuple"
        },
        {
          "internalType": "bytes32[]",
          "name": "segmentInitialStateHashes",
          "type": "bytes32[]"
        },
        {
          "internalType": "bytes32[]",
          "name": "segmentPlayerInputsHashes",
          "type": "bytes32[]"
        }
      ],
      "name": "submit_submission",
      "outputs": [],
      "stateMutability": "nonpayable",
      "type": "function"
    },
    {
      "inputs": [],
      "name": "verifier",
      "outputs": [
        {
          "internalType": "contract IZKVerifier",
          "name": "",
          "type": "address"
        }
      ],
      "stateMutability": "view",
      "type": "function"
    },
    {
      "inputs": [
        {
          "internalType": "uint256",
          "name": "",
          "type": "uint256"
        }
      ],
      "name": "zk_image_commitments",
      "outputs": [
        {
          "internalType": "uint256",
          "name": "",
          "type": "uint256"
        }
      ],
      "stateMutability": "view",
      "type": "function"
    }
  ],
  "bytecode": "0x6080346200018057601f62003d0638819003918201601f19168301926001600160401b03929091838511838610176200016a5781602092849260409788528339810103126200018057516001600160a01b0380821691829003620001805760018060a01b0319913383600254161760025582600154161760015583516104509384820194828610828711176200016a57620038b6928184823980600097039087f080156200014c57841685875416178655865161157b8082019082821085831117620001565760209183916200233b833930815203019087f080156200014c57841685600654161760065586519281840192848410908411176200013857908392918339039084f080156200012e5716908254161790556001600a556001600b55516121b59081620001868239f35b84513d85823e3d90fd5b634e487b7160e01b87526041600452602487fd5b87513d88823e3d90fd5b634e487b7160e01b89526041600452602489fd5b634e487b7160e01b600052604160045260246000fd5b600080fdfe608080604052600436101561001357600080fd5b600090813560e01c90816311ce02671461167e575080631255aa5a14610ad957806313af40351461163557806315a76bb4146114e157806323c19ebf1461141f5780632b7ac3f3146108bc5780632bdd45b9146113e557806337e87d57146113b95780633e8686cc146112ed5780634a00ac691461129157806350a2aaa9146112735780635437988d1461122b578063560bfc7e146111e757806366798792146107b45780636800ad15146111cb5780636aea262f14610b125780636e77927114610ad95780637189997e14610a215780638427fe8e146109655780638c1336ec146109385780638da5cb5b1461090f5780638e68dce4146101b2578063951f9a5c146108e5578063a74a0434146108bc578063b1f3c349146107b9578063b49dac2c146107b4578063e0ee836b146101db578063ee99205c146101b2578063f03421251461018b5763fd9ce9a61461016b57600080fd5b346101885780600319360112610188576020600a54604051908152f35b80fd5b5034610188578060031936011261018857546040516001600160a01b039091168152602090f35b50346101885780600319360112610188576006546040516001600160a01b039091168152602090f35b5034610188576060366003190112610188576001600160401b0380604435116107b0573660236044350112156107b057604435600401351161018857366024604435600401356044350101116101885761023b600a5460243511156118e4565b602435600b540361075457602435815260076020526040812060038101549060ff8260a01c1691600483101561074057600283146106fb57600182015480156106ba576001859403610320575b5050610295600b54611c13565b600b5560018060a01b036003816006541692015416602435835260086020526040832054823b1561031b5760405163061043c560e51b81526001600160a01b03909216600483015260248201529082908290818381604481015b03925af18015610310576103005750f35b61030990611824565b6101885780f35b6040513d84823e3d90fd5b505050fd5b909250606481018091116106a657431061065757600481019182541561064157600092835260209092205483546002830154604051634fe8446f60e01b81526001600160a01b039182166004820181905287969390921693908681602481885afa8015610636576103aa8891602093839161061c575b508360405192828480945193849201611b9a565b8101039060025afa156106115785805192602460405180978193634fe8446f60e01b835260048301525afa80156106065760008091601f9689916105e4575b5060405161043960648260208101946305f3bfab60e11b8652602060248301526104228151809281604486015260208686019101611b9a565b8b199b8c910116810103604481018452018261186d565b51906a636f6e736f6c652e6c6f675afa50036105a55750825460028301546001600160a01b0391821692911690823b156105a157606492859283604051958680958194631535530f60e01b8352604060048401526044356004013560448401526044356004013560246044350185850137848460443560040135850101526024830152601f60443560040135011681010301925af190811561058257839161058d575b505060038101805460ff60a01b1916600160a11b1790556024357f67f9b6da05d35c16622d2e4741ef3dea2b527d384310142c1695c305906e569e8380a25b60065460038201546001600160a01b039182169116813b1561031b57839160448392604051948593849263fc66db6960e01b84526001600485015260248401525af1908115610582578391156102885761057490611824565b61057f578138610288565b50fd5b6040513d85823e3d90fd5b61059690611824565b61057f5781386104dc565b8480fd5b60ff60a01b1916600360a01b176003830155506024357f4f13636edcd4cbb9552e5d208fab3cff0feadf50b18a6e17226fca096cb25ad18380a261051b565b61060091503d808b833e6105f8818361186d565b810190611c88565b386103e9565b6040513d88823e3d90fd5b6040513d87823e3d90fd5b61063091503d8085833e6105f8818361186d565b38610396565b6040513d89823e3d90fd5b634e487b7160e01b600052603260045260246000fd5b60405162461bcd60e51b815260206004820152602160248201527f4368616c6c656e67696e672077696e646f7720686173206e6f742070617373656044820152601960fa1b6064820152608490fd5b634e487b7160e01b84526011600452602484fd5b60405162461bcd60e51b815260206004820152601960248201527814dd589b5a5cdcda5bdb88191bd95cc81b9bdd08195e1a5cdd603a1b6044820152606490fd5b60405162461bcd60e51b815260206004820152601a60248201527f5375626d697373696f6e20616c726561647920736574746c65640000000000006044820152606490fd5b634e487b7160e01b84526021600452602484fd5b60405162461bcd60e51b815260206004820152602e60248201527f5375626d697373696f6e20616c726561647920736574746c65642c20496e646560448201526d3c1037baba1037b31037b93232b960911b6064820152608490fd5b5080fd5b611811565b5034610188576107c8366116e8565b9698979950946107e2600a959295949394548911156118e4565b878b526007602052600160408c2001549860648a01808b116108a857431115610852578b9a61081099611cf3565b6006546001600160a01b0316803b1561084e576040516330f1fa1f60e21b8152336004820152602481019290925282908290818381604481016102ef565b5050fd5b60405162461bcd60e51b815260206004820152602860248201527f4e6f726d616c206368616c6c656e67696e672077696e646f7720686173206e6f6044820152671d081c185cdcd95960c21b6064820152608490fd5b634e487b7160e01b8d52601160045260248dfd5b50346101885780600319360112610188576001546040516001600160a01b039091168152602090f35b50346101885760203660031901126101885760406020916004358152600883522054604051908152f35b50346101885780600319360112610188576002546040516001600160a01b039091168152602090f35b50346101885760203660031901126101885760043560038110156107b05760209060030154604051908152f35b50346101885760603660031901126101885736602312156101885760405161098c81611837565b606481368211610a1d57602093506004905b828210610a0e575050506001600160401b0363ffffffff6109de6109c483855116611930565b9260406109d5828888015116611930565b95015116611930565b916bffffffffffffffff0000000060405194861b16906001600160401b0360601b9060601b161791841c16178152f35b8135815290840190840161099e565b8380fd5b503461018857610100366003190112610188573660231215610abc57604051610a4981611852565b608481368211610abc576004905b828210610ac157833660a31215610abc5760405190610a7582611852565b8161010491368311610abc576020936084905b848210610aa5575050610a9b9250611c22565b6040519015158152f35b858091610ab184611775565b815201910190610a88565b600080fd5b60208091610ace84611775565b815201910190610a57565b5034610188576020366003190112610188576020906040906001600160a01b03610b016116a2565b168152600983522054604051908152f35b50346101885760e0366003190112610188576044356001600160a01b0381169003610abc5760403660631901126101885760a4356001600160401b0381116107b057610b629036906004016116b8565b60c4356001600160401b038111610a1d57610b819036906004016116b8565b919092602085610bec604051838101906004358252602435604082015260806060820152610bdb8982610bcf610bbb60a083018c8c611b76565b8c601f199485858403016080860152611b76565b0390810183528261186d565b604051928392839251928391611b9a565b8101039060025afa156111c057845160008060405160208101906327b7cf8560e01b825284602482015260248152610c2381611837565b51906a636f6e736f6c652e6c6f675afa5060405160208101917f19457468657265756d205369676e6564204d6573736167653a0a3332000000008352603c820152603c8152610c7181611837565b51902060ff608435811c601b01116111aa576000608060209260405190815260ff608435811c601b011684820152606435604082015260018060ff1b0360843516606082015282805260015afa1561119e576000516001600160a01b031680865260096020526040862054909490602435900361115e576001602435016024351161114a5784865260096020526001602435016040872055600a5493604051938460e08101106001600160401b0360e08701111761113457610d6893610d5c9160e0870160405260043587524360208801528860408801523360608801528960808801523691611bbd565b60a08501523691611bbd565b60c0820152818452600760209081526040808620835181559183015160018301558201516002820180546001600160a01b0319166001600160a01b03928316179055606083015160038301546080850151909291909116906004811015611120576001600160a81b03199092161760a091821b60ff60a01b161760038301558201518051906001600160401b0382116110cd57600160401b82116110cd5760048301548260048501558083106110f5575b5060200160048301875260208720875b8381106110e1575050505060c0820151908151916001600160401b0383116110cd57600160401b83116110cd5760058201548360058401558084106110a2575b506020600591019101865260208620865b83811061108e5750505050610e90600a54611c13565b600a5560065484906001600160a01b0316803b156107b0578180916044604051809481936308fe53e760e21b8352600160048401523360248401525af180156103105761107a575b505060405192602435837fb4369ae4c165e1165289efdf37dcee8df18857e3379869e35d225ed65bb514058780a46044356001600160a01b0316610f1a578380f35b638f5dd2c760e01b83526020600484018190528151602485015281810151604485015260408201516001600160a01b03908116606486015260608301511660848501526080820151909184918291610faa91610f7a9060a48501906117ba565b60c0610f9660a083015160e060c48701526101048601906117dd565b9101518382036023190160e48501526117dd565b03816044356001600160a01b03165afa918215610582578392611046575b5060065483906001600160a01b0316803b156107b05760405163991bab5360e01b8152604480356001600160a01b0316600483015260248201869052909183918391829084905af180156103105761102e575b5052600860205260408220553880808380f35b61103790611824565b61104257823861101b565b8280fd5b9091506020813d602011611072575b816110626020938361186d565b8101031261104257519038610fc8565b3d9150611055565b61108390611824565b610a1d578338610ed8565b600190602084519401938184015501610e7a565b60058301885260208820908482015b81830181106110c1575050610e69565b600081556001016110b1565b634e487b7160e01b87526041600452602487fd5b600190602084519401938184015501610e29565b60048401885260208820908382015b8183018110611114575050610e19565b60008155600101611104565b634e487b7160e01b88526021600452602488fd5b634e487b7160e01b600052604160045260246000fd5b634e487b7160e01b86526011600452602486fd5b60405162461bcd60e51b8152602060048201526018602482015277496e76616c6964207375626d697373696f6e206e6f6e636560401b6044820152606490fd5b6040513d6000823e3d90fd5b634e487b7160e01b600052601160045260246000fd5b6040513d86823e3d90fd5b5034610188578060031936011261018857602060405160648152f35b503461018857606036600319011261018857366064116101885761121660018060a01b0360025416331461188e565b60043560035560243560045560443560055580f35b5034610188576020366003190112610188576112456116a2565b6002546001600160a01b03919061125f908316331461188e565b1660018060a01b0319600154161760015580f35b50346101885780600319360112610188576020600b54604051908152f35b503461018857602036600319011261018857600435906001600160401b038211610188576101006112eb6112d16112cb36600487016116b8565b90611a5d565b6112e16040939293518094611789565b6080830190611789565bf35b5034610188576020908160031936011261018857600435815260078252604081209081549160019160018201549060018060a01b039182600285015416916004600386015495019060405196878a845491828152019383528a8320925b8b8282106113a6578b6113a28c6113918d8d8d8d61136a868f038761186d565b604051988998895288015260408701528116606086015260ff608086019160a01c166117ba565b60c060a084015260c08301906117dd565b0390f35b845486529094019392820192820161134a565b50346101885760203660031901126101885760806113d8600435611991565b6112eb6040518092611789565b5034610188576020366003190112610188576004356001600160401b038082168203610abc57611416602092611930565b60405191168152f35b50346101885760603660031901126101885760403660231901126101885760405160208101907f19457468657265756d205369676e6564204d6573736167653a0a3332000000008252600435603c820152603c815261147d81611837565b5190206044358060ff1c601b0160ff81116111aa5760209260009260ff6080936040519384521685830152602435604083015260018060ff1b0316606082015282805260015afa1561119e576000516040516001600160a01b039091168152602090f35b5034610188576114f0366116e8565b9697989a99509461150b600a959295949394548c11156118e4565b8a8a52600760205260408a2097600189015460648101809111611621574310156115dc57600398909801805460ff60a01b198116600160a01b179091559861155498908c611cf3565b6006546001600160a01b0390811691823b15610a1d57906064849283604051958694859363577061c960e11b8552600160048601523360248601521660448401525af18015610310576115cd575b509033907feaa488150dd59807afe629755b02de91b8f4fd621b0118f80a3da9a7b8704baf8380a380f35b6115d690611824565b386115a2565b60405162461bcd60e51b815260206004820152601d60248201527f4368616c6c656e67696e672077696e646f7720686173207061737365640000006044820152606490fd5b634e487b7160e01b8c52601160045260248cfd5b50346101885760203660031901126101885761164f6116a2565b600254906001600160a01b0390611669338385161461188e565b6001600160a01b031990921691161760025580f35b9050346107b057816003193601126107b05790546001600160a01b03168152602090f35b600435906001600160a01b0382168203610abc57565b9181601f84011215610abc578235916001600160401b038311610abc576020808501948460051b010111610abc57565b9060e0600319830112610abc576004359160243591604435916001600160401b0390606435828111610abc5781611721916004016116b8565b93909392608435818111610abc578361173c916004016116b8565b9390939260a435838111610abc5782611757916004016116b8565b9390939260c435918211610abc57611771916004016116b8565b9091565b35906001600160401b0382168203610abc57565b6000915b6004831061179a57505050565b6001906001600160401b038351168152602080910192019201919061178d565b9060048210156117c75752565b634e487b7160e01b600052602160045260246000fd5b90815180825260208080930193019160005b8281106117fd575050505090565b8351855293810193928101926001016117ef565b34610abc576000366003190112610abc57005b6001600160401b03811161113457604052565b606081019081106001600160401b0382111761113457604052565b608081019081106001600160401b0382111761113457604052565b90601f801991011681019081106001600160401b0382111761113457604052565b1561189557565b60405162461bcd60e51b815260206004820152602160248201527f4f6e6c79206f776e65722063616e2063616c6c20746869732066756e6374696f6044820152603760f91b6064820152608490fd5b156118eb57565b60405162461bcd60e51b815260206004820152601e60248201527f5375626d697373696f6e20696e646578206f7574206f6620626f756e647300006044820152606490fd5b600091825b600880851015611979576001600160fd1b03851685036111aa5767ffffffffffffff0060019260ff6001600160401b0387168860031b1c16921b1617930192611935565b5092509050565b9060048110156106415760051b0190565b90604060806040516119a281611852565b369037604051906119b282611852565b608036833760005b600480821015611a18578160061b90828204841483151715611a035760c0918203918211611a035750906001600160401b03866001931c166119fc8286611980565b52016119ba565b601190634e487b7160e01b6000525260246000fd5b509193505050565b901561064157803590601e1981360301821215610abc5701908135916001600160401b038311610abc576020018260051b36038113610abc579190565b9160405192611a6b84611852565b60803685378360405191611a7e83611852565b60803684378294611a8f8183611a20565b93909315610641576001600160401b03809435168152611aaf8284611a20565b6001101561064157602085910135166020820152611acd8284611a20565b6002101561064157604085910135166040820152611aeb8284611a20565b60031015610641578460608092013516910152611b088183611a20565b60041015610641576080013583168452611b228183611a20565b600510156106415760a0013583166020850152611b3f8183611a20565b60069391931015610641578360c0611b5e940135166040860152611a20565b600792919210156106415760e0606092013516910152565b81835290916001600160fb1b038311610abc5760209260051b809284830137010190565b60005b838110611bad5750506000910152565b8181015183820152602001611b9d565b9092916001600160401b038411611134578360051b6020926020604051611be68285018261186d565b8097815201918101928311610abc57905b828210611c045750505050565b81358152908301908301611bf7565b60001981146111aa5760010190565b9060009060005b60048110611c3a5750505050600190565b6001600160401b0380611c4d8387611980565b511690611c5a8385611980565b511603611c6957600101611c29565b5050905090565b80548210156106415760005260206000200190600090565b602081830312610abc5780516001600160401b0391828211610abc57019082601f83011215610abc5781519081116111345760405192611cd2601f8301601f19166020018561186d565b81845260208284010111610abc57611cf09160208085019101611b9a565b90565b989498979691979592939560005260076020526040600020611d158689611a5d565b600483949294019060018301908184116111aa57611d45611d39611d4b9385611c70565b90549060031b1c611991565b90611c22565b61211c57611d39611d62611d3984611d6c94611c70565b9260058501611c70565b9154906080604051611d7d81611852565b3690376001600160401b03815116926001600160401b03602083015116916001600160401b03606081604084015116920151166001600160401b03835116906001600160401b03602085015116926001600160401b0360608160408801511696015116956040519860208a0198895260408a01526060890152608088015260a087015260c086015260e085015261010084015261012090818401528252816101408101106001600160401b03610140840111176111345781610140816000938260209601604052611e548251809285850190611b9a565b810103910160025afa1561119e57611e7690611e71600051611991565b611c22565b156120bb5760035480611fa7575b506001546001600160a01b031696873b15610abc5760405163ae022ccd60e01b8152608060048201529889979594611ef0949392611ee09291611ecc9160848c019190611b76565b9060031998898b84030160248c0152611b76565b9186888403016044890152611b76565b92848403016064850152808352602083019060208160051b85010193836000915b838310611f405750505050505091818060009403915afa801561119e57611f355750565b611f3e90611824565b565b9193959092949650601f198282030186528635601e1984360301811215610abc57830190602082359201916001600160401b038111610abc578060051b36038313610abc57611f956020928392600195611b76565b98019601930190918896959492611f11565b8860011015610641576020860135036120765787600210156106415760045460408601350361203157876003101561064157600554606086013503611fec5738611e84565b60405162461bcd60e51b815260206004820152601a60248201527f496e76616c696420696d61676520636f6d6d69746d656e7420320000000000006044820152606490fd5b60405162461bcd60e51b815260206004820152601a60248201527f496e76616c696420696d61676520636f6d6d69746d656e7420310000000000006044820152606490fd5b60405162461bcd60e51b815260206004820152601a60248201527f496e76616c696420696d61676520636f6d6d69746d656e7420300000000000006044820152606490fd5b60405162461bcd60e51b815260206004820152603360248201527f537461727420737461746520646f6573206e6f74206d61746368207375626d696044820152727373696f6e2c206e6f206368616c6c656e676560681b6064820152608490fd5b60405162461bcd60e51b815260206004820152603560248201527f4f75747075742066726f6d2070726f6f6620646f6573206d61746368207375626044820152746d697373696f6e2c206e6f206368616c6c656e676560581b6064820152608490fdfea26469706673582212203739edaf962e5c45d1c3e96d66808e6860bd60696bac23bfacfbd60cd6aadeaf64736f6c6343000818003360803461007457601f61157b38819003918201601f19168301916001600160401b038311848410176100795780849260209460405283398101031261007457516001600160a01b0381169081900361007457600080546001600160a01b0319169190911790556040516114eb90816100908239f35b600080fd5b634e487b7160e01b600052604160045260246000fdfe6040608081526004908136101561001557600080fd5b600091823560e01c90816301e28005146111d057816306686b4a146111985781630c4d110d1461114f57816313c57ba0146110fd578163238c0cda14610bc857816323f94f9c1461104c5781632ce569f214610e155781632ffac69e1461102f57816338b2471e14610e15578163424aa23014610ff95781634670998814610fea57816346d2d68f14610fc45781634ef1a2c814610fa75781634f1242ac14610bc8578163623d6a5f14610f1e57816373de880614610f0157816374365f7f14610eed578163759ffb7b14610e525781637dae12c214610e1a57816382fbf80d14610e155781638e8e082e14610dea5781639045bf1814610bc8578163991bab5314610d87578163aee0c39214610bcd578163b2c7b1c314610bc8578163b39bcf3f14610b90578163b57fdcb514610855578163c20878a0146107f5578163c3c7e87c146105c4578163cbed6c9f1461038e578163cc65653714610361578163d38589bb1461030f578163d3f33009146102e7578163d42b7395146102cb578163f738978914610293578163fc66db691461020e575063fea245c8146101ba57600080fd5b8160031936011261020a5733825260016020528082206101db3482546112af565b9055513481527fe967d7e6b0193751e3222ac2bc8e7c61bc0c99a7deb97c78b2304799221c0d9960203392a280f35b5080fd5b90503461028f578160031936011261028f5760207fa073359ad4bc40c094d3e6c4a846502f3a281056368c29b8442972c4ad1d6987913561024d611208565b85546001600160a01b03919061026690831633146112d2565b16938486526002835261027c8282882054611361565b858752600284528187205551908152a280f35b8280fd5b50503461020a57602036600319011261020a5760209181906001600160a01b036102bb6111f2565b1681526002845220549051908152f35b50503461020a578160031936011261020a5760209051600a8152f35b50503461020a578160031936011261020a57905490516001600160a01b039091168152602090f35b50508160031936011261020a5733825260036020528082206103323482546112af565b9055513481527f13d94c4c4e9a7306e1d75f4d1b544bbf746ce406d62bed04b4a6e018a79c8a5c60203392a280f35b50503461020a57602036600319011261020a576020906103876103826111f2565b611478565b9051908152f35b90503461028f578160031936011261028f5767ffffffffffffffff9181358381116105c0576103c0903690840161127e565b92906024946024359081116105bc576103dc903690840161127e565b929095875b8681106104525750509161043c61044c927f61477f9d307a0043d5e24cb59df826ea63bc741dafba391b277a9067a1da3cc8969594338a5260205284892061042a878254611361565b90558451958587968752860191611454565b9083820360208501523396611454565b0390a280f35b61045d818886611444565b35606490818101908181116105aa5761044c018091116105985743111561054257610489828987611444565b358a52896005916104ae8b6104a7868b8d6020978989522093611444565b3590611234565b90543360039290921b1c6001600160a01b03160361050e57506104f38a6104a7858a8f8d908f98610508986104e88f9c809c60019e611444565b358352522093611444565b81549060018060a01b039060031b1b19169055565b016103e1565b885162461bcd60e51b81528087018390526012818701527124b73b30b634b21031b430b63632b733b2b960711b6044820152fd5b836b081a5b881d1a19481c185cdd60a21b608492602c8660208c519562461bcd60e51b87528601528401527f496e76616c696420626c6f636b2077696e646f772c206e65656420746f2062656044840152820152fd5b634e487b7160e01b8b5260118552838bfd5b634e487b7160e01b8c5260118652848cfd5b8680fd5b8480fd5b8391503461020a578260031936011261020a576105df6111f2565b91602480359160018060a01b03906105fb8282541633146112d2565b61060b6064946064810690611361565b92606484018085116107e35761044c85018091116107e35743106107a1579495821694815b84835260056020908082528a8520805484101561079d579061065484889493611234565b939054600394851b1c16928387528b83528c87205415610742576106856103e88e868a5283865289205410156113ed565b8680808061012c8180f11561073857868080806102bc8f82f1156107385783875282528b862080546103e71981019190821161072657558286528a82528b86208054600019810191908211610726578b9360019695938f92937ff9dc5cdc953d34f6526769033d6745919ece6254c7c8eb6876116deb45c1039694558b8a5281526107156104f387848c20611234565b858251918c8352820152a301610630565b634e487b7160e01b885260118d528688fd5b8c513d88823e3d90fd5b508b5162461bcd60e51b8152808c018390526030818701527f4368616c6c656e67657220686173206e6f7420636f6d6d697474656420746f2060448201526f616e7920626c6f636b2077696e646f7760801b818b0152608490fd5b8580f35b85601f60649260208b519362461bcd60e51b85528401528201527f4368616c6c656e67652077696e646f7720616c726561647920706173736564006044820152fd5b50634e487b7160e01b82526011865290fd5b50503461020a578060031936011261020a57818080806108136111f2565b6024359060018060a01b0361082c8185541633146112d2565b8391831561084b575b1690f115610841575080f35b51903d90823e3d90fd5b6108fc9250610835565b83833461020a576108653661121e565b606492919294856108768584611361565b06610b3d5743841115610ae55783821115610a6e57858406610a0b5761089b3361136e565b6108a58584611361565b90600a820291808304600a14901517156109f857906108c591101561131e565b8385526005956020966005602052818588205410156109bc57855b848110610947575050849596506108f9600a9584611361565b049033875260205261090f8387209182546112af565b9055815193845260208401528201527fa8e733e57775d1eca32d84027a85d4c42f4c9387c801a80ce07c1a503b13804460603392a280f35b868852818952858820805490600160401b8210156109a9579061096f91600182018155611234565b81546001600160a01b0360039290921b91821b19163390911b179055808301908110156108e057634e487b7160e01b885260118452602488fd5b634e487b7160e01b8a526041865260248afd5b5090602084519162461bcd60e51b8352820152601760248201527610da185b1b195b99d95c881c1bdbdb081a5cc8199d5b1b604a1b6044820152fd5b634e487b7160e01b875260118352602487fd5b608490776d756c7469706c65206f6620626c6f636b2077696e646f7760401b87602086519362461bcd60e51b8552840152603860248401527f496e76616c696420737461727420626c6f636b2c206e65656420746f206265206044840152820152fd5b60a4907f626c6f636b206d7573742062652067726561746572207468616e20737461727487602086519362461bcd60e51b8552840152604660248401527f496e76616c696420626c6f636b2077696e646f772072616e67652c20656e642060448401528201526520626c6f636b60d01b6084820152fd5b6084906c696e207468652066757475726560981b87602086519362461bcd60e51b8552840152602d60248401527f496e76616c696420737461727420626c6f636b2c206e65656420746f206265206044840152820152fd5b608490676d756c7469706c6560c01b87602086519362461bcd60e51b8552840152602860248401527f496e76616c696420626c6f636b2077696e646f772072616e67652c206e6f74206044840152820152fd5b50503461020a57602036600319011261020a5760209181906001600160a01b03610bb86111f2565b1681526001845220549051908152f35b611262565b83833461020a57606036600319011261020a578235610bea611208565b6044356001600160a01b038181169491859003610d8357610c0f8187541633146112d2565b606484029084820460641485151715610d705785875260209160018352610c3b848920548211156113ed565b61c35086028181046101f41482151715610d5d578899506103e89004978895818088159b8c610d53575b82809291818093f115610d4757831698868a8392610d3d575b8392839283928392f115610d325792610cdb8593879593610ccf7f2e4b40321e205f512441db155b5080356c197414d55b00fbf7ef0529200c8fc19a98868d60609c98526001875220918254611361565b90558b541633146112d2565b878a5260028152610cef85848c2054611361565b888b5260028252838b2055877fa073359ad4bc40c094d3e6c4a846502f3a281056368c29b8442972c4ad1d6987828551888152a28251948552840152820152a380f35b8451903d90823e3d90fd5b6108fc9250610c7e565b508451903d90823e3d90fd5b6108fc9150610c65565b634e487b7160e01b895260118a52602489fd5b634e487b7160e01b875260118852602487fd5b8580fd5b50508060031936011261020a57610de5610d9f6111f2565b835460243593916001600160a01b0391610dbc90831633146112d2565b168085526006602052610dd48483872054101561131e565b845260066020528320918254611361565b905580f35b8334610e125780600319360112610e1257610e0f60018060a01b0382541633146112d2565b80f35b80fd5b6111d0565b50503461020a57602036600319011261020a5760209181906001600160a01b03610e426111f2565b1681526006845220549051908152f35b90503461028f57602036600319011261028f573590610e7b82610e743361136e565b101561131e565b3383526003602052808320610e91838254611361565b90558280838015610ee3575b8280929181923390f115610ed857519081527fedbaf812a554c50088c17404a924a56317bdeeab92b2a4d7bc32493721f6a90460203392a280f35b51913d9150823e3d90fd5b6108fc9150610e9d565b8334610e125780600319360112610e125780f35b50503461020a578160031936011261020a57602090516103e88152f35b90503461028f57602036600319011261028f573590610f4082610e7433611478565b3383526001602052808320610f56838254611361565b90558280838015610f9d575b8280929181923390f115610ed857519081527f7ece0b5879e2c02894ab69f96547e98f6b2726dd6be98c7fd338ec72c85cf03460203392a280f35b6108fc9150610f62565b50503461020a578160031936011261020a576020905161012c8152f35b50503461020a57602036600319011261020a57602090610387610fe56111f2565b61136e565b8380600319360112610e125780f35b90503461028f57602036600319011261028f5760209282916001600160a01b036110216111f2565b168252845220549051908152f35b50503461020a578160031936011261020a57602090516102bc8152f35b90503461028f578160031936011261028f57803590611069611208565b84546001600160a01b03929061108290841633146112d2565b6064840290848204606414851517156110ea575091816110c9602094610e747f208d2f04c8fbda7bae9dd6d8f88ff4fc0e5db7dc80f79de7adfd310210239de49795611478565b1693848652600283528086206110e08382546112af565b905551908152a280f35b634e487b7160e01b875260119052602486fd5b50508160031936011261020a5733825260066020528082206111203482546112af565b9055513481527f465f2f25d935a282b8cd15491a42bf6504e87fff5999088738acc28568fd414760203392a280f35b50503461020a5761115f3661121e565b929081526005602052818120908154841015610e12575060209261118291611234565b905491519160018060a01b039160031b1c168152f35b50503461020a57602036600319011261020a5760209181906001600160a01b036111c06111f2565b1681526003845220549051908152f35b346111ed5760003660031901126111ed5760206040516101f48152f35b600080fd5b600435906001600160a01b03821682036111ed57565b602435906001600160a01b03821682036111ed57565b60409060031901126111ed576004359060243590565b805482101561124c5760005260206000200190600090565b634e487b7160e01b600052603260045260246000fd5b346111ed5760003660031901126111ed57602060405160648152f35b9181601f840112156111ed5782359167ffffffffffffffff83116111ed576020808501948460051b0101116111ed57565b919082018092116112bc57565b634e487b7160e01b600052601160045260246000fd5b156112d957565b60405162461bcd60e51b815260206004820152601f60248201527f43616c6c6572206973206e6f74207468652067616d6520636f6e7472616374006044820152606490fd5b1561132557565b60405162461bcd60e51b8152602060048201526014602482015273496e73756666696369656e742062616c616e636560601b6044820152606490fd5b919082039182116112bc57565b9060009160018060a01b031682526003602052604082205460046020526040832054906064820291808304606414811517156113d9576103e80291808304600a14901517156113c5576113c2929350611361565b90565b634e487b7160e01b84526011600452602484fd5b634e487b7160e01b85526011600452602485fd5b156113f457565b60405162461bcd60e51b815260206004820152602260248201527f496e73756666696369656e742062616c616e636520746f20626520736c617368604482015261195960f21b6064820152608490fd5b919081101561124c5760051b0190565b81835290916001600160fb1b0383116111ed5760209260051b809284830137010190565b60018060a01b0316600052600160205260406000205460026020526040600020546064810290808204606414901517156112bc576113c29161136156fea2646970667358221220565b2e099fc2d8eb7a6cbc0f4d27a909f78f19a5de98575662a879d7cabd633564736f6c634300081800336080806040523461002857600080546001600160a01b03191633179055610422908161002e8239f35b600080fdfe604060808152600436101561001357600080fd5b600090813560e01c806302a223371461025b5780631535530f1461008c57634fe8446f1461004057600080fd5b3461008857602036600319011261008857610084916100799082906001600160a01b0361006b610283565b1681526001602052206102d8565b9051918291826103a3565b0390f35b5080fd5b50346100885780600319360112610088576004359067ffffffffffffffff8083116102575736602384011215610257578260040135908111610257576024368183860101116102535780356001600160a01b038181169182900361024f57865416330361020057855260019260209084825286209461010b865461029e565b601f81116101ba575b508691601f851160011461015257509183949184938895610145575b5050501b916000199060031b1c191617905580f35b0101359250388080610130565b92909184601f198116888a52858a20958a905b8983831061019e5750505010610182575b50505050811b01905580f35b60001960f88660031b161c199201013516905538808080610176565b8786018701358955909701969384019388935090810190610165565b868852828820601f860160051c8101918487106101f6575b601f0160051c019086905b8281106101eb575050610114565b8981550186906101dd565b90915081906101d2565b835162461bcd60e51b8152602060048201526023818401527f4f6e6c792063726561746f722063616e2063616c6c20746869732066756e637460448201526234b7b760e91b6064820152608490fd5b8680fd5b8480fd5b8380fd5b503461008857602036600319011261008857610084916100799082906001600160a01b0361006b5b600435906001600160a01b038216820361029957565b600080fd5b90600182811c921680156102ce575b60208310146102b857565b634e487b7160e01b600052602260045260246000fd5b91607f16916102ad565b906040519160009080546102eb8161029e565b908186526020926001916001811690816000146103855750600114610349575b50505050829003601f01601f1916820167ffffffffffffffff81118382101761033357604052565b634e487b7160e01b600052604160045260246000fd5b909293506000528260002091836000935b83851061037157505050508301013880808061030b565b80548886018301529301928490820161035a565b60ff191688860152505050151560051b84010190503880808061030b565b6020808252825181830181905290939260005b8281106103d857505060409293506000838284010152601f8019910116010190565b8181018601518482016040015285016103b656fea26469706673582212206f8cc2f94c5c5799d70b35845c8e40eaaa76274dfb2a5d8acf6c0549e80b8c3464736f6c63430008180033",
  "linkReferences": {},
  "deployedLinkReferences": {}
}