{
  "_format": "hh-sol-artifact-1",
  "contractName": "SpinOPZKGameContract",
  "sourceName": "contracts/game_opzk/GameContract.sol",
  "abi": [
    {
      "inputs": [
        {
          "internalType": "address",
          "name": "_verifier",
          "type": "address"
        }
      ],
      "stateMutability": "nonpayable",
      "type": "constructor"
    },
    {
      "anonymous": false,
      "inputs": [
        {
          "indexed": true,
          "internalType": "uint256",
          "name": "submissionIndex",
          "type": "uint256"
        },
        {
          "indexed": true,
          "internalType": "address",
          "name": "challenger",
          "type": "address"
        }
      ],
      "name": "ChallengeEvent",
      "type": "event"
    },
    {
      "anonymous": false,
      "inputs": [
        {
          "indexed": true,
          "internalType": "uint256",
          "name": "submissionIndex",
          "type": "uint256"
        }
      ],
      "name": "SettleEvent",
      "type": "event"
    },
    {
      "anonymous": false,
      "inputs": [
        {
          "indexed": true,
          "internalType": "uint256",
          "name": "submissionIndex",
          "type": "uint256"
        }
      ],
      "name": "SettleSubmissionDroppedEvent",
      "type": "event"
    },
    {
      "anonymous": false,
      "inputs": [
        {
          "indexed": true,
          "internalType": "uint256",
          "name": "submissionIndex",
          "type": "uint256"
        },
        {
          "indexed": true,
          "internalType": "uint256",
          "name": "submissionNonce",
          "type": "uint256"
        },
        {
          "indexed": true,
          "internalType": "address",
          "name": "playerAddress",
          "type": "address"
        }
      ],
      "name": "SubmissionEvent",
      "type": "event"
    },
    {
      "inputs": [],
      "name": "CHALLENGING_WINDOW",
      "outputs": [
        {
          "internalType": "uint256",
          "name": "",
          "type": "uint256"
        }
      ],
      "stateMutability": "view",
      "type": "function"
    },
    {
      "inputs": [
        {
          "internalType": "uint64",
          "name": "input",
          "type": "uint64"
        }
      ],
      "name": "_reverseBytes",
      "outputs": [
        {
          "internalType": "uint64",
          "name": "",
          "type": "uint64"
        }
      ],
      "stateMutability": "pure",
      "type": "function"
    },
    {
      "inputs": [],
      "name": "batch_settle",
      "outputs": [],
      "stateMutability": "nonpayable",
      "type": "function"
    },
    {
      "inputs": [],
      "name": "batch_submit_submission",
      "outputs": [],
      "stateMutability": "nonpayable",
      "type": "function"
    },
    {
      "inputs": [
        {
          "internalType": "uint256",
          "name": "submissionIndex",
          "type": "uint256"
        },
        {
          "internalType": "uint256",
          "name": "segmentIndex",
          "type": "uint256"
        },
        {
          "internalType": "uint256[]",
          "name": "proof",
          "type": "uint256[]"
        },
        {
          "internalType": "uint256[]",
          "name": "verify_instance",
          "type": "uint256[]"
        },
        {
          "internalType": "uint256[]",
          "name": "aux",
          "type": "uint256[]"
        },
        {
          "internalType": "uint256[][]",
          "name": "instances",
          "type": "uint256[][]"
        }
      ],
      "name": "challenge_idle_challenger",
      "outputs": [],
      "stateMutability": "nonpayable",
      "type": "function"
    },
    {
      "inputs": [
        {
          "internalType": "uint256",
          "name": "submissionIndex",
          "type": "uint256"
        },
        {
          "internalType": "uint256",
          "name": "segmentIndex",
          "type": "uint256"
        },
        {
          "internalType": "uint256[]",
          "name": "proof",
          "type": "uint256[]"
        },
        {
          "internalType": "uint256[]",
          "name": "verify_instance",
          "type": "uint256[]"
        },
        {
          "internalType": "uint256[]",
          "name": "aux",
          "type": "uint256[]"
        },
        {
          "internalType": "uint256[][]",
          "name": "instances",
          "type": "uint256[][]"
        }
      ],
      "name": "challenge_operator",
      "outputs": [],
      "stateMutability": "nonpayable",
      "type": "function"
    },
    {
      "inputs": [
        {
          "internalType": "uint64[4]",
          "name": "a",
          "type": "uint64[4]"
        },
        {
          "internalType": "uint64[4]",
          "name": "b",
          "type": "uint64[4]"
        }
      ],
      "name": "equalUintArrays",
      "outputs": [
        {
          "internalType": "bool",
          "name": "",
          "type": "bool"
        }
      ],
      "stateMutability": "pure",
      "type": "function"
    },
    {
      "inputs": [],
      "name": "getRegistryContract",
      "outputs": [
        {
          "internalType": "address",
          "name": "",
          "type": "address"
        }
      ],
      "stateMutability": "view",
      "type": "function"
    },
    {
      "inputs": [],
      "name": "getStakingContract",
      "outputs": [
        {
          "internalType": "address",
          "name": "",
          "type": "address"
        }
      ],
      "stateMutability": "view",
      "type": "function"
    },
    {
      "inputs": [
        {
          "internalType": "uint256",
          "name": "submissionIndex",
          "type": "uint256"
        }
      ],
      "name": "getSubmission",
      "outputs": [
        {
          "internalType": "uint256",
          "name": "gameId",
          "type": "uint256"
        },
        {
          "internalType": "uint256",
          "name": "blockNumber",
          "type": "uint256"
        },
        {
          "internalType": "address",
          "name": "playerAddress",
          "type": "address"
        },
        {
          "internalType": "address",
          "name": "operatorAddress",
          "type": "address"
        },
        {
          "internalType": "enum SubmissionStatus",
          "name": "status",
          "type": "uint8"
        },
        {
          "internalType": "bytes32[]",
          "name": "segmentInitialStateHashes",
          "type": "bytes32[]"
        }
      ],
      "stateMutability": "view",
      "type": "function"
    },
    {
      "inputs": [
        {
          "internalType": "address",
          "name": "player",
          "type": "address"
        }
      ],
      "name": "getSubmissionNonce",
      "outputs": [
        {
          "internalType": "uint256",
          "name": "",
          "type": "uint256"
        }
      ],
      "stateMutability": "view",
      "type": "function"
    },
    {
      "inputs": [],
      "name": "getVerifierContract",
      "outputs": [
        {
          "internalType": "address",
          "name": "",
          "type": "address"
        }
      ],
      "stateMutability": "view",
      "type": "function"
    },
    {
      "inputs": [
        {
          "internalType": "bytes32",
          "name": "data",
          "type": "bytes32"
        }
      ],
      "name": "hashBytes32ToUint64Array",
      "outputs": [
        {
          "internalType": "uint64[4]",
          "name": "",
          "type": "uint64[4]"
        }
      ],
      "stateMutability": "pure",
      "type": "function"
    },
    {
      "inputs": [],
      "name": "nextSettleIndex",
      "outputs": [
        {
          "internalType": "uint256",
          "name": "",
          "type": "uint256"
        }
      ],
      "stateMutability": "view",
      "type": "function"
    },
    {
      "inputs": [],
      "name": "nextSubmissionIndex",
      "outputs": [
        {
          "internalType": "uint256",
          "name": "",
          "type": "uint256"
        }
      ],
      "stateMutability": "view",
      "type": "function"
    },
    {
      "inputs": [],
      "name": "owner",
      "outputs": [
        {
          "internalType": "address",
          "name": "",
          "type": "address"
        }
      ],
      "stateMutability": "view",
      "type": "function"
    },
    {
      "inputs": [
        {
          "internalType": "uint256[3]",
          "name": "addressParts",
          "type": "uint256[3]"
        }
      ],
      "name": "parseAddress",
      "outputs": [
        {
          "internalType": "address",
          "name": "",
          "type": "address"
        }
      ],
      "stateMutability": "pure",
      "type": "function"
    },
    {
      "inputs": [
        {
          "internalType": "uint256[][]",
          "name": "instances",
          "type": "uint256[][]"
        }
      ],
      "name": "parseProofInstances",
      "outputs": [
        {
          "internalType": "uint64[4]",
          "name": "metaDataHash",
          "type": "uint64[4]"
        },
        {
          "internalType": "uint64[4]",
          "name": "endGameStateHash",
          "type": "uint64[4]"
        }
      ],
      "stateMutability": "pure",
      "type": "function"
    },
    {
      "inputs": [
        {
          "internalType": "address",
          "name": "",
          "type": "address"
        }
      ],
      "name": "playerSubmissionNonce",
      "outputs": [
        {
          "internalType": "uint256",
          "name": "",
          "type": "uint256"
        }
      ],
      "stateMutability": "view",
      "type": "function"
    },
    {
      "inputs": [
        {
          "internalType": "bytes32",
          "name": "hash",
          "type": "bytes32"
        },
        {
          "components": [
            {
              "internalType": "bytes32",
              "name": "r",
              "type": "bytes32"
            },
            {
              "internalType": "bytes32",
              "name": "yParityAndS",
              "type": "bytes32"
            }
          ],
          "internalType": "struct SignatureCompact",
          "name": "sig",
          "type": "tuple"
        }
      ],
      "name": "recoverHashFromCompact",
      "outputs": [
        {
          "internalType": "address",
          "name": "",
          "type": "address"
        }
      ],
      "stateMutability": "pure",
      "type": "function"
    },
    {
      "inputs": [],
      "name": "registryContract",
      "outputs": [
        {
          "internalType": "contract SpinGameRegistryContract",
          "name": "",
          "type": "address"
        }
      ],
      "stateMutability": "view",
      "type": "function"
    },
    {
      "inputs": [
        {
          "internalType": "address",
          "name": "new_owner",
          "type": "address"
        }
      ],
      "name": "setOwner",
      "outputs": [],
      "stateMutability": "nonpayable",
      "type": "function"
    },
    {
      "inputs": [
        {
          "internalType": "address",
          "name": "verifier_address",
          "type": "address"
        }
      ],
      "name": "setVerifier",
      "outputs": [],
      "stateMutability": "nonpayable",
      "type": "function"
    },
    {
      "inputs": [
        {
          "internalType": "uint256[3]",
          "name": "commitments",
          "type": "uint256[3]"
        }
      ],
      "name": "setVerifierImageCommitments",
      "outputs": [],
      "stateMutability": "nonpayable",
      "type": "function"
    },
    {
      "inputs": [
        {
          "internalType": "uint256",
          "name": "submissionIndex",
          "type": "uint256"
        }
      ],
      "name": "settle",
      "outputs": [],
      "stateMutability": "nonpayable",
      "type": "function"
    },
    {
      "inputs": [],
      "name": "stakingContract",
      "outputs": [
        {
          "internalType": "contract StakingContract",
          "name": "",
          "type": "address"
        }
      ],
      "stateMutability": "view",
      "type": "function"
    },
    {
      "inputs": [
        {
          "internalType": "uint256",
          "name": "",
          "type": "uint256"
        }
      ],
      "name": "submissionPayment",
      "outputs": [
        {
          "internalType": "uint256",
          "name": "",
          "type": "uint256"
        }
      ],
      "stateMutability": "view",
      "type": "function"
    },
    {
      "inputs": [
        {
          "internalType": "uint256",
          "name": "gameId",
          "type": "uint256"
        },
        {
          "internalType": "uint256",
          "name": "submissionNonce",
          "type": "uint256"
        },
        {
          "internalType": "address",
          "name": "paymasterAddress",
          "type": "address"
        },
        {
          "components": [
            {
              "internalType": "bytes32",
              "name": "r",
              "type": "bytes32"
            },
            {
              "internalType": "bytes32",
              "name": "yParityAndS",
              "type": "bytes32"
            }
          ],
          "internalType": "struct SignatureCompact",
          "name": "playerSignature",
          "type": "tuple"
        },
        {
          "internalType": "bytes32[]",
          "name": "segmentInitialStateHashes",
          "type": "bytes32[]"
        },
        {
          "internalType": "bytes32[]",
          "name": "segmentPlayerInputsHashes",
          "type": "bytes32[]"
        },
        {
          "internalType": "bytes",
          "name": "finalState",
          "type": "bytes"
        }
      ],
      "name": "submit_submission",
      "outputs": [],
      "stateMutability": "nonpayable",
      "type": "function"
    },
    {
      "inputs": [],
      "name": "verifier",
      "outputs": [
        {
          "internalType": "contract IZKVerifier",
          "name": "",
          "type": "address"
        }
      ],
      "stateMutability": "view",
      "type": "function"
    },
    {
      "inputs": [
        {
          "internalType": "uint256",
          "name": "",
          "type": "uint256"
        }
      ],
      "name": "zk_image_commitments",
      "outputs": [
        {
          "internalType": "uint256",
          "name": "",
          "type": "uint256"
        }
      ],
      "stateMutability": "view",
      "type": "function"
    }
  ],
  "bytecode": "0x6080346200014957601f62004c2b38819003918201601f19168301926001600160401b0392909183851183861017620001335781602092849260409788528339810103126200014957516001600160a01b03808216929091839003620001495760018060a01b0319923384600254161760025583600154161760015583519061113e918281019281841083851117620001335762003aed823930835260208160009403019083f08015620001295783168483541617825584519061157b80830191838310908311176200011557602091839162002572833930815203019082f09081156200010a5750169060065416176006556001600a556001600b555161242390816200014f8239f35b8451903d90823e3d90fd5b634e487b7160e01b84526041600452602484fd5b85513d84823e3d90fd5b634e487b7160e01b600052604160045260246000fd5b600080fdfe608080604052600436101561001357600080fd5b600090813560e01c9081631255aa5a146119085750806313af4035146118bf578063235081b31461176e57806323c19ebf146116ac57806328c1f99b1461164b5780632b7ac3f3146102f25780632bdd45b91461167257806336ca3d731461164b57806337e87d571461161f5780633a8ff2c314610cf95780633e8686cc14610c2d5780634a00ac6914610bd157806350a2aaa914610bb35780635437988d14610b6b578063560bfc7e14610b275780636679879214610adf5780636800ad1514610ac35780636e77927114610a8a5780637189997e146109d25780638427fe8e146109165780638c1336ec146108e55780638da5cb5b146108bc5780638df82800146103455780638e68dce41461018b578063951f9a5c1461031b578063a74a0434146102f2578063b49dac2c146102de578063d9056eef146101b4578063ee99205c1461018b5763fd9ce9a61461016b57600080fd5b346101885780600319360112610188576020600a54604051908152f35b80fd5b50346101885780600319360112610188576006546040516001600160a01b039091168152602090f35b5034610188576101c336611984565b956101dc600a9a98999a96929695939554891115611b68565b878b526007602052600160408c20015498600a8a01808b116102ca57431115610274578b9a61020a99611f61565b6006546001600160a01b0316803b15610270576040516330f1fa1f60e21b8152336004820152602481019290925282908290818381604481015b03925af18015610265576102555750f35b61025e90611aa8565b6101885780f35b6040513d84823e3d90fd5b5050fd5b60405162461bcd60e51b815260206004820152602860248201527f4e6f726d616c206368616c6c656e67696e672077696e646f7720686173206e6f6044820152671d081c185cdcd95960c21b6064820152608490fd5b634e487b7160e01b8d52601160045260248dfd5b503461018857806003193601126101885780f35b50346101885780600319360112610188576001546040516001600160a01b039091168152602090f35b50346101885760203660031901126101885760406020916004358152600883522054604051908152f35b50346101885760209081600319360112610188576004359161036b600a54841115611b68565b82600b5403610861578282526007815260408220926003840191825460ff8160a01c16600481101561084d57600281146108085760019060018801549081156107c757600103610424575b5050508394506008906103ca600b54611d96565b600b5560018060a01b038060065416945416928552526040832054823b1561041f5760405163061043c560e51b81526001600160a01b0390921660048301526024820152908290829081838160448101610244565b505050fd5b600a81018091116107b3574310610764576004870180541561074e5760005282600020549060018060a01b039283885416928954938960028c019560448888541691604051948593849263d296306360e01b8452600484015260248301525afa9081156107435787918b9182916106bc575b506104ae908360405192828480945193849201611cc8565b8101039060025afa156106b157885103610671575082875416976006848254945416910190893b1561066d576040519363604ffaeb60e11b855260048501526024840152606060448401528791815461050681611d5c565b92836064870152608491600181169081600014610642575060011461060d575b50505050818798818981819503925af19081156106025786916105ea575b5050835460ff60a01b1916600160a11b178455827f67f9b6da05d35c16622d2e4741ef3dea2b527d384310142c1695c305906e569e8680a25b806006541690845416813b156105e657859160448392604051948593849263fc66db6960e01b84526001600485015260248401525af19081156105db5785916105c7575b806103b6565b6105d090611aa8565b61041f5783386105c1565b6040513d87823e3d90fd5b8580fd5b6105f390611aa8565b6105fe578438610544565b8480fd5b6040513d88823e3d90fd5b8a52868a208a94505b83851061062f5750505050810160840181888189610526565b8054868601830152938701938201610616565b60ff191660848089019190915294151560051b870190940194508593508b92508391508a9050610526565b8880fd5b60ff60a01b1916600360a01b17865550949550859450827f4f13636edcd4cbb9552e5d208fab3cff0feadf50b18a6e17226fca096cb25ad18680a261057d565b6040513d8a823e3d90fd5b925050503d808b833e6106cf8183611af1565b810190878183031261073f578051906001600160401b03821161073b570181601f8201121561073f5780519061070482611d41565b926107126040519485611af1565b82845289838301011161073b57826107358d936104ae938c808098019101611cc8565b90610496565b8b80fd5b8a80fd5b6040513d8c823e3d90fd5b634e487b7160e01b600052603260045260246000fd5b60405162461bcd60e51b815260048101849052602160248201527f4368616c6c656e67696e672077696e646f7720686173206e6f742070617373656044820152601960fa1b6064820152608490fd5b634e487b7160e01b87526011600452602487fd5b60405162461bcd60e51b815260048101869052601960248201527814dd589b5a5cdcda5bdb88191bd95cc81b9bdd08195e1a5cdd603a1b6044820152606490fd5b60405162461bcd60e51b815260048101849052601a60248201527f5375626d697373696f6e20616c726561647920736574746c65640000000000006044820152606490fd5b634e487b7160e01b86526021600452602486fd5b6084906040519062461bcd60e51b82526004820152602e60248201527f5375626d697373696f6e20616c726561647920736574746c65642c20496e646560448201526d3c1037baba1037b31037b93232b960911b6064820152fd5b50346101885780600319360112610188576002546040516001600160a01b039091168152602090f35b50346101885760203660031901126101885760043560038110156109125760209060030154604051908152f35b5080fd5b50346101885760603660031901126101885736602312156101885760405161093d81611abb565b6064813682116109ce57602093506004905b8282106109bf575050506001600160401b0363ffffffff61098f61097583855116611bb4565b926040610986828888015116611bb4565b95015116611bb4565b916bffffffffffffffff0000000060405194861b16906001600160401b0360601b9060601b161791841c16178152f35b8135815290840190840161094f565b8380fd5b503461018857610100366003190112610188573660231215610a6d576040516109fa81611ad6565b608481368211610a6d576004905b828210610a7257833660a31215610a6d5760405190610a2682611ad6565b8161010491368311610a6d576020936084905b848210610a56575050610a4c9250611efb565b6040519015158152f35b858091610a6284611a0c565b815201910190610a39565b600080fd5b60208091610a7f84611a0c565b815201910190610a08565b5034610188576020366003190112610188576020906040906001600160a01b03610ab261193e565b168152600983522054604051908152f35b50346101885780600319360112610188576020604051600a8152f35b503461018857806003193601126101885760405162461bcd60e51b815260206004820152600f60248201526e139bdd081a5b5c1b195b595b9d1959608a1b6044820152606490fd5b5034610188576060366003190112610188573660641161018857610b5660018060a01b03600254163314611b12565b60043560035560243560045560443560055580f35b503461018857602036600319011261018857610b8561193e565b6002546001600160a01b039190610b9f9083163314611b12565b1660018060a01b0319600154161760015580f35b50346101885780600319360112610188576020600b54604051908152f35b503461018857602036600319011261018857600435906001600160401b03821161018857610100610c2b610c11610c0b3660048701611954565b90611de2565b610c216040939293518094611a20565b6080830190611a20565bf35b5034610188576020908160031936011261018857600435815260078252604081209081549160019160018201549060018060a01b039182600285015416916004600386015495019060405196878a845491828152019383528a8320925b8b828210610ce6578b610ce28c610cd18d8d8d8d610caa868f0387611af1565b604051988998895288015260408701528116606086015260ff608086019160a01c16611a51565b60c060a084015260c0830190611a74565b0390f35b8454865290940193928201928201610c8a565b503461018857610100366003190112610188576044356001600160a01b0381169003610a6d5760403660631901126101885760a4356001600160401b03811161091257610d4a903690600401611954565b60c4356001600160401b0381116109ce57610d69903690600401611954565b9190926001600160401b0360e435116105fe5736602360e4350112156105fe576001600160401b0360e43560040135116105fe5736602460e4356004013560e4350101116105fe57602085610e19604051838101906004358252602435604082015260806060820152610e0881610dfa610de760a083018b8b611ca4565b828103601f190160808401528b8d611ca4565b03601f198101835282611af1565b604051928392839251928391611cc8565b8101039060025afa1561161457845160405160208101917f19457468657265756d205369676e6564204d6573736167653a0a3332000000008352603c820152603c8152610e6581611abb565b51902060ff608435811c601b01116115fe576000608060209260405190815260ff608435811c601b011684820152606435604082015260018060ff1b0360843516606082015282805260015afa156115f2576000516001600160a01b03168086526009602052604086205490949060243590036115b2578554604051631c169c4160e11b8152600480359082015290602090829060249082906001600160a01b03165afa9081156115a7578791611568575b501561152d57600160243501602435116115195784865260096020526001602435016040872055600a549360405193846101008101106001600160401b036101008701111761150357610fa093610f9491610100870160405260043587524360208801528860408801523360608801528960808801523691611ceb565b60a08501523691611ceb565b60c0820152610fb460e43560040135611d41565b610fc16040519182611af1565b60e435600481013580835290602401602083013784602060e435600401358301015260e082015281845260076020526040842081518155602082015160018201556002810160018060a01b0360408401511660018060a01b031982541617905560018060a01b03606083015116600382015490608084015160048110156114ef576001600160a81b03199092161760a091821b60ff60a01b161760038301558201518051906001600160401b03821161145d57600160401b821161145d5760048301548260048501558083106114c4575b5060200160048301875260208720875b8381106114b0575050505060c08201518051906001600160401b03821161145d57600160401b821161145d576005830154826005850155808310611485575b5060200160058301875260208720875b838110611471575050505060e08201518051906001600160401b03821161145d5761111f6006840154611d5c565b601f8111611418575b50602090601f83116001146113ab57600692918891836113a0575b50508160011b916000199060031b1c1916179101555b611164600a54611d96565b600a5560065484906001600160a01b0316803b15610912578180916044604051809481936308fe53e760e21b8352600160048401523360248401525af180156102655761138c575b505060405192602435837fb4369ae4c165e1165289efdf37dcee8df18857e3379869e35d225ed65bb514058780a46044356001600160a01b03166111ee578380f35b63078d89c560e11b83526020600484018190528151602485015281810151604485015260408201516001600160a01b03908116606486015260608301511660848501526080820151909184918391839161124c9060a4840190611a51565b61126760a082015161010060c4850152610124840190611a74565b60e061128560c08401519260231993848783030160e4880152611a74565b92015190838303016101048401526112a881518092818552868086019101611cc8565b601f01601f1916010301816044356001600160a01b03165afa91821561138157839261134d575b5060065483906001600160a01b0316803b156109125760405163991bab5360e01b8152604480356001600160a01b0316600483015260248201869052909183918391829084905af1801561026557611335575b5052600860205260408220553880808380f35b61133e90611aa8565b611349578238611322565b8280fd5b9091506020813d602011611379575b8161136960209383611af1565b81010312611349575190386112cf565b3d915061135c565b6040513d85823e3d90fd5b61139590611aa8565b6109ce5783386111ac565b015190503880611143565b906006840188526020882091885b601f19851681106114005750918391600193600695601f198116106113e7575b505050811b01910155611159565b015160001960f88460031b161c191690553880806113d9565b919260206001819286850151815501940192016113b9565b60068401885260208820601f840160051c810160208510611456575b601f830160051c8201811061144a575050611128565b60008155600101611434565b5080611434565b634e487b7160e01b87526041600452602487fd5b6001906020845194019381840155016110f1565b60058401885260208820908382015b81830181106114a45750506110e1565b60008155600101611494565b6001906020845194019381840155016110a2565b60048401885260208820908382015b81830181106114e3575050611092565b600081556001016114d3565b634e487b7160e01b88526021600452602488fd5b634e487b7160e01b600052604160045260246000fd5b634e487b7160e01b86526011600452602486fd5b60405162461bcd60e51b815260206004820152601360248201527211d85b5948191bd95cc81b9bdd08195e1a5cdd606a1b6044820152606490fd5b90506020813d60201161159f575b8161158360209383611af1565b8101031261159b5751801515810361159b5738610f17565b8680fd5b3d9150611576565b6040513d89823e3d90fd5b60405162461bcd60e51b8152602060048201526018602482015277496e76616c6964207375626d697373696f6e206e6f6e636560401b6044820152606490fd5b6040513d6000823e3d90fd5b634e487b7160e01b600052601160045260246000fd5b6040513d86823e3d90fd5b503461018857602036600319011261018857608061163e600435611c15565b610c2b6040518092611a20565b5034610188578060031936011261018857546040516001600160a01b039091168152602090f35b5034610188576020366003190112610188576004356001600160401b038082168203610a6d576116a3602092611bb4565b60405191168152f35b50346101885760603660031901126101885760403660231901126101885760405160208101907f19457468657265756d205369676e6564204d6573736167653a0a3332000000008252600435603c820152603c815261170a81611abb565b5190206044358060ff1c601b0160ff81116115fe5760209260009260ff6080936040519384521685830152602435604083015260018060ff1b0316606082015282805260015afa156115f2576000516040516001600160a01b039091168152602090f35b50346101885761177d36611984565b95611795600a9b9a9b969296959395548c1115611b68565b8a8a52600760205260408a20976001890154600a81018091116118ab5743101561186657600398909801805460ff60a01b198116600160a01b17909155986117de98908c611f61565b6006546001600160a01b0390811691823b156109ce57906064849283604051958694859363577061c960e11b8552600160048601523360248601521660448401525af1801561026557611857575b509033907feaa488150dd59807afe629755b02de91b8f4fd621b0118f80a3da9a7b8704baf8380a380f35b61186090611aa8565b3861182c565b60405162461bcd60e51b815260206004820152601d60248201527f4368616c6c656e67696e672077696e646f7720686173207061737365640000006044820152606490fd5b634e487b7160e01b8c52601160045260248cfd5b5034610188576020366003190112610188576118d961193e565b600254906001600160a01b03906118f33383851614611b12565b6001600160a01b031990921691161760025580f35b905034610912576020366003190112610912576020916040906001600160a01b0361193161193e565b1681526009845220548152f35b600435906001600160a01b0382168203610a6d57565b9181601f84011215610a6d578235916001600160401b038311610a6d576020808501948460051b010111610a6d57565b60c0600319820112610a6d5760043591602435916001600160401b0390604435828111610a6d57816119b891600401611954565b93909392606435818111610a6d57836119d391600401611954565b93909392608435838111610a6d57826119ee91600401611954565b9390939260a435918211610a6d57611a0891600401611954565b9091565b35906001600160401b0382168203610a6d57565b6000915b60048310611a3157505050565b6001906001600160401b0383511681526020809101920192019190611a24565b906004821015611a5e5752565b634e487b7160e01b600052602160045260246000fd5b90815180825260208080930193019160005b828110611a94575050505090565b835185529381019392810192600101611a86565b6001600160401b03811161150357604052565b606081019081106001600160401b0382111761150357604052565b608081019081106001600160401b0382111761150357604052565b90601f801991011681019081106001600160401b0382111761150357604052565b15611b1957565b60405162461bcd60e51b815260206004820152602160248201527f4f6e6c79206f776e65722063616e2063616c6c20746869732066756e6374696f6044820152603760f91b6064820152608490fd5b15611b6f57565b60405162461bcd60e51b815260206004820152601e60248201527f5375626d697373696f6e20696e646578206f7574206f6620626f756e647300006044820152606490fd5b600091825b600880851015611bfd576001600160fd1b03851685036115fe5767ffffffffffffff0060019260ff6001600160401b0387168860031b1c16921b1617930192611bb9565b5092509050565b90600481101561074e5760051b0190565b9060406080604051611c2681611ad6565b36903760405190611c3682611ad6565b608036833760005b600480821015611c9c578160061b90828204841483151715611c875760c0918203918211611c875750906001600160401b03866001931c16611c808286611c04565b5201611c3e565b601190634e487b7160e01b6000525260246000fd5b509193505050565b81835290916001600160fb1b038311610a6d5760209260051b809284830137010190565b60005b838110611cdb5750506000910152565b8181015183820152602001611ccb565b9092916001600160401b038411611503578360051b6020926020604051611d1482850182611af1565b8097815201918101928311610a6d57905b828210611d325750505050565b81358152908301908301611d25565b6001600160401b03811161150357601f01601f191660200190565b90600182811c92168015611d8c575b6020831014611d7657565b634e487b7160e01b600052602260045260246000fd5b91607f1691611d6b565b60001981146115fe5760010190565b901561074e57803590601e1981360301821215610a6d5701908135916001600160401b038311610a6d576020018260051b36038113610a6d579190565b9160405192611df084611ad6565b60803685378360405191611e0383611ad6565b60803684378294611e148183611da5565b9390931561074e576001600160401b03809435168152611e348284611da5565b6001101561074e57602085910135166020820152611e528284611da5565b6002101561074e57604085910135166040820152611e708284611da5565b6003101561074e578460608092013516910152611e8d8183611da5565b6004101561074e576080013583168452611ea78183611da5565b6005101561074e5760a0013583166020850152611ec48183611da5565b6006939193101561074e578360c0611ee3940135166040860152611da5565b6007929192101561074e5760e0606092013516910152565b9060009060005b60048110611f135750505050600190565b6001600160401b0380611f268387611c04565b511690611f338385611c04565b511603611f4257600101611f02565b5050905090565b805482101561074e5760005260206000200190600090565b989498979691979592939560005260076020526040600020611f838689611de2565b600483949294019060018301908184116115fe57611fb3611fa7611fb99385611f49565b90549060031b1c611c15565b90611efb565b61238a57611fa7611fd0611fa784611fda94611f49565b9260058501611f49565b9154906080604051611feb81611ad6565b3690376001600160401b03815116926001600160401b03602083015116916001600160401b03606081604084015116920151166001600160401b03835116906001600160401b03602085015116926001600160401b0360608160408801511696015116956040519860208a0198895260408a01526060890152608088015260a087015260c086015260e085015261010084015261012090818401528252816101408101106001600160401b036101408401111761150357816101408160009382602096016040526120c28251809285850190611cc8565b810103910160025afa156115f2576120e4906120df600051611c15565b611efb565b156123295760035480612215575b506001546001600160a01b031696873b15610a6d5760405163ae022ccd60e01b815260806004820152988997959461215e94939261214e929161213a9160848c019190611ca4565b9060031998898b84030160248c0152611ca4565b9186888403016044890152611ca4565b92848403016064850152808352602083019060208160051b85010193836000915b8383106121ae5750505050505091818060009403915afa80156115f2576121a35750565b6121ac90611aa8565b565b9193959092949650601f198282030186528635601e1984360301811215610a6d57830190602082359201916001600160401b038111610a6d578060051b36038313610a6d576122036020928392600195611ca4565b9801960193019091889695949261217f565b886001101561074e576020860135036122e457876002101561074e5760045460408601350361229f57876003101561074e5760055460608601350361225a57386120f2565b60405162461bcd60e51b815260206004820152601a60248201527f496e76616c696420696d61676520636f6d6d69746d656e7420320000000000006044820152606490fd5b60405162461bcd60e51b815260206004820152601a60248201527f496e76616c696420696d61676520636f6d6d69746d656e7420310000000000006044820152606490fd5b60405162461bcd60e51b815260206004820152601a60248201527f496e76616c696420696d61676520636f6d6d69746d656e7420300000000000006044820152606490fd5b60405162461bcd60e51b815260206004820152603360248201527f537461727420737461746520646f6573206e6f74206d61746368207375626d696044820152727373696f6e2c206e6f206368616c6c656e676560681b6064820152608490fd5b60405162461bcd60e51b815260206004820152603560248201527f4f75747075742066726f6d2070726f6f6620646f6573206d61746368207375626044820152746d697373696f6e2c206e6f206368616c6c656e676560581b6064820152608490fdfea26469706673582212206967ea06a80b738ef2ed76be19e86174a389409fbc12fee3d7ae7b8e0b68451364736f6c6343000818003360803461007457601f61157b38819003918201601f19168301916001600160401b038311848410176100795780849260209460405283398101031261007457516001600160a01b0381169081900361007457600080546001600160a01b0319169190911790556040516114eb90816100908239f35b600080fd5b634e487b7160e01b600052604160045260246000fdfe6040608081526004908136101561001557600080fd5b600091823560e01c90816301e28005146111d057816306686b4a146111985781630c4d110d1461114f57816313c57ba0146110fd578163238c0cda14610bc857816323f94f9c1461104c5781632ce569f214610e155781632ffac69e1461102f57816338b2471e14610e15578163424aa23014610ff95781634670998814610fea57816346d2d68f14610fc45781634ef1a2c814610fa75781634f1242ac14610bc8578163623d6a5f14610f1e57816373de880614610f0157816374365f7f14610eed578163759ffb7b14610e525781637dae12c214610e1a57816382fbf80d14610e155781638e8e082e14610dea5781639045bf1814610bc8578163991bab5314610d87578163aee0c39214610bcd578163b2c7b1c314610bc8578163b39bcf3f14610b90578163b57fdcb514610855578163c20878a0146107f5578163c3c7e87c146105c4578163cbed6c9f1461038e578163cc65653714610361578163d38589bb1461030f578163d3f33009146102e7578163d42b7395146102cb578163f738978914610293578163fc66db691461020e575063fea245c8146101ba57600080fd5b8160031936011261020a5733825260016020528082206101db3482546112af565b9055513481527fe967d7e6b0193751e3222ac2bc8e7c61bc0c99a7deb97c78b2304799221c0d9960203392a280f35b5080fd5b90503461028f578160031936011261028f5760207fa073359ad4bc40c094d3e6c4a846502f3a281056368c29b8442972c4ad1d6987913561024d611208565b85546001600160a01b03919061026690831633146112d2565b16938486526002835261027c8282882054611361565b858752600284528187205551908152a280f35b8280fd5b50503461020a57602036600319011261020a5760209181906001600160a01b036102bb6111f2565b1681526002845220549051908152f35b50503461020a578160031936011261020a5760209051600a8152f35b50503461020a578160031936011261020a57905490516001600160a01b039091168152602090f35b50508160031936011261020a5733825260036020528082206103323482546112af565b9055513481527f13d94c4c4e9a7306e1d75f4d1b544bbf746ce406d62bed04b4a6e018a79c8a5c60203392a280f35b50503461020a57602036600319011261020a576020906103876103826111f2565b611478565b9051908152f35b90503461028f578160031936011261028f5767ffffffffffffffff9181358381116105c0576103c0903690840161127e565b92906024946024359081116105bc576103dc903690840161127e565b929095875b8681106104525750509161043c61044c927f61477f9d307a0043d5e24cb59df826ea63bc741dafba391b277a9067a1da3cc8969594338a5260205284892061042a878254611361565b90558451958587968752860191611454565b9083820360208501523396611454565b0390a280f35b61045d818886611444565b35606490818101908181116105aa5761044c018091116105985743111561054257610489828987611444565b358a52896005916104ae8b6104a7868b8d6020978989522093611444565b3590611234565b90543360039290921b1c6001600160a01b03160361050e57506104f38a6104a7858a8f8d908f98610508986104e88f9c809c60019e611444565b358352522093611444565b81549060018060a01b039060031b1b19169055565b016103e1565b885162461bcd60e51b81528087018390526012818701527124b73b30b634b21031b430b63632b733b2b960711b6044820152fd5b836b081a5b881d1a19481c185cdd60a21b608492602c8660208c519562461bcd60e51b87528601528401527f496e76616c696420626c6f636b2077696e646f772c206e65656420746f2062656044840152820152fd5b634e487b7160e01b8b5260118552838bfd5b634e487b7160e01b8c5260118652848cfd5b8680fd5b8480fd5b8391503461020a578260031936011261020a576105df6111f2565b91602480359160018060a01b03906105fb8282541633146112d2565b61060b6064946064810690611361565b92606484018085116107e35761044c85018091116107e35743106107a1579495821694815b84835260056020908082528a8520805484101561079d579061065484889493611234565b939054600394851b1c16928387528b83528c87205415610742576106856103e88e868a5283865289205410156113ed565b8680808061012c8180f11561073857868080806102bc8f82f1156107385783875282528b862080546103e71981019190821161072657558286528a82528b86208054600019810191908211610726578b9360019695938f92937ff9dc5cdc953d34f6526769033d6745919ece6254c7c8eb6876116deb45c1039694558b8a5281526107156104f387848c20611234565b858251918c8352820152a301610630565b634e487b7160e01b885260118d528688fd5b8c513d88823e3d90fd5b508b5162461bcd60e51b8152808c018390526030818701527f4368616c6c656e67657220686173206e6f7420636f6d6d697474656420746f2060448201526f616e7920626c6f636b2077696e646f7760801b818b0152608490fd5b8580f35b85601f60649260208b519362461bcd60e51b85528401528201527f4368616c6c656e67652077696e646f7720616c726561647920706173736564006044820152fd5b50634e487b7160e01b82526011865290fd5b50503461020a578060031936011261020a57818080806108136111f2565b6024359060018060a01b0361082c8185541633146112d2565b8391831561084b575b1690f115610841575080f35b51903d90823e3d90fd5b6108fc9250610835565b83833461020a576108653661121e565b606492919294856108768584611361565b06610b3d5743841115610ae55783821115610a6e57858406610a0b5761089b3361136e565b6108a58584611361565b90600a820291808304600a14901517156109f857906108c591101561131e565b8385526005956020966005602052818588205410156109bc57855b848110610947575050849596506108f9600a9584611361565b049033875260205261090f8387209182546112af565b9055815193845260208401528201527fa8e733e57775d1eca32d84027a85d4c42f4c9387c801a80ce07c1a503b13804460603392a280f35b868852818952858820805490600160401b8210156109a9579061096f91600182018155611234565b81546001600160a01b0360039290921b91821b19163390911b179055808301908110156108e057634e487b7160e01b885260118452602488fd5b634e487b7160e01b8a526041865260248afd5b5090602084519162461bcd60e51b8352820152601760248201527610da185b1b195b99d95c881c1bdbdb081a5cc8199d5b1b604a1b6044820152fd5b634e487b7160e01b875260118352602487fd5b608490776d756c7469706c65206f6620626c6f636b2077696e646f7760401b87602086519362461bcd60e51b8552840152603860248401527f496e76616c696420737461727420626c6f636b2c206e65656420746f206265206044840152820152fd5b60a4907f626c6f636b206d7573742062652067726561746572207468616e20737461727487602086519362461bcd60e51b8552840152604660248401527f496e76616c696420626c6f636b2077696e646f772072616e67652c20656e642060448401528201526520626c6f636b60d01b6084820152fd5b6084906c696e207468652066757475726560981b87602086519362461bcd60e51b8552840152602d60248401527f496e76616c696420737461727420626c6f636b2c206e65656420746f206265206044840152820152fd5b608490676d756c7469706c6560c01b87602086519362461bcd60e51b8552840152602860248401527f496e76616c696420626c6f636b2077696e646f772072616e67652c206e6f74206044840152820152fd5b50503461020a57602036600319011261020a5760209181906001600160a01b03610bb86111f2565b1681526001845220549051908152f35b611262565b83833461020a57606036600319011261020a578235610bea611208565b6044356001600160a01b038181169491859003610d8357610c0f8187541633146112d2565b606484029084820460641485151715610d705785875260209160018352610c3b848920548211156113ed565b61c35086028181046101f41482151715610d5d578899506103e89004978895818088159b8c610d53575b82809291818093f115610d4757831698868a8392610d3d575b8392839283928392f115610d325792610cdb8593879593610ccf7f2e4b40321e205f512441db155b5080356c197414d55b00fbf7ef0529200c8fc19a98868d60609c98526001875220918254611361565b90558b541633146112d2565b878a5260028152610cef85848c2054611361565b888b5260028252838b2055877fa073359ad4bc40c094d3e6c4a846502f3a281056368c29b8442972c4ad1d6987828551888152a28251948552840152820152a380f35b8451903d90823e3d90fd5b6108fc9250610c7e565b508451903d90823e3d90fd5b6108fc9150610c65565b634e487b7160e01b895260118a52602489fd5b634e487b7160e01b875260118852602487fd5b8580fd5b50508060031936011261020a57610de5610d9f6111f2565b835460243593916001600160a01b0391610dbc90831633146112d2565b168085526006602052610dd48483872054101561131e565b845260066020528320918254611361565b905580f35b8334610e125780600319360112610e1257610e0f60018060a01b0382541633146112d2565b80f35b80fd5b6111d0565b50503461020a57602036600319011261020a5760209181906001600160a01b03610e426111f2565b1681526006845220549051908152f35b90503461028f57602036600319011261028f573590610e7b82610e743361136e565b101561131e565b3383526003602052808320610e91838254611361565b90558280838015610ee3575b8280929181923390f115610ed857519081527fedbaf812a554c50088c17404a924a56317bdeeab92b2a4d7bc32493721f6a90460203392a280f35b51913d9150823e3d90fd5b6108fc9150610e9d565b8334610e125780600319360112610e125780f35b50503461020a578160031936011261020a57602090516103e88152f35b90503461028f57602036600319011261028f573590610f4082610e7433611478565b3383526001602052808320610f56838254611361565b90558280838015610f9d575b8280929181923390f115610ed857519081527f7ece0b5879e2c02894ab69f96547e98f6b2726dd6be98c7fd338ec72c85cf03460203392a280f35b6108fc9150610f62565b50503461020a578160031936011261020a576020905161012c8152f35b50503461020a57602036600319011261020a57602090610387610fe56111f2565b61136e565b8380600319360112610e125780f35b90503461028f57602036600319011261028f5760209282916001600160a01b036110216111f2565b168252845220549051908152f35b50503461020a578160031936011261020a57602090516102bc8152f35b90503461028f578160031936011261028f57803590611069611208565b84546001600160a01b03929061108290841633146112d2565b6064840290848204606414851517156110ea575091816110c9602094610e747f208d2f04c8fbda7bae9dd6d8f88ff4fc0e5db7dc80f79de7adfd310210239de49795611478565b1693848652600283528086206110e08382546112af565b905551908152a280f35b634e487b7160e01b875260119052602486fd5b50508160031936011261020a5733825260066020528082206111203482546112af565b9055513481527f465f2f25d935a282b8cd15491a42bf6504e87fff5999088738acc28568fd414760203392a280f35b50503461020a5761115f3661121e565b929081526005602052818120908154841015610e12575060209261118291611234565b905491519160018060a01b039160031b1c168152f35b50503461020a57602036600319011261020a5760209181906001600160a01b036111c06111f2565b1681526003845220549051908152f35b346111ed5760003660031901126111ed5760206040516101f48152f35b600080fd5b600435906001600160a01b03821682036111ed57565b602435906001600160a01b03821682036111ed57565b60409060031901126111ed576004359060243590565b805482101561124c5760005260206000200190600090565b634e487b7160e01b600052603260045260246000fd5b346111ed5760003660031901126111ed57602060405160648152f35b9181601f840112156111ed5782359167ffffffffffffffff83116111ed576020808501948460051b0101116111ed57565b919082018092116112bc57565b634e487b7160e01b600052601160045260246000fd5b156112d957565b60405162461bcd60e51b815260206004820152601f60248201527f43616c6c6572206973206e6f74207468652067616d6520636f6e7472616374006044820152606490fd5b1561132557565b60405162461bcd60e51b8152602060048201526014602482015273496e73756666696369656e742062616c616e636560601b6044820152606490fd5b919082039182116112bc57565b9060009160018060a01b031682526003602052604082205460046020526040832054906064820291808304606414811517156113d9576103e80291808304600a14901517156113c5576113c2929350611361565b90565b634e487b7160e01b84526011600452602484fd5b634e487b7160e01b85526011600452602485fd5b156113f457565b60405162461bcd60e51b815260206004820152602260248201527f496e73756666696369656e742062616c616e636520746f20626520736c617368604482015261195960f21b6064820152608490fd5b919081101561124c5760051b0190565b81835290916001600160fb1b0383116111ed5760209260051b809284830137010190565b60018060a01b0316600052600160205260406000205460026020526040600020546064810290808204606414901517156112bc576113c29161136156fea2646970667358221220565b2e099fc2d8eb7a6cbc0f4d27a909f78f19a5de98575662a879d7cabd633564736f6c6343000818003360803461007857601f61113e38819003918201601f19168301916001600160401b0383118484101761007d5780849260209460405283398101031261007857516001600160a01b038116908190036100785760018055600080546001600160a01b0319169190911790556040516110aa90816100948239f35b600080fd5b634e487b7160e01b600052604160045260246000fdfe6080604052600436101561001257600080fd5b6000803560e01c8063117a5b9014610905578063382d3882146108d957806349c42467146102fb578063b135bbb0146102dd578063c09ff5d6146101a0578063d2963063146100935763d3f330091461006a57600080fd5b34610090578060031936011261009057546040516001600160a01b039091168152602090f35b80fd5b5034610090576040366003190112610090576100ad610b3b565b6004358252602090600282528260018060a01b03602481600160408520015416936040519485938492634fe8446f60e01b84521660048301525afa928315610194578093610110575b505061010c604051928284938452830190610ae4565b0390f35b909192503d8082843e61012381846109e5565b820191838184031261018c578051906001600160401b038211610190570182601f8201121561018c5780519161015883610b51565b9361016660405195866109e5565b83855285848401011161009057509061018491848085019101610ac1565b9038806100f6565b5080fd5b8280fd5b604051903d90823e3d90fd5b5034610090576060366003190112610090576101ba610b3b565b6001600160401b036044358181116102d9576101da903690600401610b09565b84546001600160a01b03949085163303610282578592600435845260026020528560016040862001541691823b1561027e5761023793859160405198899687958694631535530f60e01b8652604060048701526044860191610ba3565b9116602483015203925af1801561027357610250578280f35b811161025f5760405238808280f35b634e487b7160e01b82526041600452602482fd5b6040513d85823e3d90fd5b8480fd5b60405162461bcd60e51b815260206004820152602960248201527f4f6e6c792067616d6520636f6e74726163742063616e2063616c6c207468697360448201526810333ab731ba34b7b760b91b6064820152608490fd5b8380fd5b50346100905780600319360112610090576020600154604051908152f35b5034610090576060366003190112610090576004356001600160401b03811161018c5761032c903690600401610b09565b6024356001600160401b0381116102d95761034b903690600401610b09565b906044356001600160401b0381116108d55761036b903690600401610b09565b90916040516104b0808201908282106001600160401b038311176108b6576020918391610bc5833930815203019088f09384156108ca576001546040518060c08101106001600160401b0360c0830111176108b65760c08101604052818152602081019160018060a01b0388168352604082013381526103ec368b8d610b6c565b91606084019283526103ff368789610b6c565b608085015261040f36898b610b6c565b60a08501528c526002602081905260408d208451815594516001860180546001600160a01b03199081166001600160a01b0393841617909155925191860180549093169116179055518051906001600160401b0382116107d657819061047860038601546109ab565b601f8111610864575b50602090601f83116001146107f5578d926107ea575b50508160011b916000199060031b1c19161760038301555b60808101519081516001600160401b0381116107d6576104d260048501546109ab565b601f811161078f575b506020928c601f831160011461071c5760a094909183610711575b50508160011b916000199060031b1c19161760048401555b01518051906001600160401b0382116106fd5761052e60058401546109ab565b601f81116106b8575b506020908b601f841160011461061857936005846105d7956105e599956105c99f9e9c99957fd3f3f113e99179c4f45fc8c5d7091a8b5fb5556ed07e731c8784e0b3948b1b479e9c999261060d575b50508160011b916000199060031b1c1916179101555b6001549a8b9a604051998a9960018060a01b03168a523360208b015260a060408b015260a08a0191610ba3565b918783036060890152610ba3565b918483036080860152610ba3565b0390a2600181018091116105f95760015580f35b634e487b7160e01b82526011600452602482fd5b015190503880610586565b5090600584018c5260208c20918c5b601f19851681106106a057509360056001856105e599956105c99f9e9c99957fd3f3f113e99179c4f45fc8c5d7091a8b5fb5556ed07e731c8784e0b3948b1b479e9c996105d799601f19811610610687575b505050811b0191015561059c565b015160001960f88460031b161c19169055388080610679565b91926020600181928685015181550194019201610627565b600584018c5260208c20601f840160051c8101602085106106f6575b8d601f840160051c830182106106ec57505050610537565b81556001016106d4565b50806106d4565b634e487b7160e01b8b52604160045260248bfd5b0151905038806104f6565b50909192600485018d5260208d20918d5b601f1985168110610777575091839160019360a09695601f1981161061075e575b505050811b01600484015561050e565b015160001960f88460031b161c1916905538808061074e565b9192602060018192868501518155019401920161072d565b600485018d5260208d20601f830160051c8101602084106107cf575b8e5b601f840160051c830182106107c4575050506104db565b81556001018e6107ad565b50806107ab565b634e487b7160e01b8c52604160045260248cfd5b015190503880610497565b9250600385018d5260208d20908d935b601f1984168510610849576001945083601f19811610610830575b505050811b0160038301556104af565b015160001960f88460031b161c19169055388080610820565b81810151835560209485019460019093019290910190610805565b909150600385018d5260208d20601f840160051c8101602085106108af575b84939291908f5b601f840160051c830182106108a157505050610481565b81558594506001018f61088a565b5080610883565b634e487b7160e01b8a52604160045260248afd5b6040513d89823e3d90fd5b8580fd5b503461009057602036600319011261009057604060209160043581526002835220541515604051908152f35b5034610090576020366003190112610090576040906004358152600260205220805461010c60018060a01b039261099d84600183015416946002830154169161098f61095360038301610a1c565b61096b600561096460048601610a1c565b9401610a1c565b9460405198899889526020890152604088015260c0606088015260c0870190610ae4565b908582036080870152610ae4565b9083820360a0850152610ae4565b90600182811c921680156109db575b60208310146109c557565b634e487b7160e01b600052602260045260246000fd5b91607f16916109ba565b90601f801991011681019081106001600160401b03821117610a0657604052565b634e487b7160e01b600052604160045260246000fd5b90604051918260008254610a2f816109ab565b90818452602094600191600181169081600014610a9f5750600114610a60575b505050610a5e925003836109e5565b565b600090815285812095935091905b818310610a87575050610a5e9350820101388080610a4f565b85548884018501529485019487945091830191610a6e565b92505050610a5e94925060ff191682840152151560051b820101388080610a4f565b60005b838110610ad45750506000910152565b8181015183820152602001610ac4565b90602091610afd81518092818552858086019101610ac1565b601f01601f1916010190565b9181601f84011215610b36578235916001600160401b038311610b365760208381860195010111610b3657565b600080fd5b602435906001600160a01b0382168203610b3657565b6001600160401b038111610a0657601f01601f191660200190565b929192610b7882610b51565b91610b8660405193846109e5565b829481845281830111610b36578281602093846000960137010152565b908060209392818452848401376000828201840152601f01601f191601019056fe60803461007457601f6104b038819003918201601f19168301916001600160401b038311848410176100795780849260209460405283398101031261007457516001600160a01b0381169081900361007457600080546001600160a01b03191691909117905560405161042090816100908239f35b600080fd5b634e487b7160e01b600052604160045260246000fdfe604060808152600436101561001357600080fd5b600090813560e01c806302a22337146102595780631535530f1461008c57634fe8446f1461004057600080fd5b3461008857602036600319011261008857610084916100799082906001600160a01b0361006b610281565b1681526001602052206102d6565b9051918291826103a1565b0390f35b5080fd5b50346100885780600319360112610088576004359067ffffffffffffffff8083116102555736602384011215610255578260040135908111610255576024368183860101116102515780356001600160a01b038181169182900361024d57865416330361020057855260019260209084825286209461010b865461029c565b601f81116101ba575b508691601f851160011461015257509183949184938895610145575b5050501b916000199060031b1c191617905580f35b0101359250388080610130565b92909184601f198116888a52858a20958a905b8983831061019e5750505010610182575b50505050811b01905580f35b60001960f88660031b161c199201013516905538808080610176565b8786018701358955909701969384019388935090810190610165565b868852828820601f860160051c8101918487106101f6575b601f0160051c019086905b8281106101eb575050610114565b8981550186906101dd565b90915081906101d2565b835162461bcd60e51b8152602060048201526021818401527f4f6e6c79206f776e65722063616e2063616c6c20746869732066756e6374696f6044820152603760f91b6064820152608490fd5b8680fd5b8480fd5b8380fd5b503461008857602036600319011261008857610084916100799082906001600160a01b0361006b5b600435906001600160a01b038216820361029757565b600080fd5b90600182811c921680156102cc575b60208310146102b657565b634e487b7160e01b600052602260045260246000fd5b91607f16916102ab565b906040519160009080546102e98161029c565b908186526020926001916001811690816000146103835750600114610347575b50505050829003601f01601f1916820167ffffffffffffffff81118382101761033157604052565b634e487b7160e01b600052604160045260246000fd5b909293506000528260002091836000935b83851061036f575050505083010138808080610309565b805488860183015293019284908201610358565b60ff191688860152505050151560051b840101905038808080610309565b6020808252825181830181905290939260005b8281106103d657505060409293506000838284010152601f8019910116010190565b8181018601518482016040015285016103b456fea2646970667358221220a1911dd4bcab15278556c1946972989ee04fd46405aead5618e9779f08e86e6d64736f6c63430008180033a2646970667358221220e22600abbf25ab2af70577640485e06328dbfc7b6f7b97b4c11776fb49010abe64736f6c63430008180033",
  "linkReferences": {},
  "deployedLinkReferences": {}
}