{
  "_format": "hh-sol-artifact-1",
  "contractName": "ProofTracker",
  "sourceName": "contracts/shared/zkwasm_verifier/BatchVerifier.sol",
  "abi": [
    {
      "inputs": [],
      "stateMutability": "nonpayable",
      "type": "constructor"
    },
    {
      "anonymous": false,
      "inputs": [
        {
          "indexed": false,
          "internalType": "uint256",
          "name": "hash",
          "type": "uint256"
        }
      ],
      "name": "ProofAck",
      "type": "event"
    },
    {
      "inputs": [
        {
          "internalType": "uint256[]",
          "name": "membership_proof_index",
          "type": "uint256[]"
        },
        {
          "internalType": "uint256[]",
          "name": "verify_instance",
          "type": "uint256[]"
        },
        {
          "internalType": "uint256[][]",
          "name": "sibling_instances",
          "type": "uint256[][]"
        },
        {
          "internalType": "uint256[][]",
          "name": "target_instances",
          "type": "uint256[][]"
        }
      ],
      "name": "check_verified_proof",
      "outputs": [],
      "stateMutability": "view",
      "type": "function"
    },
    {
      "inputs": [
        {
          "internalType": "uint256[]",
          "name": "proof",
          "type": "uint256[]"
        },
        {
          "internalType": "uint256[]",
          "name": "verify_instance",
          "type": "uint256[]"
        },
        {
          "internalType": "uint256[]",
          "name": "aux",
          "type": "uint256[]"
        },
        {
          "internalType": "uint256[][]",
          "name": "instances",
          "type": "uint256[][]"
        }
      ],
      "name": "register_proofs",
      "outputs": [],
      "stateMutability": "nonpayable",
      "type": "function"
    },
    {
      "inputs": [
        {
          "internalType": "address",
          "name": "vaddr",
          "type": "address"
        }
      ],
      "name": "set_verifier",
      "outputs": [],
      "stateMutability": "nonpayable",
      "type": "function"
    },
    {
      "inputs": [
        {
          "internalType": "address",
          "name": "newOwner",
          "type": "address"
        }
      ],
      "name": "transferOwnership",
      "outputs": [],
      "stateMutability": "nonpayable",
      "type": "function"
    }
  ],
  "bytecode": "0x6080806040523461002857600280546001600160a01b03191633179055610917908161002e8239f35b600080fdfe60406080604052600436101561001457600080fd5b6000803560e01c9182638f636faf1461005d57505080639a82dacc14610058578063e37c66d1146100535763f2fde38b1461004e57600080fd5b610432565b6103f4565b610251565b8190346101995761006d366101d1565b9691946100936100878b9896939b5460018060a01b031690565b6001600160a01b031690565b94853b156101955760809687956100bb948b948e9463ae022ccd60e01b8a52607f199861053a565b01915afa801561019057610181575b83905b8082106100d8578480f35b845b6100e5838387610628565b9050811015610176578061012a61011d61010c60019461010688888c610628565b90610671565b356000526001602052604060002090565b805460ff19166001179055565b7f4a79fd41fe5c867d15b85d1569074c79cff704fd3e07086cf293fd56011f528561016d61015d8361010688888c610628565b8751903581529081906020820190565b0390a1016100da565b5090600101906100cd565b61018b6080604052565b6100ca565b610606565b8780fd5b50fd5b9181601f840112156101cc578235916001600160401b0383116101cc576020808501948460051b0101116101cc57565b600080fd5b60806003198201126101cc576001600160401b03906004358281116101cc57816101fd9160040161019c565b939093926024358181116101cc57836102189160040161019c565b939093926044358381116101cc57826102339160040161019c565b939093926064359182116101cc5761024d9160040161019c565b9091565b346101cc5761025f366101d1565b929361026f979695919297610681565b9260009485905b80821061036a5750505060005b818110610337575050509061029791610827565b936000935b8185106102d0576102ce60016102c66102bf896000526001602052604060002090565b5460ff1690565b1515146107a1565b005b9091929394610300906102f96102e7888688610628565b6102f28a8a88610671565b3591610671565b35146106ec565b600161032c610310878587610628565b9050610327610320898789610628565b369161074b565b610827565b95019392919061029c565b8061034a60019284869c999a9b9c610671565b3561035e610357886106c4565b97876106d8565b52019796959497610283565b9497929990959691989360005b61038288888d610628565b90508110156103b9578061039e6001926101068b8f8c90610628565b356103b26103ab8c6106c4565b9b8d6106d8565b5201610377565b5093999298919794909695600101909998979699610276565b60209060031901126101cc576004356001600160a01b03811681036101cc5790565b346101cc57610402366103d2565b6002546001600160a01b03919061041c90831633146107a8565b1660018060a01b03196000541617600055600080f35b346101cc57610440366103d2565b600254906001600160a01b039061045a33838516146107a8565b16908115610472576001600160a01b03191617600255005b60405162461bcd60e51b815260206004820152601c60248201527f4f776e65722063616e6e6f74206265207a65726f2061646472657373000000006044820152606490fd5b634e487b7160e01b600052604160045260246000fd5b90601f801991011681019081106001600160401b038211176104ee57604052565b6104b7565b610104829052906001600160fb1b0381116101cc5760051b806101249283370190565b81835290916001600160fb1b0383116101cc5760209260051b809284830137010190565b926105556105659261057196959997949960806084526104f3565b906083199889830160a452610516565b9186830160c452610516565b92830160e452808352602080840193600560208460051b83010195856000935b8685106105a357505050505050505090565b9091929394959697601f198282030184528835601e19843603018112156101cc5783018781019190356001600160401b0381116101cc5780871b360383136101cc576105f489928392600195610516565b9a019401950193929695949190610591565b6040513d6000823e3d90fd5b634e487b7160e01b600052603260045260246000fd5b919081101561066c5760051b81013590601e19813603018212156101cc5701908135916001600160401b0383116101cc576020018260051b360381136101cc579190565b610612565b919081101561066c5760051b0190565b604051906104a082018281106001600160401b038211176104ee5760405260248252610480366020840137565b634e487b7160e01b600052601160045260246000fd5b60001981146106d35760010190565b6106ae565b805182101561066c5760209160051b010190565b156106f357565b60405162461bcd60e51b815260206004820152602a60248201527f6d656d626572736869702070726f6f66206f66207369626c696e6720696e7374604482015269185b98d95cc819985a5b60b21b6064820152608490fd5b9092916001600160401b0384116104ee578360051b6020926020604051610774828501826104cd565b80978152019181019283116101cc57905b8282106107925750505050565b81358152908301908301610785565b156101cc57565b156107af57565b60405162461bcd60e51b815260206004820152602160248201527f4f6e6c79206f776e65722063616e2063616c6c20746869732066756e6374696f6044820152603760f91b6064820152608490fd5b6001600160401b0381116104ee57601f01601f191660200190565b60200190816020116106d357565b90600581811b916001600160fb1b03811681036106d35761086061084a846107fe565b9361085860405195866104cd565b8085526107fe565b936020926020850195601f190136873760005b8381106108b0575050505050906108ad915190207f30644e72e131a029b85045b68181585d2833e84879b9709143e1f593f0000001900690565b90565b80821b908082048614811517156106d3576108cc600192610819565b6108d682866106d8565b51908801520161087356fea264697066735822122075bcaa689ad519ab60d93c2965cd08da6424fd8284448b5da958ff8638a6998064736f6c63430008180033",
  "linkReferences": {},
  "deployedLinkReferences": {}
}