{
  "_format": "hh-sol-artifact-1",
  "contractName": "GameStateStorage",
  "sourceName": "contracts/shared/GameStateStorage.sol",
  "abi": [
    {
      "inputs": [],
      "stateMutability": "nonpayable",
      "type": "constructor"
    },
    {
      "inputs": [
        {
          "internalType": "address",
          "name": "player",
          "type": "address"
        }
      ],
      "name": "getStates",
      "outputs": [
        {
          "internalType": "bytes",
          "name": "",
          "type": "bytes"
        }
      ],
      "stateMutability": "view",
      "type": "function"
    },
    {
      "inputs": [
        {
          "internalType": "address",
          "name": "",
          "type": "address"
        }
      ],
      "name": "states",
      "outputs": [
        {
          "internalType": "bytes",
          "name": "",
          "type": "bytes"
        }
      ],
      "stateMutability": "view",
      "type": "function"
    },
    {
      "inputs": [
        {
          "internalType": "bytes",
          "name": "state",
          "type": "bytes"
        },
        {
          "internalType": "address",
          "name": "player",
          "type": "address"
        }
      ],
      "name": "updateStates",
      "outputs": [],
      "stateMutability": "nonpayable",
      "type": "function"
    }
  ],
  "bytecode": "0x6080806040523461002857600080546001600160a01b03191633179055610422908161002e8239f35b600080fdfe604060808152600436101561001357600080fd5b600090813560e01c806302a223371461025b5780631535530f1461008c57634fe8446f1461004057600080fd5b3461008857602036600319011261008857610084916100799082906001600160a01b0361006b610283565b1681526001602052206102d8565b9051918291826103a3565b0390f35b5080fd5b50346100885780600319360112610088576004359067ffffffffffffffff8083116102575736602384011215610257578260040135908111610257576024368183860101116102535780356001600160a01b038181169182900361024f57865416330361020057855260019260209084825286209461010b865461029e565b601f81116101ba575b508691601f851160011461015257509183949184938895610145575b5050501b916000199060031b1c191617905580f35b0101359250388080610130565b92909184601f198116888a52858a20958a905b8983831061019e5750505010610182575b50505050811b01905580f35b60001960f88660031b161c199201013516905538808080610176565b8786018701358955909701969384019388935090810190610165565b868852828820601f860160051c8101918487106101f6575b601f0160051c019086905b8281106101eb575050610114565b8981550186906101dd565b90915081906101d2565b835162461bcd60e51b8152602060048201526023818401527f4f6e6c792063726561746f722063616e2063616c6c20746869732066756e637460448201526234b7b760e91b6064820152608490fd5b8680fd5b8480fd5b8380fd5b503461008857602036600319011261008857610084916100799082906001600160a01b0361006b5b600435906001600160a01b038216820361029957565b600080fd5b90600182811c921680156102ce575b60208310146102b857565b634e487b7160e01b600052602260045260246000fd5b91607f16916102ad565b906040519160009080546102eb8161029e565b908186526020926001916001811690816000146103855750600114610349575b50505050829003601f01601f1916820167ffffffffffffffff81118382101761033357604052565b634e487b7160e01b600052604160045260246000fd5b909293506000528260002091836000935b83851061037157505050508301013880808061030b565b80548886018301529301928490820161035a565b60ff191688860152505050151560051b84010190503880808061030b565b6020808252825181830181905290939260005b8281106103d857505060409293506000838284010152601f8019910116010190565b8181018601518482016040015285016103b656fea26469706673582212206f8cc2f94c5c5799d70b35845c8e40eaaa76274dfb2a5d8acf6c0549e80b8c3464736f6c63430008180033",
  "linkReferences": {},
  "deployedLinkReferences": {}
}