{
  "_format": "hh-sol-artifact-1",
  "contractName": "AggregatorVerifierCoreStep3",
  "sourceName": "contracts/shared/zkwasm_verifier/AggregatorVerifierStep3.sol",
  "abi": [
    {
      "inputs": [
        {
          "internalType": "uint256[]",
          "name": "transcript",
          "type": "uint256[]"
        },
        {
          "internalType": "uint256[]",
          "name": "aux",
          "type": "uint256[]"
        },
        {
          "internalType": "uint256[]",
          "name": "buf",
          "type": "uint256[]"
        }
      ],
      "name": "verify_proof",
      "outputs": [
        {
          "internalType": "uint256[]",
          "name": "",
          "type": "uint256[]"
        }
      ],
      "stateMutability": "view",
      "type": "function"
    }
  ],
  "bytecode": "0x6080806040523461001657610ec8908161001c8239f35b600080fdfe6080604052600436101561001257600080fd5b6000803560e01c63966751901461002857600080fd5b346100f85760603660031901126100f85767ffffffffffffffff906004358281116100fb5761005b9036906004016100ff565b916024358481116100fb576100749036906004016100ff565b50506044359384116100f857366023850112156100f8578360040135906100a261009d83610176565b61014b565b918295818452602460208095019260051b820101923684116100f85750602401905b8282106100e9576100e56100d9888888610553565b6040519182918261018e565b0390f35b813581529083019083016100c4565b80fd5b5080fd5b9181601f840112156101305782359167ffffffffffffffff8311610130576020808501948460051b01011161013057565b600080fd5b634e487b7160e01b600052604160045260246000fd5b6040519190601f01601f1916820167ffffffffffffffff81118382101761017157604052565b610135565b67ffffffffffffffff81116101715760051b60200190565b602090602060408183019282815285518094520193019160005b8281106101b6575050505090565b8351855293810193928101926001016101a8565b634e487b7160e01b600052603260045260246000fd5b90602810156101f0576105000190565b6101ca565b90602910156101f0576105200190565b90602610156101f0576104c00190565b90602710156101f0576104e00190565b90601010156101f0576102000190565b90601110156101f0576102200190565b90601210156101f0576102400190565b90601310156101f0576102600190565b90602010156101f0576104000190565b90602110156101f0576104200190565b90601410156101f0576102800190565b90601510156101f0576102a00190565b90601610156101f0576102c00190565b90601710156101f0576102e00190565b90602210156101f0576104400190565b90602310156101f0576104600190565b90601810156101f0576103000190565b90601910156101f0576103200190565b90601a10156101f0576103400190565b90601b10156101f0576103600190565b90601c10156101f0576103800190565b90601d10156101f0576103a00190565b90601e10156101f0576103c00190565b90601f10156101f0576103e00190565b90602410156101f0576104800190565b90602510156101f0576104a00190565b8051600f10156101f0576102000190565b8051600e10156101f0576101e00190565b8051601110156101f0576102400190565b8051602310156101f0576104800190565b8051601010156101f0576102200190565b8051156101f05760200190565b8051600110156101f05760400190565b8051601510156101f0576102c00190565b8051601e10156101f0576103e00190565b8051600710156101f0576101000190565b8051601310156101f0576102800190565b8051600810156101f0576101200190565b8051601c10156101f0576103a00190565b8051601410156101f0576102a00190565b8051601710156101f0576103000190565b8051601910156101f0576103400190565b8051601a10156101f0576103600190565b8051601810156101f0576103200190565b8051601f10156101f0576104000190565b8051600a10156101f0576101600190565b8051600b10156101f0576101800190565b8051600c10156101f0576101a00190565b8051600210156101f05760600190565b8051600d10156101f0576101c00190565b8051600310156101f05760800190565b6040519060a0820182811067ffffffffffffffff82111761017157604052600482526080366020840137565b90610ddd9061056281846101e0565b3561056d82856101f5565b3561057786610385565b5261058185610396565b5261058b846103a7565b517f30644e72e131a029b85045b68181585d2833e84879b9709143e1f593f000000180916105b8876103b8565b5190096105c4866103c9565b526105ce85610e6a565b6105d88285610205565b356105e38386610215565b356105ed87610385565b526105f786610396565b52610601856103a7565b5161060b866103c9565b5261061585610e6a565b61061e856103da565b51610628866103e7565b5161063287610385565b5261063c86610396565b5280610647866103f7565b518161065288610408565b5161065c89610419565b519009900961066a866103c9565b5261067485610e6a565b808061067f8761042a565b516106898861043b565b5190096106958761044c565b5190096106a1866103a7565b526106ac8285610225565b356106b78386610235565b356106c187610385565b526106cb86610396565b52806106d6866103a7565b516106e087610419565b5190096106ec866103c9565b526106f685610e6a565b806107008661045d565b5161070a8761046e565b5190096107168661045d565b526107218285610245565b3561072c8386610255565b3561073687610385565b5261074086610396565b528061074b866103f7565b51816107568861045d565b5161076089610419565b519009900961076e866103c9565b5261077885610e6a565b6107828285610265565b3561078d8386610275565b3561079787610385565b526107a186610396565b52806107ac8661047f565b516107b687610419565b5190096107c2866103c9565b526107cc85610e6a565b6107d68285610285565b356107e18386610295565b356107eb87610385565b526107f586610396565b526107ff856103a7565b51610809866103c9565b5261081385610e6a565b61081d82856102a5565b3561082883866102b5565b3561083287610385565b5261083c86610396565b5280610847866103f7565b516108518761045d565b51900961085d866103c9565b5261086785610e6a565b61087182856102c5565b3561087c83866102d5565b3561088687610385565b5261089086610396565b5261089a8561047f565b516108a4866103c9565b526108ae85610e6a565b7f11d74222870a6b37ab89f642ccc640c3760e1e933bb62332391f6d1148c9e6a36108d886610385565b527f1d631f7b244614d67b32c6464d2368c65c3dba0a94d74d1bf13c456f2833bab061090386610396565b528061090e866103f7565b5161091887610490565b519009610924866103c9565b5261092e85610e6a565b80610938866104a1565b516109428761046e565b51900961094e866103a7565b527f17586c0b7985183306c0d7c7e98944dd9affc1f26a85a04f8337805c88b3442461097986610385565b527f25808dab94a28f0771e2dd5248b6eece381bbe7f37a1e71e0de207525e6444906109a486610396565b52806109af866103f7565b51816109ba886103a7565b516109c489610419565b51900990096109d2866103c9565b526109dc85610e6a565b7f14ab969908b15a1a89c45f1f23b91a4d4deaaa337445693109d09ec178fec127610a0686610385565b527f02da1336b0b88b767f227f25f37e69ec588bfb165be8b46ac63cadaa2522ce22610a3186610396565b5280610a3c866103f7565b51610a46876103a7565b519009610a52866103c9565b52610a5c85610e6a565b7f0b2908463349c74657baf47a702728b931315de8f2dbd28b00453a5ef9cd11ea610a8686610385565b527f1ccd36f22bd97d4e7e365746f91826de379e87170872e3015b641ab036e8c3db610ab186610396565b5280610abc866103f7565b5181610ac7886104a1565b51610ad189610419565b5190099009610adf866103c9565b52610ae985610e6a565b7f1f74990924b045475b60bd7c7cc72575ca383fd70f60d1416d872a02be6aab13610b1386610385565b527f094a6f8881e11179a421d7f4cf5fd5253990ec5f6ac177b873a6e22d31d944e0610b3e86610396565b5280610b49866103f7565b51610b53876104a1565b519009610b5f866103c9565b52610b6985610e6a565b7f1e3fc62ac1d5a2c703f9b3328753daa5e5d88ccb119502fc4e2fd6ff7472d198610b9386610385565b527f14687e8a225a314524aa6ec57639b7524af3e70f01aa953a77f99f92f83eae41610bbe86610396565b5280610bc9866103f7565b51610bd3876104b2565b519009610bdf866103c9565b52610be985610e6a565b7f097576ae8a2d2d8a389e3cc91060588dd9c292667884f09dee70a6dd5d27b6a9610c1386610385565b527f078a819e77e522fede453ea079418e0133971b218ac62dae7bad032697e07c83610c3e86610396565b5280610c49866103f7565b51610c538761046e565b519009610c5f866103c9565b52610c6985610e6a565b80610c738661042a565b51610c7d8761042a565b519009610c89866103a7565b52610c9482856102e5565b35610c9f83866102f5565b35610ca987610385565b52610cb386610396565b5280610cbe866103a7565b51610cc88761046e565b519009610cd4866103c9565b52610cde85610e6a565b610ce88285610305565b35610cf38386610315565b35610cfd87610385565b52610d0786610396565b5280610d12866103a7565b51610d1c87610419565b519009610d28866103c9565b52610d3285610e6a565b610d3c8285610325565b35610d478386610335565b35610d5187610385565b52610d5b86610396565b52610d65856103a7565b51610d6f866103c9565b52610d7985610e6a565b610d838285610345565b35610d8e8386610355565b35610d9887610385565b52610da286610396565b52610dac8561047f565b51610db68661046e565b519009610dc2856103c9565b52610dcc84610e6a565b610dd68184610365565b3592610375565b35610de783610385565b52610df182610396565b52610dfb816103f7565b51610e05826103c9565b52610e0f81610e6a565b610e5c610e1a610527565b91610e24816104c3565b51610e2e846103da565b52610e38816104d4565b51610e42846103e7565b52610e4c816104e5565b51610e56846104f6565b52610506565b51610e6682610517565b5290565b60406101e0820160608160075afa15610130576101a06040910160808160065afa156101305756fea26469706673582212203835735d1c3b6207283949f591bb232dbf47987c173df448b2e1a971193137c564736f6c63430008180033",
  "linkReferences": {},
  "deployedLinkReferences": {}
}