{
  "_format": "hh-sol-artifact-1",
  "contractName": "StakingContract",
  "sourceName": "contracts/game_opzk/StakingContract.sol",
  "abi": [
    {
      "inputs": [
        {
          "internalType": "address",
          "name": "_gameContract",
          "type": "address"
        }
      ],
      "stateMutability": "nonpayable",
      "type": "constructor"
    },
    {
      "anonymous": false,
      "inputs": [
        {
          "indexed": true,
          "internalType": "address",
          "name": "challenger",
          "type": "address"
        },
        {
          "indexed": false,
          "internalType": "uint256",
          "name": "startBlock",
          "type": "uint256"
        },
        {
          "indexed": false,
          "internalType": "uint256",
          "name": "endBlock",
          "type": "uint256"
        },
        {
          "indexed": false,
          "internalType": "uint256",
          "name": "stakePerBlock",
          "type": "uint256"
        }
      ],
      "name": "ChallengerCommitBlockWindow",
      "type": "event"
    },
    {
      "anonymous": false,
      "inputs": [
        {
          "indexed": true,
          "internalType": "address",
          "name": "challenger",
          "type": "address"
        },
        {
          "indexed": false,
          "internalType": "uint256[]",
          "name": "startBlocks",
          "type": "uint256[]"
        },
        {
          "indexed": false,
          "internalType": "uint256[]",
          "name": "challengerPoolIndex",
          "type": "uint256[]"
        }
      ],
      "name": "ChallengerSettleCommitBlockWindow",
      "type": "event"
    },
    {
      "anonymous": false,
      "inputs": [
        {
          "indexed": true,
          "internalType": "address",
          "name": "challengerToBeSlashed",
          "type": "address"
        },
        {
          "indexed": true,
          "internalType": "address",
          "name": "challengerToBeRewarded",
          "type": "address"
        },
        {
          "indexed": false,
          "internalType": "uint256",
          "name": "slashingStartBlock",
          "type": "uint256"
        },
        {
          "indexed": false,
          "internalType": "uint256",
          "name": "slashingChallengerPoolIndex",
          "type": "uint256"
        }
      ],
      "name": "ChallengerSlash",
      "type": "event"
    },
    {
      "anonymous": false,
      "inputs": [
        {
          "indexed": true,
          "internalType": "address",
          "name": "challenger",
          "type": "address"
        },
        {
          "indexed": false,
          "internalType": "uint256",
          "name": "amount",
          "type": "uint256"
        }
      ],
      "name": "ChallengerStake",
      "type": "event"
    },
    {
      "anonymous": false,
      "inputs": [
        {
          "indexed": true,
          "internalType": "address",
          "name": "challenger",
          "type": "address"
        },
        {
          "indexed": false,
          "internalType": "uint256",
          "name": "amount",
          "type": "uint256"
        }
      ],
      "name": "ChallengerWithdraw",
      "type": "event"
    },
    {
      "anonymous": false,
      "inputs": [
        {
          "indexed": true,
          "internalType": "address",
          "name": "operator",
          "type": "address"
        },
        {
          "indexed": false,
          "internalType": "uint256",
          "name": "submissionCount",
          "type": "uint256"
        }
      ],
      "name": "OperatorSettleSubmission",
      "type": "event"
    },
    {
      "anonymous": false,
      "inputs": [
        {
          "indexed": true,
          "internalType": "address",
          "name": "operator",
          "type": "address"
        },
        {
          "indexed": true,
          "internalType": "address",
          "name": "challenger",
          "type": "address"
        },
        {
          "indexed": false,
          "internalType": "uint256",
          "name": "slashedSubmissionCount",
          "type": "uint256"
        },
        {
          "indexed": false,
          "internalType": "uint256",
          "name": "burnedAmount",
          "type": "uint256"
        },
        {
          "indexed": false,
          "internalType": "uint256",
          "name": "challengerReward",
          "type": "uint256"
        }
      ],
      "name": "OperatorSlash",
      "type": "event"
    },
    {
      "anonymous": false,
      "inputs": [
        {
          "indexed": true,
          "internalType": "address",
          "name": "operator",
          "type": "address"
        },
        {
          "indexed": false,
          "internalType": "uint256",
          "name": "amount",
          "type": "uint256"
        }
      ],
      "name": "OperatorStake",
      "type": "event"
    },
    {
      "anonymous": false,
      "inputs": [
        {
          "indexed": true,
          "internalType": "address",
          "name": "operator",
          "type": "address"
        },
        {
          "indexed": false,
          "internalType": "uint256",
          "name": "submissionCount",
          "type": "uint256"
        }
      ],
      "name": "OperatorSubmitSubmission",
      "type": "event"
    },
    {
      "anonymous": false,
      "inputs": [
        {
          "indexed": true,
          "internalType": "address",
          "name": "operator",
          "type": "address"
        },
        {
          "indexed": false,
          "internalType": "uint256",
          "name": "amount",
          "type": "uint256"
        }
      ],
      "name": "OperatorWithdraw",
      "type": "event"
    },
    {
      "anonymous": false,
      "inputs": [
        {
          "indexed": true,
          "internalType": "address",
          "name": "paymaster",
          "type": "address"
        },
        {
          "indexed": false,
          "internalType": "uint256",
          "name": "amount",
          "type": "uint256"
        }
      ],
      "name": "PaymasterStake",
      "type": "event"
    },
    {
      "inputs": [],
      "name": "CHALLENGER_ETH_BLOCK_WINDOW",
      "outputs": [
        {
          "internalType": "uint256",
          "name": "",
          "type": "uint256"
        }
      ],
      "stateMutability": "view",
      "type": "function"
    },
    {
      "inputs": [],
      "name": "CHALLENGER_ETH_SLASHED_BURNED_PERCENTAGE",
      "outputs": [
        {
          "internalType": "uint256",
          "name": "",
          "type": "uint256"
        }
      ],
      "stateMutability": "view",
      "type": "function"
    },
    {
      "inputs": [],
      "name": "CHALLENGER_ETH_SLASHED_CHALLENGER_REWARD_PERCENTAGE",
      "outputs": [
        {
          "internalType": "uint256",
          "name": "",
          "type": "uint256"
        }
      ],
      "stateMutability": "view",
      "type": "function"
    },
    {
      "inputs": [],
      "name": "CHALLENGER_ETH_STAKE_PER_BLOCK",
      "outputs": [
        {
          "internalType": "uint256",
          "name": "",
          "type": "uint256"
        }
      ],
      "stateMutability": "view",
      "type": "function"
    },
    {
      "inputs": [],
      "name": "CHALLENGER_POOL_MAX_SIZE",
      "outputs": [
        {
          "internalType": "uint256",
          "name": "",
          "type": "uint256"
        }
      ],
      "stateMutability": "view",
      "type": "function"
    },
    {
      "inputs": [],
      "name": "CHALLENGER_SLASHING_CHALLENG_WINDOW",
      "outputs": [
        {
          "internalType": "uint256",
          "name": "",
          "type": "uint256"
        }
      ],
      "stateMutability": "view",
      "type": "function"
    },
    {
      "inputs": [],
      "name": "DA_ETH_SLASHED_BURNED_PERCENTAGE",
      "outputs": [
        {
          "internalType": "uint256",
          "name": "",
          "type": "uint256"
        }
      ],
      "stateMutability": "view",
      "type": "function"
    },
    {
      "inputs": [],
      "name": "DA_ETH_SLASHED_CHALLENGER_REWARD_PERCENTAGE",
      "outputs": [
        {
          "internalType": "uint256",
          "name": "",
          "type": "uint256"
        }
      ],
      "stateMutability": "view",
      "type": "function"
    },
    {
      "inputs": [],
      "name": "DA_ETH_STAKED_PER_SUBMISSION",
      "outputs": [
        {
          "internalType": "uint256",
          "name": "",
          "type": "uint256"
        }
      ],
      "stateMutability": "view",
      "type": "function"
    },
    {
      "inputs": [],
      "name": "OPERATOR_ETH_SLASHED_BURNED_PERCENTAGE",
      "outputs": [
        {
          "internalType": "uint256",
          "name": "",
          "type": "uint256"
        }
      ],
      "stateMutability": "view",
      "type": "function"
    },
    {
      "inputs": [],
      "name": "OPERATOR_ETH_SLASHED_CHALLENGER_REWARD_PERCENTAGE",
      "outputs": [
        {
          "internalType": "uint256",
          "name": "",
          "type": "uint256"
        }
      ],
      "stateMutability": "view",
      "type": "function"
    },
    {
      "inputs": [],
      "name": "OPERATOR_ETH_STAKED_PER_SUBMISSION",
      "outputs": [
        {
          "internalType": "uint256",
          "name": "",
          "type": "uint256"
        }
      ],
      "stateMutability": "view",
      "type": "function"
    },
    {
      "inputs": [
        {
          "internalType": "address",
          "name": "",
          "type": "address"
        }
      ],
      "name": "challengerCommittedBlockWindowCount",
      "outputs": [
        {
          "internalType": "uint256",
          "name": "",
          "type": "uint256"
        }
      ],
      "stateMutability": "view",
      "type": "function"
    },
    {
      "inputs": [
        {
          "internalType": "uint256",
          "name": "",
          "type": "uint256"
        },
        {
          "internalType": "uint256",
          "name": "",
          "type": "uint256"
        }
      ],
      "name": "challengerPool",
      "outputs": [
        {
          "internalType": "address",
          "name": "",
          "type": "address"
        }
      ],
      "stateMutability": "view",
      "type": "function"
    },
    {
      "inputs": [
        {
          "internalType": "address",
          "name": "",
          "type": "address"
        }
      ],
      "name": "challengerStake",
      "outputs": [
        {
          "internalType": "uint256",
          "name": "",
          "type": "uint256"
        }
      ],
      "stateMutability": "view",
      "type": "function"
    },
    {
      "inputs": [
        {
          "internalType": "address",
          "name": "challenger",
          "type": "address"
        }
      ],
      "name": "challenger_available_stake",
      "outputs": [
        {
          "internalType": "uint256",
          "name": "",
          "type": "uint256"
        }
      ],
      "stateMutability": "view",
      "type": "function"
    },
    {
      "inputs": [
        {
          "internalType": "uint256",
          "name": "startBlock",
          "type": "uint256"
        },
        {
          "internalType": "uint256",
          "name": "endBlock",
          "type": "uint256"
        }
      ],
      "name": "challenger_commit_block_window",
      "outputs": [],
      "stateMutability": "nonpayable",
      "type": "function"
    },
    {
      "inputs": [
        {
          "internalType": "uint256[]",
          "name": "startBlocks",
          "type": "uint256[]"
        },
        {
          "internalType": "uint256[]",
          "name": "challengerPoolIndex",
          "type": "uint256[]"
        }
      ],
      "name": "challenger_settle_commit_block_window",
      "outputs": [],
      "stateMutability": "nonpayable",
      "type": "function"
    },
    {
      "inputs": [
        {
          "internalType": "address",
          "name": "challengerToBeRewarded",
          "type": "address"
        },
        {
          "internalType": "uint256",
          "name": "unchallengedSubmissionBlockNumber",
          "type": "uint256"
        }
      ],
      "name": "challenger_slashing",
      "outputs": [],
      "stateMutability": "nonpayable",
      "type": "function"
    },
    {
      "inputs": [],
      "name": "challenger_stake",
      "outputs": [],
      "stateMutability": "payable",
      "type": "function"
    },
    {
      "inputs": [
        {
          "internalType": "uint256",
          "name": "withdrawAmount",
          "type": "uint256"
        }
      ],
      "name": "challenger_withdraw",
      "outputs": [],
      "stateMutability": "nonpayable",
      "type": "function"
    },
    {
      "inputs": [],
      "name": "da_slash",
      "outputs": [],
      "stateMutability": "nonpayable",
      "type": "function"
    },
    {
      "inputs": [],
      "name": "da_stake",
      "outputs": [],
      "stateMutability": "payable",
      "type": "function"
    },
    {
      "inputs": [],
      "name": "da_withdraw",
      "outputs": [],
      "stateMutability": "nonpayable",
      "type": "function"
    },
    {
      "inputs": [],
      "name": "gameContract",
      "outputs": [
        {
          "internalType": "address",
          "name": "",
          "type": "address"
        }
      ],
      "stateMutability": "view",
      "type": "function"
    },
    {
      "inputs": [
        {
          "internalType": "address",
          "name": "paymaster",
          "type": "address"
        },
        {
          "internalType": "uint256",
          "name": "amount",
          "type": "uint256"
        }
      ],
      "name": "hold_pay_to_operator",
      "outputs": [],
      "stateMutability": "payable",
      "type": "function"
    },
    {
      "inputs": [
        {
          "internalType": "address",
          "name": "",
          "type": "address"
        }
      ],
      "name": "operatorStake",
      "outputs": [
        {
          "internalType": "uint256",
          "name": "",
          "type": "uint256"
        }
      ],
      "stateMutability": "view",
      "type": "function"
    },
    {
      "inputs": [
        {
          "internalType": "address",
          "name": "",
          "type": "address"
        }
      ],
      "name": "operatorSubmittingSubmissionCount",
      "outputs": [
        {
          "internalType": "uint256",
          "name": "",
          "type": "uint256"
        }
      ],
      "stateMutability": "view",
      "type": "function"
    },
    {
      "inputs": [
        {
          "internalType": "address",
          "name": "operator",
          "type": "address"
        }
      ],
      "name": "operator_available_stake",
      "outputs": [
        {
          "internalType": "uint256",
          "name": "stake",
          "type": "uint256"
        }
      ],
      "stateMutability": "view",
      "type": "function"
    },
    {
      "inputs": [
        {
          "internalType": "uint256",
          "name": "submissionCount",
          "type": "uint256"
        },
        {
          "internalType": "address",
          "name": "operator",
          "type": "address"
        }
      ],
      "name": "operator_settle_submission",
      "outputs": [],
      "stateMutability": "nonpayable",
      "type": "function"
    },
    {
      "inputs": [
        {
          "internalType": "uint256",
          "name": "slashedSubmissionCount",
          "type": "uint256"
        },
        {
          "internalType": "address",
          "name": "challenger",
          "type": "address"
        },
        {
          "internalType": "address",
          "name": "operator",
          "type": "address"
        }
      ],
      "name": "operator_slash",
      "outputs": [],
      "stateMutability": "nonpayable",
      "type": "function"
    },
    {
      "inputs": [],
      "name": "operator_stake",
      "outputs": [],
      "stateMutability": "payable",
      "type": "function"
    },
    {
      "inputs": [
        {
          "internalType": "uint256",
          "name": "submissionCount",
          "type": "uint256"
        },
        {
          "internalType": "address",
          "name": "operator",
          "type": "address"
        }
      ],
      "name": "operator_submit_submission",
      "outputs": [],
      "stateMutability": "nonpayable",
      "type": "function"
    },
    {
      "inputs": [
        {
          "internalType": "uint256",
          "name": "withdrawAmount",
          "type": "uint256"
        }
      ],
      "name": "operator_withdraw",
      "outputs": [],
      "stateMutability": "nonpayable",
      "type": "function"
    },
    {
      "inputs": [
        {
          "internalType": "address",
          "name": "",
          "type": "address"
        }
      ],
      "name": "payMasterAvailableStake",
      "outputs": [
        {
          "internalType": "uint256",
          "name": "",
          "type": "uint256"
        }
      ],
      "stateMutability": "view",
      "type": "function"
    },
    {
      "inputs": [],
      "name": "paymaster_stake",
      "outputs": [],
      "stateMutability": "payable",
      "type": "function"
    },
    {
      "inputs": [
        {
          "internalType": "address",
          "name": "operator",
          "type": "address"
        },
        {
          "internalType": "uint256",
          "name": "amount",
          "type": "uint256"
        }
      ],
      "name": "release_pay_to_operator",
      "outputs": [],
      "stateMutability": "nonpayable",
      "type": "function"
    }
  ],
  "bytecode": "0x60803461007457601f61157b38819003918201601f19168301916001600160401b038311848410176100795780849260209460405283398101031261007457516001600160a01b0381169081900361007457600080546001600160a01b0319169190911790556040516114eb90816100908239f35b600080fd5b634e487b7160e01b600052604160045260246000fdfe6040608081526004908136101561001557600080fd5b600091823560e01c90816301e28005146111d057816306686b4a146111985781630c4d110d1461114f57816313c57ba0146110fd578163238c0cda14610bc857816323f94f9c1461104c5781632ce569f214610e155781632ffac69e1461102f57816338b2471e14610e15578163424aa23014610ff95781634670998814610fea57816346d2d68f14610fc45781634ef1a2c814610fa75781634f1242ac14610bc8578163623d6a5f14610f1e57816373de880614610f0157816374365f7f14610eed578163759ffb7b14610e525781637dae12c214610e1a57816382fbf80d14610e155781638e8e082e14610dea5781639045bf1814610bc8578163991bab5314610d87578163aee0c39214610bcd578163b2c7b1c314610bc8578163b39bcf3f14610b90578163b57fdcb514610855578163c20878a0146107f5578163c3c7e87c146105c4578163cbed6c9f1461038e578163cc65653714610361578163d38589bb1461030f578163d3f33009146102e7578163d42b7395146102cb578163f738978914610293578163fc66db691461020e575063fea245c8146101ba57600080fd5b8160031936011261020a5733825260016020528082206101db3482546112af565b9055513481527fe967d7e6b0193751e3222ac2bc8e7c61bc0c99a7deb97c78b2304799221c0d9960203392a280f35b5080fd5b90503461028f578160031936011261028f5760207fa073359ad4bc40c094d3e6c4a846502f3a281056368c29b8442972c4ad1d6987913561024d611208565b85546001600160a01b03919061026690831633146112d2565b16938486526002835261027c8282882054611361565b858752600284528187205551908152a280f35b8280fd5b50503461020a57602036600319011261020a5760209181906001600160a01b036102bb6111f2565b1681526002845220549051908152f35b50503461020a578160031936011261020a5760209051600a8152f35b50503461020a578160031936011261020a57905490516001600160a01b039091168152602090f35b50508160031936011261020a5733825260036020528082206103323482546112af565b9055513481527f13d94c4c4e9a7306e1d75f4d1b544bbf746ce406d62bed04b4a6e018a79c8a5c60203392a280f35b50503461020a57602036600319011261020a576020906103876103826111f2565b611478565b9051908152f35b90503461028f578160031936011261028f5767ffffffffffffffff9181358381116105c0576103c0903690840161127e565b92906024946024359081116105bc576103dc903690840161127e565b929095875b8681106104525750509161043c61044c927f61477f9d307a0043d5e24cb59df826ea63bc741dafba391b277a9067a1da3cc8969594338a5260205284892061042a878254611361565b90558451958587968752860191611454565b9083820360208501523396611454565b0390a280f35b61045d818886611444565b35606490818101908181116105aa5761044c018091116105985743111561054257610489828987611444565b358a52896005916104ae8b6104a7868b8d6020978989522093611444565b3590611234565b90543360039290921b1c6001600160a01b03160361050e57506104f38a6104a7858a8f8d908f98610508986104e88f9c809c60019e611444565b358352522093611444565b81549060018060a01b039060031b1b19169055565b016103e1565b885162461bcd60e51b81528087018390526012818701527124b73b30b634b21031b430b63632b733b2b960711b6044820152fd5b836b081a5b881d1a19481c185cdd60a21b608492602c8660208c519562461bcd60e51b87528601528401527f496e76616c696420626c6f636b2077696e646f772c206e65656420746f2062656044840152820152fd5b634e487b7160e01b8b5260118552838bfd5b634e487b7160e01b8c5260118652848cfd5b8680fd5b8480fd5b8391503461020a578260031936011261020a576105df6111f2565b91602480359160018060a01b03906105fb8282541633146112d2565b61060b6064946064810690611361565b92606484018085116107e35761044c85018091116107e35743106107a1579495821694815b84835260056020908082528a8520805484101561079d579061065484889493611234565b939054600394851b1c16928387528b83528c87205415610742576106856103e88e868a5283865289205410156113ed565b8680808061012c8180f11561073857868080806102bc8f82f1156107385783875282528b862080546103e71981019190821161072657558286528a82528b86208054600019810191908211610726578b9360019695938f92937ff9dc5cdc953d34f6526769033d6745919ece6254c7c8eb6876116deb45c1039694558b8a5281526107156104f387848c20611234565b858251918c8352820152a301610630565b634e487b7160e01b885260118d528688fd5b8c513d88823e3d90fd5b508b5162461bcd60e51b8152808c018390526030818701527f4368616c6c656e67657220686173206e6f7420636f6d6d697474656420746f2060448201526f616e7920626c6f636b2077696e646f7760801b818b0152608490fd5b8580f35b85601f60649260208b519362461bcd60e51b85528401528201527f4368616c6c656e67652077696e646f7720616c726561647920706173736564006044820152fd5b50634e487b7160e01b82526011865290fd5b50503461020a578060031936011261020a57818080806108136111f2565b6024359060018060a01b0361082c8185541633146112d2565b8391831561084b575b1690f115610841575080f35b51903d90823e3d90fd5b6108fc9250610835565b83833461020a576108653661121e565b606492919294856108768584611361565b06610b3d5743841115610ae55783821115610a6e57858406610a0b5761089b3361136e565b6108a58584611361565b90600a820291808304600a14901517156109f857906108c591101561131e565b8385526005956020966005602052818588205410156109bc57855b848110610947575050849596506108f9600a9584611361565b049033875260205261090f8387209182546112af565b9055815193845260208401528201527fa8e733e57775d1eca32d84027a85d4c42f4c9387c801a80ce07c1a503b13804460603392a280f35b868852818952858820805490600160401b8210156109a9579061096f91600182018155611234565b81546001600160a01b0360039290921b91821b19163390911b179055808301908110156108e057634e487b7160e01b885260118452602488fd5b634e487b7160e01b8a526041865260248afd5b5090602084519162461bcd60e51b8352820152601760248201527610da185b1b195b99d95c881c1bdbdb081a5cc8199d5b1b604a1b6044820152fd5b634e487b7160e01b875260118352602487fd5b608490776d756c7469706c65206f6620626c6f636b2077696e646f7760401b87602086519362461bcd60e51b8552840152603860248401527f496e76616c696420737461727420626c6f636b2c206e65656420746f206265206044840152820152fd5b60a4907f626c6f636b206d7573742062652067726561746572207468616e20737461727487602086519362461bcd60e51b8552840152604660248401527f496e76616c696420626c6f636b2077696e646f772072616e67652c20656e642060448401528201526520626c6f636b60d01b6084820152fd5b6084906c696e207468652066757475726560981b87602086519362461bcd60e51b8552840152602d60248401527f496e76616c696420737461727420626c6f636b2c206e65656420746f206265206044840152820152fd5b608490676d756c7469706c6560c01b87602086519362461bcd60e51b8552840152602860248401527f496e76616c696420626c6f636b2077696e646f772072616e67652c206e6f74206044840152820152fd5b50503461020a57602036600319011261020a5760209181906001600160a01b03610bb86111f2565b1681526001845220549051908152f35b611262565b83833461020a57606036600319011261020a578235610bea611208565b6044356001600160a01b038181169491859003610d8357610c0f8187541633146112d2565b606484029084820460641485151715610d705785875260209160018352610c3b848920548211156113ed565b61c35086028181046101f41482151715610d5d578899506103e89004978895818088159b8c610d53575b82809291818093f115610d4757831698868a8392610d3d575b8392839283928392f115610d325792610cdb8593879593610ccf7f2e4b40321e205f512441db155b5080356c197414d55b00fbf7ef0529200c8fc19a98868d60609c98526001875220918254611361565b90558b541633146112d2565b878a5260028152610cef85848c2054611361565b888b5260028252838b2055877fa073359ad4bc40c094d3e6c4a846502f3a281056368c29b8442972c4ad1d6987828551888152a28251948552840152820152a380f35b8451903d90823e3d90fd5b6108fc9250610c7e565b508451903d90823e3d90fd5b6108fc9150610c65565b634e487b7160e01b895260118a52602489fd5b634e487b7160e01b875260118852602487fd5b8580fd5b50508060031936011261020a57610de5610d9f6111f2565b835460243593916001600160a01b0391610dbc90831633146112d2565b168085526006602052610dd48483872054101561131e565b845260066020528320918254611361565b905580f35b8334610e125780600319360112610e1257610e0f60018060a01b0382541633146112d2565b80f35b80fd5b6111d0565b50503461020a57602036600319011261020a5760209181906001600160a01b03610e426111f2565b1681526006845220549051908152f35b90503461028f57602036600319011261028f573590610e7b82610e743361136e565b101561131e565b3383526003602052808320610e91838254611361565b90558280838015610ee3575b8280929181923390f115610ed857519081527fedbaf812a554c50088c17404a924a56317bdeeab92b2a4d7bc32493721f6a90460203392a280f35b51913d9150823e3d90fd5b6108fc9150610e9d565b8334610e125780600319360112610e125780f35b50503461020a578160031936011261020a57602090516103e88152f35b90503461028f57602036600319011261028f573590610f4082610e7433611478565b3383526001602052808320610f56838254611361565b90558280838015610f9d575b8280929181923390f115610ed857519081527f7ece0b5879e2c02894ab69f96547e98f6b2726dd6be98c7fd338ec72c85cf03460203392a280f35b6108fc9150610f62565b50503461020a578160031936011261020a576020905161012c8152f35b50503461020a57602036600319011261020a57602090610387610fe56111f2565b61136e565b8380600319360112610e125780f35b90503461028f57602036600319011261028f5760209282916001600160a01b036110216111f2565b168252845220549051908152f35b50503461020a578160031936011261020a57602090516102bc8152f35b90503461028f578160031936011261028f57803590611069611208565b84546001600160a01b03929061108290841633146112d2565b6064840290848204606414851517156110ea575091816110c9602094610e747f208d2f04c8fbda7bae9dd6d8f88ff4fc0e5db7dc80f79de7adfd310210239de49795611478565b1693848652600283528086206110e08382546112af565b905551908152a280f35b634e487b7160e01b875260119052602486fd5b50508160031936011261020a5733825260066020528082206111203482546112af565b9055513481527f465f2f25d935a282b8cd15491a42bf6504e87fff5999088738acc28568fd414760203392a280f35b50503461020a5761115f3661121e565b929081526005602052818120908154841015610e12575060209261118291611234565b905491519160018060a01b039160031b1c168152f35b50503461020a57602036600319011261020a5760209181906001600160a01b036111c06111f2565b1681526003845220549051908152f35b346111ed5760003660031901126111ed5760206040516101f48152f35b600080fd5b600435906001600160a01b03821682036111ed57565b602435906001600160a01b03821682036111ed57565b60409060031901126111ed576004359060243590565b805482101561124c5760005260206000200190600090565b634e487b7160e01b600052603260045260246000fd5b346111ed5760003660031901126111ed57602060405160648152f35b9181601f840112156111ed5782359167ffffffffffffffff83116111ed576020808501948460051b0101116111ed57565b919082018092116112bc57565b634e487b7160e01b600052601160045260246000fd5b156112d957565b60405162461bcd60e51b815260206004820152601f60248201527f43616c6c6572206973206e6f74207468652067616d6520636f6e7472616374006044820152606490fd5b1561132557565b60405162461bcd60e51b8152602060048201526014602482015273496e73756666696369656e742062616c616e636560601b6044820152606490fd5b919082039182116112bc57565b9060009160018060a01b031682526003602052604082205460046020526040832054906064820291808304606414811517156113d9576103e80291808304600a14901517156113c5576113c2929350611361565b90565b634e487b7160e01b84526011600452602484fd5b634e487b7160e01b85526011600452602485fd5b156113f457565b60405162461bcd60e51b815260206004820152602260248201527f496e73756666696369656e742062616c616e636520746f20626520736c617368604482015261195960f21b6064820152608490fd5b919081101561124c5760051b0190565b81835290916001600160fb1b0383116111ed5760209260051b809284830137010190565b60018060a01b0316600052600160205260406000205460026020526040600020546064810290808204606414901517156112bc576113c29161136156fea2646970667358221220565b2e099fc2d8eb7a6cbc0f4d27a909f78f19a5de98575662a879d7cabd633564736f6c63430008180033",
  "linkReferences": {},
  "deployedLinkReferences": {}
}