{
  "_format": "hh-sol-artifact-1",
  "contractName": "StakingContract",
  "sourceName": "contracts/game_opzk/StakingContract.sol",
  "abi": [
    {
      "inputs": [
        {
          "internalType": "address",
          "name": "_gameContract",
          "type": "address"
        }
      ],
      "stateMutability": "nonpayable",
      "type": "constructor"
    },
    {
      "anonymous": false,
      "inputs": [
        {
          "indexed": true,
          "internalType": "address",
          "name": "challenger",
          "type": "address"
        },
        {
          "indexed": false,
          "internalType": "uint256",
          "name": "startBlock",
          "type": "uint256"
        },
        {
          "indexed": false,
          "internalType": "uint256",
          "name": "endBlock",
          "type": "uint256"
        },
        {
          "indexed": false,
          "internalType": "uint256",
          "name": "stakePerBlock",
          "type": "uint256"
        }
      ],
      "name": "ChallengerCommitBlockWindow",
      "type": "event"
    },
    {
      "anonymous": false,
      "inputs": [
        {
          "indexed": true,
          "internalType": "address",
          "name": "challenger",
          "type": "address"
        },
        {
          "indexed": false,
          "internalType": "uint256[]",
          "name": "startBlocks",
          "type": "uint256[]"
        },
        {
          "indexed": false,
          "internalType": "uint256[]",
          "name": "challengerPoolIndex",
          "type": "uint256[]"
        }
      ],
      "name": "ChallengerSettleCommitBlockWindow",
      "type": "event"
    },
    {
      "anonymous": false,
      "inputs": [
        {
          "indexed": true,
          "internalType": "address",
          "name": "challengerToBeSlashed",
          "type": "address"
        },
        {
          "indexed": true,
          "internalType": "address",
          "name": "challengerToBeRewarded",
          "type": "address"
        },
        {
          "indexed": false,
          "internalType": "uint256",
          "name": "slashingStartBlock",
          "type": "uint256"
        },
        {
          "indexed": false,
          "internalType": "uint256",
          "name": "slashingChallengerPoolIndex",
          "type": "uint256"
        }
      ],
      "name": "ChallengerSlash",
      "type": "event"
    },
    {
      "anonymous": false,
      "inputs": [
        {
          "indexed": true,
          "internalType": "address",
          "name": "challenger",
          "type": "address"
        },
        {
          "indexed": false,
          "internalType": "uint256",
          "name": "amount",
          "type": "uint256"
        }
      ],
      "name": "ChallengerStake",
      "type": "event"
    },
    {
      "anonymous": false,
      "inputs": [
        {
          "indexed": true,
          "internalType": "address",
          "name": "challenger",
          "type": "address"
        },
        {
          "indexed": false,
          "internalType": "uint256",
          "name": "amount",
          "type": "uint256"
        }
      ],
      "name": "ChallengerWithdraw",
      "type": "event"
    },
    {
      "anonymous": false,
      "inputs": [
        {
          "indexed": true,
          "internalType": "address",
          "name": "operator",
          "type": "address"
        },
        {
          "indexed": false,
          "internalType": "uint256",
          "name": "submissionCount",
          "type": "uint256"
        }
      ],
      "name": "OperatorSettleSubmission",
      "type": "event"
    },
    {
      "anonymous": false,
      "inputs": [
        {
          "indexed": true,
          "internalType": "address",
          "name": "operator",
          "type": "address"
        },
        {
          "indexed": true,
          "internalType": "address",
          "name": "challenger",
          "type": "address"
        },
        {
          "indexed": false,
          "internalType": "uint256",
          "name": "slashedSubmissionCount",
          "type": "uint256"
        },
        {
          "indexed": false,
          "internalType": "uint256",
          "name": "burnedAmount",
          "type": "uint256"
        },
        {
          "indexed": false,
          "internalType": "uint256",
          "name": "challengerReward",
          "type": "uint256"
        }
      ],
      "name": "OperatorSlash",
      "type": "event"
    },
    {
      "anonymous": false,
      "inputs": [
        {
          "indexed": true,
          "internalType": "address",
          "name": "operator",
          "type": "address"
        },
        {
          "indexed": false,
          "internalType": "uint256",
          "name": "amount",
          "type": "uint256"
        }
      ],
      "name": "OperatorStake",
      "type": "event"
    },
    {
      "anonymous": false,
      "inputs": [
        {
          "indexed": true,
          "internalType": "address",
          "name": "operator",
          "type": "address"
        },
        {
          "indexed": false,
          "internalType": "uint256",
          "name": "submissionCount",
          "type": "uint256"
        }
      ],
      "name": "OperatorSubmitSubmission",
      "type": "event"
    },
    {
      "anonymous": false,
      "inputs": [
        {
          "indexed": true,
          "internalType": "address",
          "name": "operator",
          "type": "address"
        },
        {
          "indexed": false,
          "internalType": "uint256",
          "name": "amount",
          "type": "uint256"
        }
      ],
      "name": "OperatorWithdraw",
      "type": "event"
    },
    {
      "inputs": [],
      "name": "CHALLENGER_ETH_BLOCK_WINDOW",
      "outputs": [
        {
          "internalType": "uint256",
          "name": "",
          "type": "uint256"
        }
      ],
      "stateMutability": "view",
      "type": "function"
    },
    {
      "inputs": [],
      "name": "CHALLENGER_ETH_SLASHED_BURNED_PERCENTAGE",
      "outputs": [
        {
          "internalType": "uint256",
          "name": "",
          "type": "uint256"
        }
      ],
      "stateMutability": "view",
      "type": "function"
    },
    {
      "inputs": [],
      "name": "CHALLENGER_ETH_SLASHED_CHALLENGER_REWARD_PERCENTAGE",
      "outputs": [
        {
          "internalType": "uint256",
          "name": "",
          "type": "uint256"
        }
      ],
      "stateMutability": "view",
      "type": "function"
    },
    {
      "inputs": [],
      "name": "CHALLENGER_ETH_STAKE_PER_BLOCK",
      "outputs": [
        {
          "internalType": "uint256",
          "name": "",
          "type": "uint256"
        }
      ],
      "stateMutability": "view",
      "type": "function"
    },
    {
      "inputs": [],
      "name": "CHALLENGER_POOL_MAX_SIZE",
      "outputs": [
        {
          "internalType": "uint256",
          "name": "",
          "type": "uint256"
        }
      ],
      "stateMutability": "view",
      "type": "function"
    },
    {
      "inputs": [],
      "name": "CHALLENGER_SLASHING_CHALLENG_WINDOW",
      "outputs": [
        {
          "internalType": "uint256",
          "name": "",
          "type": "uint256"
        }
      ],
      "stateMutability": "view",
      "type": "function"
    },
    {
      "inputs": [],
      "name": "DA_ETH_SLASHED_BURNED_PERCENTAGE",
      "outputs": [
        {
          "internalType": "uint256",
          "name": "",
          "type": "uint256"
        }
      ],
      "stateMutability": "view",
      "type": "function"
    },
    {
      "inputs": [],
      "name": "DA_ETH_SLASHED_CHALLENGER_REWARD_PERCENTAGE",
      "outputs": [
        {
          "internalType": "uint256",
          "name": "",
          "type": "uint256"
        }
      ],
      "stateMutability": "view",
      "type": "function"
    },
    {
      "inputs": [],
      "name": "DA_ETH_STAKED_PER_SUBMISSION",
      "outputs": [
        {
          "internalType": "uint256",
          "name": "",
          "type": "uint256"
        }
      ],
      "stateMutability": "view",
      "type": "function"
    },
    {
      "inputs": [],
      "name": "OPERATOR_ETH_SLASHED_BURNED_PERCENTAGE",
      "outputs": [
        {
          "internalType": "uint256",
          "name": "",
          "type": "uint256"
        }
      ],
      "stateMutability": "view",
      "type": "function"
    },
    {
      "inputs": [],
      "name": "OPERATOR_ETH_SLASHED_CHALLENGER_REWARD_PERCENTAGE",
      "outputs": [
        {
          "internalType": "uint256",
          "name": "",
          "type": "uint256"
        }
      ],
      "stateMutability": "view",
      "type": "function"
    },
    {
      "inputs": [],
      "name": "OPERATOR_ETH_STAKED_PER_SUBMISSION",
      "outputs": [
        {
          "internalType": "uint256",
          "name": "",
          "type": "uint256"
        }
      ],
      "stateMutability": "view",
      "type": "function"
    },
    {
      "inputs": [
        {
          "internalType": "address",
          "name": "",
          "type": "address"
        }
      ],
      "name": "challengerCommittedBlockWindowCount",
      "outputs": [
        {
          "internalType": "uint256",
          "name": "",
          "type": "uint256"
        }
      ],
      "stateMutability": "view",
      "type": "function"
    },
    {
      "inputs": [
        {
          "internalType": "uint256",
          "name": "",
          "type": "uint256"
        },
        {
          "internalType": "uint256",
          "name": "",
          "type": "uint256"
        }
      ],
      "name": "challengerPool",
      "outputs": [
        {
          "internalType": "address",
          "name": "",
          "type": "address"
        }
      ],
      "stateMutability": "view",
      "type": "function"
    },
    {
      "inputs": [
        {
          "internalType": "address",
          "name": "",
          "type": "address"
        }
      ],
      "name": "challengerStake",
      "outputs": [
        {
          "internalType": "uint256",
          "name": "",
          "type": "uint256"
        }
      ],
      "stateMutability": "view",
      "type": "function"
    },
    {
      "inputs": [
        {
          "internalType": "address",
          "name": "challenger",
          "type": "address"
        }
      ],
      "name": "challenger_available_stake",
      "outputs": [
        {
          "internalType": "uint256",
          "name": "",
          "type": "uint256"
        }
      ],
      "stateMutability": "view",
      "type": "function"
    },
    {
      "inputs": [
        {
          "internalType": "uint256",
          "name": "startBlock",
          "type": "uint256"
        },
        {
          "internalType": "uint256",
          "name": "endBlock",
          "type": "uint256"
        }
      ],
      "name": "challenger_commit_block_window",
      "outputs": [],
      "stateMutability": "nonpayable",
      "type": "function"
    },
    {
      "inputs": [
        {
          "internalType": "uint256[]",
          "name": "startBlocks",
          "type": "uint256[]"
        },
        {
          "internalType": "uint256[]",
          "name": "challengerPoolIndex",
          "type": "uint256[]"
        }
      ],
      "name": "challenger_settle_commit_block_window",
      "outputs": [],
      "stateMutability": "nonpayable",
      "type": "function"
    },
    {
      "inputs": [
        {
          "internalType": "address",
          "name": "challengerToBeRewarded",
          "type": "address"
        },
        {
          "internalType": "uint256",
          "name": "unchallengedSubmissionBlockNumber",
          "type": "uint256"
        }
      ],
      "name": "challenger_slashing",
      "outputs": [],
      "stateMutability": "nonpayable",
      "type": "function"
    },
    {
      "inputs": [],
      "name": "challenger_stake",
      "outputs": [],
      "stateMutability": "payable",
      "type": "function"
    },
    {
      "inputs": [
        {
          "internalType": "uint256",
          "name": "withdrawAmount",
          "type": "uint256"
        }
      ],
      "name": "challenger_withdraw",
      "outputs": [],
      "stateMutability": "nonpayable",
      "type": "function"
    },
    {
      "inputs": [],
      "name": "da_slash",
      "outputs": [],
      "stateMutability": "nonpayable",
      "type": "function"
    },
    {
      "inputs": [],
      "name": "da_stake",
      "outputs": [],
      "stateMutability": "payable",
      "type": "function"
    },
    {
      "inputs": [],
      "name": "da_withdraw",
      "outputs": [],
      "stateMutability": "nonpayable",
      "type": "function"
    },
    {
      "inputs": [],
      "name": "gameContract",
      "outputs": [
        {
          "internalType": "address",
          "name": "",
          "type": "address"
        }
      ],
      "stateMutability": "view",
      "type": "function"
    },
    {
      "inputs": [
        {
          "internalType": "address",
          "name": "",
          "type": "address"
        }
      ],
      "name": "operatorStake",
      "outputs": [
        {
          "internalType": "uint256",
          "name": "",
          "type": "uint256"
        }
      ],
      "stateMutability": "view",
      "type": "function"
    },
    {
      "inputs": [
        {
          "internalType": "address",
          "name": "",
          "type": "address"
        }
      ],
      "name": "operatorSubmittingSubmissionCount",
      "outputs": [
        {
          "internalType": "uint256",
          "name": "",
          "type": "uint256"
        }
      ],
      "stateMutability": "view",
      "type": "function"
    },
    {
      "inputs": [
        {
          "internalType": "address",
          "name": "operator",
          "type": "address"
        }
      ],
      "name": "operator_available_stake",
      "outputs": [
        {
          "internalType": "uint256",
          "name": "stake",
          "type": "uint256"
        }
      ],
      "stateMutability": "view",
      "type": "function"
    },
    {
      "inputs": [
        {
          "internalType": "uint256",
          "name": "submissionCount",
          "type": "uint256"
        },
        {
          "internalType": "address",
          "name": "operator",
          "type": "address"
        }
      ],
      "name": "operator_settle_submission",
      "outputs": [],
      "stateMutability": "nonpayable",
      "type": "function"
    },
    {
      "inputs": [
        {
          "internalType": "uint256",
          "name": "slashedSubmissionCount",
          "type": "uint256"
        },
        {
          "internalType": "address",
          "name": "challenger",
          "type": "address"
        },
        {
          "internalType": "address",
          "name": "operator",
          "type": "address"
        }
      ],
      "name": "operator_slash",
      "outputs": [],
      "stateMutability": "nonpayable",
      "type": "function"
    },
    {
      "inputs": [],
      "name": "operator_stake",
      "outputs": [],
      "stateMutability": "payable",
      "type": "function"
    },
    {
      "inputs": [
        {
          "internalType": "uint256",
          "name": "submissionCount",
          "type": "uint256"
        },
        {
          "internalType": "address",
          "name": "operator",
          "type": "address"
        }
      ],
      "name": "operator_submit_submission",
      "outputs": [],
      "stateMutability": "nonpayable",
      "type": "function"
    },
    {
      "inputs": [
        {
          "internalType": "uint256",
          "name": "withdrawAmount",
          "type": "uint256"
        }
      ],
      "name": "operator_withdraw",
      "outputs": [],
      "stateMutability": "nonpayable",
      "type": "function"
    }
  ],
  "bytecode": "0x60803461007457601f61140238819003918201601f19168301916001600160401b038311848410176100795780849260209460405283398101031261007457516001600160a01b0381169081900361007457600080546001600160a01b03191691909117905560405161137290816100908239f35b600080fd5b634e487b7160e01b600052604160045260246000fdfe6040608081526004908136101561001557600080fd5b600091823560e01c90816301e280051461105757816306686b4a1461101f5781630c4d110d14610fd6578163238c0cda14610b3c57816323f94f9c14610f255781632ce569f214610d265781632ffac69e14610f0857816338b2471e14610d26578163424aa23014610ed25781634670998814610ec357816346d2d68f14610e9d5781634ef1a2c814610e805781634f1242ac14610b3c578163623d6a5f14610df757816373de880614610dda57816374365f7f14610dc6578163759ffb7b14610d2b57816382fbf80d14610d265781638e8e082e14610cfb5781639045bf1814610b3c578163aee0c39214610b41578163b2c7b1c314610b3c578163b39bcf3f14610b04578163b57fdcb5146107c9578163c3c7e87c14610598578163cbed6c9f14610362578163cc65653714610335578163d38589bb146102e3578163d3f33009146102bb578163d42b73951461029f578163f738978914610267578163fc66db69146101e2575063fea245c81461018e57600080fd5b816003193601126101de5733825260016020528082206101af3482546111c5565b9055513481527fe967d7e6b0193751e3222ac2bc8e7c61bc0c99a7deb97c78b2304799221c0d9960203392a280f35b5080fd5b90503461026357816003193601126102635760207fa073359ad4bc40c094d3e6c4a846502f3a281056368c29b8442972c4ad1d6987913561022161108f565b85546001600160a01b03919061023a9083163314611136565b16938486526002835261025082828820546111e8565b858752600284528187205551908152a280f35b8280fd5b5050346101de5760203660031901126101de5760209181906001600160a01b0361028f611079565b1681526002845220549051908152f35b5050346101de57816003193601126101de5760209051600a8152f35b5050346101de57816003193601126101de57905490516001600160a01b039091168152602090f35b5050816003193601126101de5733825260036020528082206103063482546111c5565b9055513481527f13d94c4c4e9a7306e1d75f4d1b544bbf746ce406d62bed04b4a6e018a79c8a5c60203392a280f35b5050346101de5760203660031901126101de5760209061035b610356611079565b6112ff565b9051908152f35b90503461026357816003193601126102635767ffffffffffffffff918135838111610594576103949036908401611105565b9290602494602435908111610590576103b09036908401611105565b929095875b86811061042657505091610410610420927f61477f9d307a0043d5e24cb59df826ea63bc741dafba391b277a9067a1da3cc8969594338a526020528489206103fe8782546111e8565b905584519585879687528601916112db565b90838203602085015233966112db565b0390a280f35b6104318188866112cb565b356064908181019081811161057e5761044c0180911161056c574311156105165761045d8289876112cb565b358a52896005916104828b61047b868b8d60209789895220936112cb565b35906110bb565b90543360039290921b1c6001600160a01b0316036104e257506104c78a61047b858a8f8d908f986104dc986104bc8f9c809c60019e6112cb565b3583525220936112cb565b81549060018060a01b039060031b1b19169055565b016103b5565b885162461bcd60e51b81528087018390526012818701527124b73b30b634b21031b430b63632b733b2b960711b6044820152fd5b836b081a5b881d1a19481c185cdd60a21b608492602c8660208c519562461bcd60e51b87528601528401527f496e76616c696420626c6f636b2077696e646f772c206e65656420746f2062656044840152820152fd5b634e487b7160e01b8b5260118552838bfd5b634e487b7160e01b8c5260118652848cfd5b8680fd5b8480fd5b839150346101de57826003193601126101de576105b3611079565b91602480359160018060a01b03906105cf828254163314611136565b6105df60649460648106906111e8565b92606484018085116107b75761044c85018091116107b7574310610775579495821694815b84835260056020908082528a852080548410156107715790610628848894936110bb565b939054600394851b1c16928387528b83528c87205415610716576106596103e88e868a528386528920541015611274565b8680808061012c8180f11561070c57868080806102bc8f82f11561070c5783875282528b862080546103e7198101919082116106fa57558286528a82528b862080546000198101919082116106fa578b9360019695938f92937ff9dc5cdc953d34f6526769033d6745919ece6254c7c8eb6876116deb45c1039694558b8a5281526106e96104c787848c206110bb565b858251918c8352820152a301610604565b634e487b7160e01b885260118d528688fd5b8c513d88823e3d90fd5b508b5162461bcd60e51b8152808c018390526030818701527f4368616c6c656e67657220686173206e6f7420636f6d6d697474656420746f2060448201526f616e7920626c6f636b2077696e646f7760801b818b0152608490fd5b8580f35b85601f60649260208b519362461bcd60e51b85528401528201527f4368616c6c656e67652077696e646f7720616c726561647920706173736564006044820152fd5b50634e487b7160e01b82526011865290fd5b8383346101de576107d9366110a5565b606492919294856107ea85846111e8565b06610ab15743841115610a5957838211156109e25785840661097f5761080f336111f5565b61081985846111e8565b90600a820291808304600a149015171561096c5790610839911015611182565b83855260059560209660056020528185882054101561093057855b8481106108bb5750508495965061086d600a95846111e8565b04903387526020526108838387209182546111c5565b9055815193845260208401528201527fa8e733e57775d1eca32d84027a85d4c42f4c9387c801a80ce07c1a503b13804460603392a280f35b868852818952858820805490600160401b82101561091d57906108e3916001820181556110bb565b81546001600160a01b0360039290921b91821b19163390911b1790558083019081101561085457634e487b7160e01b885260118452602488fd5b634e487b7160e01b8a526041865260248afd5b5090602084519162461bcd60e51b8352820152601760248201527610da185b1b195b99d95c881c1bdbdb081a5cc8199d5b1b604a1b6044820152fd5b634e487b7160e01b875260118352602487fd5b608490776d756c7469706c65206f6620626c6f636b2077696e646f7760401b87602086519362461bcd60e51b8552840152603860248401527f496e76616c696420737461727420626c6f636b2c206e65656420746f206265206044840152820152fd5b60a4907f626c6f636b206d7573742062652067726561746572207468616e20737461727487602086519362461bcd60e51b8552840152604660248401527f496e76616c696420626c6f636b2077696e646f772072616e67652c20656e642060448401528201526520626c6f636b60d01b6084820152fd5b6084906c696e207468652066757475726560981b87602086519362461bcd60e51b8552840152602d60248401527f496e76616c696420737461727420626c6f636b2c206e65656420746f206265206044840152820152fd5b608490676d756c7469706c6560c01b87602086519362461bcd60e51b8552840152602860248401527f496e76616c696420626c6f636b2077696e646f772072616e67652c206e6f74206044840152820152fd5b5050346101de5760203660031901126101de5760209181906001600160a01b03610b2c611079565b1681526001845220549051908152f35b6110e9565b8383346101de5760603660031901126101de578235610b5e61108f565b6044356001600160a01b038181169491859003610cf757610b83818754163314611136565b606484029084820460641485151715610ce45785875260209160018352610baf84892054821115611274565b61c35086028181046101f41482151715610cd1578899506103e89004978895818088159b8c610cc7575b82809291818093f115610cbb57831698868a8392610cb1575b8392839283928392f115610ca65792610c4f8593879593610c437f2e4b40321e205f512441db155b5080356c197414d55b00fbf7ef0529200c8fc19a98868d60609c985260018752209182546111e8565b90558b54163314611136565b878a5260028152610c6385848c20546111e8565b888b5260028252838b2055877fa073359ad4bc40c094d3e6c4a846502f3a281056368c29b8442972c4ad1d6987828551888152a28251948552840152820152a380f35b8451903d90823e3d90fd5b6108fc9250610bf2565b508451903d90823e3d90fd5b6108fc9150610bd9565b634e487b7160e01b895260118a52602489fd5b634e487b7160e01b875260118852602487fd5b8580fd5b8334610d235780600319360112610d2357610d2060018060a01b038254163314611136565b80f35b80fd5b611057565b905034610263576020366003190112610263573590610d5482610d4d336111f5565b1015611182565b3383526003602052808320610d6a8382546111e8565b90558280838015610dbc575b8280929181923390f115610db157519081527fedbaf812a554c50088c17404a924a56317bdeeab92b2a4d7bc32493721f6a90460203392a280f35b51913d9150823e3d90fd5b6108fc9150610d76565b8334610d235780600319360112610d235780f35b5050346101de57816003193601126101de57602090516103e88152f35b905034610263576020366003190112610263573590610e1982610d4d336112ff565b3383526001602052808320610e2f8382546111e8565b90558280838015610e76575b8280929181923390f115610db157519081527f7ece0b5879e2c02894ab69f96547e98f6b2726dd6be98c7fd338ec72c85cf03460203392a280f35b6108fc9150610e3b565b5050346101de57816003193601126101de576020905161012c8152f35b5050346101de5760203660031901126101de5760209061035b610ebe611079565b6111f5565b8380600319360112610d235780f35b9050346102635760203660031901126102635760209282916001600160a01b03610efa611079565b168252845220549051908152f35b5050346101de57816003193601126101de57602090516102bc8152f35b905034610263578160031936011261026357803590610f4261108f565b84546001600160a01b039290610f5b9084163314611136565b606484029084820460641485151715610fc357509181610fa2602094610d4d7f208d2f04c8fbda7bae9dd6d8f88ff4fc0e5db7dc80f79de7adfd310210239de497956112ff565b169384865260028352808620610fb98382546111c5565b905551908152a280f35b634e487b7160e01b875260119052602486fd5b5050346101de57610fe6366110a5565b929081526005602052818120908154841015610d235750602092611009916110bb565b905491519160018060a01b039160031b1c168152f35b5050346101de5760203660031901126101de5760209181906001600160a01b03611047611079565b1681526003845220549051908152f35b346110745760003660031901126110745760206040516101f48152f35b600080fd5b600435906001600160a01b038216820361107457565b602435906001600160a01b038216820361107457565b6040906003190112611074576004359060243590565b80548210156110d35760005260206000200190600090565b634e487b7160e01b600052603260045260246000fd5b3461107457600036600319011261107457602060405160648152f35b9181601f840112156110745782359167ffffffffffffffff8311611074576020808501948460051b01011161107457565b1561113d57565b60405162461bcd60e51b815260206004820152601f60248201527f43616c6c6572206973206e6f74207468652067616d6520636f6e7472616374006044820152606490fd5b1561118957565b60405162461bcd60e51b8152602060048201526014602482015273496e73756666696369656e742062616c616e636560601b6044820152606490fd5b919082018092116111d257565b634e487b7160e01b600052601160045260246000fd5b919082039182116111d257565b9060009160018060a01b03168252600360205260408220546004602052604083205490606482029180830460641481151715611260576103e80291808304600a149015171561124c576112499293506111e8565b90565b634e487b7160e01b84526011600452602484fd5b634e487b7160e01b85526011600452602485fd5b1561127b57565b60405162461bcd60e51b815260206004820152602260248201527f496e73756666696369656e742062616c616e636520746f20626520736c617368604482015261195960f21b6064820152608490fd5b91908110156110d35760051b0190565b81835290916001600160fb1b0383116110745760209260051b809284830137010190565b60018060a01b0316600052600160205260406000205460026020526040600020546064810290808204606414901517156111d257611249916111e856fea264697066735822122013059b85a32d318cb02a77578f4371530a005bf3415a2b444798194042c6544764736f6c63430008180033",
  "linkReferences": {},
  "deployedLinkReferences": {}
}