{
  "_format": "hh-sol-artifact-1",
  "contractName": "SpinZKGameContract",
  "sourceName": "contracts/game_zk/GameContract.sol",
  "abi": [
    {
      "inputs": [
        {
          "internalType": "address",
          "name": "verifier_address",
          "type": "address"
        }
      ],
      "stateMutability": "nonpayable",
      "type": "constructor"
    },
    {
      "anonymous": false,
      "inputs": [
        {
          "indexed": true,
          "internalType": "uint256",
          "name": "gameId",
          "type": "uint256"
        },
        {
          "indexed": true,
          "internalType": "address",
          "name": "playerAddress",
          "type": "address"
        },
        {
          "indexed": false,
          "internalType": "uint64[4]",
          "name": "metaTransactionHashFromOnChain",
          "type": "uint64[4]"
        }
      ],
      "name": "GameSubmission",
      "type": "event"
    },
    {
      "inputs": [
        {
          "internalType": "uint64",
          "name": "input",
          "type": "uint64"
        }
      ],
      "name": "_reverseBytes",
      "outputs": [
        {
          "internalType": "uint64",
          "name": "",
          "type": "uint64"
        }
      ],
      "stateMutability": "pure",
      "type": "function"
    },
    {
      "inputs": [
        {
          "internalType": "uint64[4]",
          "name": "a",
          "type": "uint64[4]"
        },
        {
          "internalType": "uint64[4]",
          "name": "b",
          "type": "uint64[4]"
        }
      ],
      "name": "equalUintArrays",
      "outputs": [
        {
          "internalType": "bool",
          "name": "",
          "type": "bool"
        }
      ],
      "stateMutability": "pure",
      "type": "function"
    },
    {
      "inputs": [],
      "name": "getRegistryContract",
      "outputs": [
        {
          "internalType": "address",
          "name": "",
          "type": "address"
        }
      ],
      "stateMutability": "view",
      "type": "function"
    },
    {
      "inputs": [],
      "name": "getVerifierContract",
      "outputs": [
        {
          "internalType": "address",
          "name": "",
          "type": "address"
        }
      ],
      "stateMutability": "view",
      "type": "function"
    },
    {
      "inputs": [
        {
          "internalType": "bytes32",
          "name": "data",
          "type": "bytes32"
        }
      ],
      "name": "hashBytes32ToUint64Array",
      "outputs": [
        {
          "internalType": "uint64[4]",
          "name": "",
          "type": "uint64[4]"
        }
      ],
      "stateMutability": "pure",
      "type": "function"
    },
    {
      "inputs": [],
      "name": "owner",
      "outputs": [
        {
          "internalType": "address",
          "name": "",
          "type": "address"
        }
      ],
      "stateMutability": "view",
      "type": "function"
    },
    {
      "inputs": [
        {
          "internalType": "uint256[3]",
          "name": "addressParts",
          "type": "uint256[3]"
        }
      ],
      "name": "parseAddress",
      "outputs": [
        {
          "internalType": "address",
          "name": "",
          "type": "address"
        }
      ],
      "stateMutability": "pure",
      "type": "function"
    },
    {
      "inputs": [
        {
          "internalType": "uint256[][]",
          "name": "instances",
          "type": "uint256[][]"
        }
      ],
      "name": "parseProofInstances",
      "outputs": [
        {
          "internalType": "uint64[4]",
          "name": "metaDataHash",
          "type": "uint64[4]"
        },
        {
          "internalType": "uint64[4]",
          "name": "endGameStateHash",
          "type": "uint64[4]"
        }
      ],
      "stateMutability": "pure",
      "type": "function"
    },
    {
      "inputs": [],
      "name": "registryContract",
      "outputs": [
        {
          "internalType": "contract SpinGameRegistryContract",
          "name": "",
          "type": "address"
        }
      ],
      "stateMutability": "view",
      "type": "function"
    },
    {
      "inputs": [
        {
          "internalType": "address",
          "name": "new_owner",
          "type": "address"
        }
      ],
      "name": "setOwner",
      "outputs": [],
      "stateMutability": "nonpayable",
      "type": "function"
    },
    {
      "inputs": [
        {
          "internalType": "address",
          "name": "verifier_address",
          "type": "address"
        }
      ],
      "name": "setVerifier",
      "outputs": [],
      "stateMutability": "nonpayable",
      "type": "function"
    },
    {
      "inputs": [
        {
          "internalType": "uint256[3]",
          "name": "commitments",
          "type": "uint256[3]"
        }
      ],
      "name": "setVerifierImageCommitments",
      "outputs": [],
      "stateMutability": "nonpayable",
      "type": "function"
    },
    {
      "inputs": [
        {
          "internalType": "uint256",
          "name": "gameId",
          "type": "uint256"
        },
        {
          "internalType": "bytes",
          "name": "finalState",
          "type": "bytes"
        },
        {
          "internalType": "uint64[4]",
          "name": "playerInputStateHash",
          "type": "uint64[4]"
        },
        {
          "internalType": "uint256[]",
          "name": "proof",
          "type": "uint256[]"
        },
        {
          "internalType": "uint256[]",
          "name": "verify_instance",
          "type": "uint256[]"
        },
        {
          "internalType": "uint256[]",
          "name": "aux",
          "type": "uint256[]"
        },
        {
          "internalType": "uint256[][]",
          "name": "instances",
          "type": "uint256[][]"
        }
      ],
      "name": "submitGame",
      "outputs": [],
      "stateMutability": "nonpayable",
      "type": "function"
    },
    {
      "inputs": [],
      "name": "verifier",
      "outputs": [
        {
          "internalType": "contract IZKVerifier",
          "name": "",
          "type": "address"
        }
      ],
      "stateMutability": "view",
      "type": "function"
    },
    {
      "inputs": [
        {
          "internalType": "uint256",
          "name": "",
          "type": "uint256"
        }
      ],
      "name": "zk_image_commitments",
      "outputs": [
        {
          "internalType": "uint256",
          "name": "",
          "type": "uint256"
        }
      ],
      "stateMutability": "view",
      "type": "function"
    }
  ],
  "bytecode": "0x6080346100dc576001600160401b0390601f61228938819003918201601f1916830191848311848410176100c6578084926020946040528339810103126100dc57516001600160a01b038082169290918390036100dc5760018060a01b031992338460025416176002558360015416176001556040519061113e80830191838310908311176100c657602091839161114b83393081520301906000f080156100ba571690600054161760005560405161106990816100e28239f35b6040513d6000823e3d90fd5b634e487b7160e01b600052604160045260246000fd5b600080fdfe6080604052600436101561001257600080fd5b6000803560e01c806313af403514610bc457806328c1f99b14610b375780632b7ac3f314610b9b5780632bdd45b914610b5e57806336ca3d7314610b3757806337e87d5714610b0b5780634a00ac6914610aaf5780635437988d14610a61578063560bfc7e14610a1d5780637189997e146109685780638427fe8e14610893578063892ff0e5146101475780638c1336ec146101165780638da5cb5b146100ed5763a74a0434146100c257600080fd5b346100ea57806003193601126100ea576001546040516001600160a01b039091168152602090f35b80fd5b50346100ea57806003193601126100ea576002546040516001600160a01b039091168152602090f35b50346100ea5760203660031901126100ea5760043560038110156101435760209060030154604051908152f35b5080fd5b50346100ea576101403660031901126100ea576001600160401b03602435116100ea573660236024350112156100ea576001600160401b0360243560040135116100ea5736602480356004013581350101116100ea5736606312156100ea576040516101b281610c9a565b60c48136821161088f576044905b8282106108775750505060c4356001600160401b038111610670576101e9903690600401610c57565b9060e4356001600160401b03811161087357610209903690600401610c57565b9290610104356001600160401b03811161068c5761022b903690600401610c57565b9490610124356001600160401b03811161086f5761024d903690600401610c57565b96909560035480610733575b506001546001600160a01b031694853b1561072f57916102b26102c4938c97959398966102a06040519a8b9963ae022ccd60e01b8b52608060048c015260848b019161100f565b8881036003190160248a01529161100f565b8581036003190160448701529161100f565b600319838203016064840152868152602081019060208860051b820101918791865b8a81106106bf575050505082809103915afa80156106b45761069d575b509061030e91610e85565b50825460405163d296306360e01b8152600480359082015233602482015291926001600160a01b0390911691848082604481875afa9182156106905781926105de575b5061036b6020928360405192828480945193849201610fec565b8101039060025afa156105d3576103828451610db9565b608060405161039081610c9a565b3690376001600160401b03815116906001600160401b03602082015116926001600160401b03606081604085015116930151166001600160401b038251166001600160401b03602084015116916001600160401b036060816040870151169501511694604051976020890197600435895260408a01526060890152608088015260a087015260c086015260e08501526101008401526101209081840152825261014082018281106001600160401b038211176105bd576020928161045d8894826040528351928391610fec565b8101039060025afa156105515761047e6104778451610db9565b9283610f9e565b1561055c578083913b156101435781604051809263604ffaeb60e11b8252600435600483015233602483015260606044830152602435600401356064830152602435600401356024803501608484013782608460243560040135840101528183608482601f19601f60243560040135011681010301925af180156105515761053d575b50506105106040518092610c26565b33907f4689d5a4a7067603e6ddcaa845fa9fe59ab7907b4d0fe1ca8e13e7f9b9dc5da8608060043592a380f35b61054690610c87565b610143578138610501565b6040513d84823e3d90fd5b60405162461bcd60e51b815260206004820152603360248201527f537461727420737461746520646f6573206e6f74206d61746368207375626d696044820152727373696f6e2c206e6f206368616c6c656e676560681b6064820152608490fd5b634e487b7160e01b600052604160045260246000fd5b6040513d85823e3d90fd5b9150503d8086833e6105f08183610cb5565b810190602081830312610688578051906001600160401b03821161068c57019080601f83011215610688578151906001600160401b03821161067457604051879291610646601f8401601f191660200183610cb5565b828252602083860101116106705761066961036b92602095868085019101610fec565b9250610351565b8280fd5b634e487b7160e01b87526041600452602487fd5b8580fd5b8680fd5b50604051903d90823e3d90fd5b936106ac61030e939295610c87565b939091610303565b6040513d87823e3d90fd5b9295509290939550601f198382030184528435601e198936030181121561072b57880190602082359201916001600160401b038111610727578060051b3603831361072757610714602092839260019561100f565b960194019101908694928b9694926102e6565b8c80fd5b8b80fd5b8a80fd5b846001101561085b576020860135036108165783600210156107bd576004546040860135036107d15783600310156107bd576005546060860135036107785738610259565b60405162461bcd60e51b815260206004820152601a60248201527f496e76616c696420696d61676520636f6d6d69746d656e7420320000000000006044820152606490fd5b634e487b7160e01b8a52603260045260248afd5b60405162461bcd60e51b815260206004820152601a60248201527f496e76616c696420696d61676520636f6d6d69746d656e7420310000000000006044820152606490fd5b60405162461bcd60e51b815260206004820152601a60248201527f496e76616c696420696d61676520636f6d6d69746d656e7420300000000000006044820152606490fd5b634e487b7160e01b8b52603260045260248bfd5b8880fd5b8480fd5b6020809161088484610c0d565b8152019101906101c0565b8380fd5b50346100ea5760603660031901126100ea5736602312156100ea576040516001600160401b0360608201818111838210176109545760405260648236821161087357602094506004905b8282106109455750505063ffffffff6109156108fb83855116610d2c565b92604061090c828888015116610d2c565b95015116610d2c565b916bffffffffffffffff0000000060405194861b16906001600160401b0360601b9060601b161791841c16178152f35b813581529085019085016108dd565b634e487b7160e01b84526041600452602484fd5b50346100ea576101003660031901126100ea5736602312156100ea5760405161099081610c9a565b60848136821161088f576004905b828210610a05575050503660a31215610143576040516109bd81610c9a565b610104918136841161087357602094506084905b8482106109ee5750506109e49250610f9e565b6040519015158152f35b8580916109fa84610c0d565b8152019101906109d1565b60208091610a1284610c0d565b81520191019061099e565b50346100ea5760603660031901126100ea57366064116100ea57610a4c60018060a01b03600254163314610cd6565b60043560035560243560045560443560055580f35b50346100ea5760203660031901126100ea576004356001600160a01b038181169182900361067057610a9890600254163314610cd6565b600180546001600160a01b03191691909117905580f35b50346100ea5760203660031901126100ea57600435906001600160401b0382116100ea57610100610b09610aef610ae93660048701610c57565b90610e85565b610aff6040939293518094610c26565b6080830190610c26565bf35b50346100ea5760203660031901126100ea576080610b2a600435610db9565b610b096040518092610c26565b50346100ea57806003193601126100ea57546040516001600160a01b039091168152602090f35b50346100ea5760203660031901126100ea57600435906001600160401b039081831683036100ea5750610b92602092610d2c565b60405191168152f35b50346100ea57806003193601126100ea576001546040516001600160a01b039091168152602090f35b50346100ea5760203660031901126100ea576004356001600160a01b038181169182900361067057610bfc6002549182163314610cd6565b6001600160a01b0319161760025580f35b35906001600160401b0382168203610c2157565b600080fd5b6000915b60048310610c3757505050565b6001906001600160401b0383511681526020809101920192019190610c2a565b9181601f84011215610c21578235916001600160401b038311610c21576020808501948460051b010111610c2157565b6001600160401b0381116105bd57604052565b608081019081106001600160401b038211176105bd57604052565b90601f801991011681019081106001600160401b038211176105bd57604052565b15610cdd57565b60405162461bcd60e51b815260206004820152602160248201527f4f6e6c79206f776e65722063616e2063616c6c20746869732066756e6374696f6044820152603760f91b6064820152608490fd5b600091825b600880851015610d8b576001600160fd1b0385168503610d755767ffffffffffffff0060019260ff6001600160401b0387168860031b1c16921b1617930192610d31565b634e487b7160e01b600052601160045260246000fd5b5092509050565b906004811015610da35760051b0190565b634e487b7160e01b600052603260045260246000fd5b9060406080604051610dca81610c9a565b36903760405190610dda82610c9a565b608036833760005b600480821015610e40578160061b90828204841483151715610e2b5760c0918203918211610e2b5750906001600160401b03866001931c16610e248286610d92565b5201610de2565b601190634e487b7160e01b6000525260246000fd5b509193505050565b9015610da357803590601e1981360301821215610c215701908135916001600160401b038311610c21576020018260051b36038113610c21579190565b9160405192610e9384610c9a565b60803685378360405191610ea683610c9a565b60803684378294610eb78183610e48565b93909315610da3576001600160401b03809435168152610ed78284610e48565b60011015610da357602085910135166020820152610ef58284610e48565b60021015610da357604085910135166040820152610f138284610e48565b60031015610da3578460608092013516910152610f308183610e48565b60041015610da3576080013583168452610f4a8183610e48565b60051015610da35760a0013583166020850152610f678183610e48565b60069391931015610da3578360c0610f86940135166040860152610e48565b60079291921015610da35760e0606092013516910152565b9060009060005b60048110610fb65750505050600190565b6001600160401b0380610fc98387610d92565b511690610fd68385610d92565b511603610fe557600101610fa5565b5050905090565b60005b838110610fff5750506000910152565b8181015183820152602001610fef565b81835290916001600160fb1b038311610c215760209260051b80928483013701019056fea2646970667358221220883498988e53c1f51dbb9d5a08a81ac3dc6732efca573e21a297fd2204978c5d64736f6c6343000818003360803461007857601f61113e38819003918201601f19168301916001600160401b0383118484101761007d5780849260209460405283398101031261007857516001600160a01b038116908190036100785760018055600080546001600160a01b0319169190911790556040516110aa90816100948239f35b600080fd5b634e487b7160e01b600052604160045260246000fdfe6080604052600436101561001257600080fd5b6000803560e01c8063117a5b9014610905578063382d3882146108d957806349c42467146102fb578063b135bbb0146102dd578063c09ff5d6146101a0578063d2963063146100935763d3f330091461006a57600080fd5b34610090578060031936011261009057546040516001600160a01b039091168152602090f35b80fd5b5034610090576040366003190112610090576100ad610b3b565b6004358252602090600282528260018060a01b03602481600160408520015416936040519485938492634fe8446f60e01b84521660048301525afa928315610194578093610110575b505061010c604051928284938452830190610ae4565b0390f35b909192503d8082843e61012381846109e5565b820191838184031261018c578051906001600160401b038211610190570182601f8201121561018c5780519161015883610b51565b9361016660405195866109e5565b83855285848401011161009057509061018491848085019101610ac1565b9038806100f6565b5080fd5b8280fd5b604051903d90823e3d90fd5b5034610090576060366003190112610090576101ba610b3b565b6001600160401b036044358181116102d9576101da903690600401610b09565b84546001600160a01b03949085163303610282578592600435845260026020528560016040862001541691823b1561027e5761023793859160405198899687958694631535530f60e01b8652604060048701526044860191610ba3565b9116602483015203925af1801561027357610250578280f35b811161025f5760405238808280f35b634e487b7160e01b82526041600452602482fd5b6040513d85823e3d90fd5b8480fd5b60405162461bcd60e51b815260206004820152602960248201527f4f6e6c792067616d6520636f6e74726163742063616e2063616c6c207468697360448201526810333ab731ba34b7b760b91b6064820152608490fd5b8380fd5b50346100905780600319360112610090576020600154604051908152f35b5034610090576060366003190112610090576004356001600160401b03811161018c5761032c903690600401610b09565b6024356001600160401b0381116102d95761034b903690600401610b09565b906044356001600160401b0381116108d55761036b903690600401610b09565b90916040516104b0808201908282106001600160401b038311176108b6576020918391610bc5833930815203019088f09384156108ca576001546040518060c08101106001600160401b0360c0830111176108b65760c08101604052818152602081019160018060a01b0388168352604082013381526103ec368b8d610b6c565b91606084019283526103ff368789610b6c565b608085015261040f36898b610b6c565b60a08501528c526002602081905260408d208451815594516001860180546001600160a01b03199081166001600160a01b0393841617909155925191860180549093169116179055518051906001600160401b0382116107d657819061047860038601546109ab565b601f8111610864575b50602090601f83116001146107f5578d926107ea575b50508160011b916000199060031b1c19161760038301555b60808101519081516001600160401b0381116107d6576104d260048501546109ab565b601f811161078f575b506020928c601f831160011461071c5760a094909183610711575b50508160011b916000199060031b1c19161760048401555b01518051906001600160401b0382116106fd5761052e60058401546109ab565b601f81116106b8575b506020908b601f841160011461061857936005846105d7956105e599956105c99f9e9c99957fd3f3f113e99179c4f45fc8c5d7091a8b5fb5556ed07e731c8784e0b3948b1b479e9c999261060d575b50508160011b916000199060031b1c1916179101555b6001549a8b9a604051998a9960018060a01b03168a523360208b015260a060408b015260a08a0191610ba3565b918783036060890152610ba3565b918483036080860152610ba3565b0390a2600181018091116105f95760015580f35b634e487b7160e01b82526011600452602482fd5b015190503880610586565b5090600584018c5260208c20918c5b601f19851681106106a057509360056001856105e599956105c99f9e9c99957fd3f3f113e99179c4f45fc8c5d7091a8b5fb5556ed07e731c8784e0b3948b1b479e9c996105d799601f19811610610687575b505050811b0191015561059c565b015160001960f88460031b161c19169055388080610679565b91926020600181928685015181550194019201610627565b600584018c5260208c20601f840160051c8101602085106106f6575b8d601f840160051c830182106106ec57505050610537565b81556001016106d4565b50806106d4565b634e487b7160e01b8b52604160045260248bfd5b0151905038806104f6565b50909192600485018d5260208d20918d5b601f1985168110610777575091839160019360a09695601f1981161061075e575b505050811b01600484015561050e565b015160001960f88460031b161c1916905538808061074e565b9192602060018192868501518155019401920161072d565b600485018d5260208d20601f830160051c8101602084106107cf575b8e5b601f840160051c830182106107c4575050506104db565b81556001018e6107ad565b50806107ab565b634e487b7160e01b8c52604160045260248cfd5b015190503880610497565b9250600385018d5260208d20908d935b601f1984168510610849576001945083601f19811610610830575b505050811b0160038301556104af565b015160001960f88460031b161c19169055388080610820565b81810151835560209485019460019093019290910190610805565b909150600385018d5260208d20601f840160051c8101602085106108af575b84939291908f5b601f840160051c830182106108a157505050610481565b81558594506001018f61088a565b5080610883565b634e487b7160e01b8a52604160045260248afd5b6040513d89823e3d90fd5b8580fd5b503461009057602036600319011261009057604060209160043581526002835220541515604051908152f35b5034610090576020366003190112610090576040906004358152600260205220805461010c60018060a01b039261099d84600183015416946002830154169161098f61095360038301610a1c565b61096b600561096460048601610a1c565b9401610a1c565b9460405198899889526020890152604088015260c0606088015260c0870190610ae4565b908582036080870152610ae4565b9083820360a0850152610ae4565b90600182811c921680156109db575b60208310146109c557565b634e487b7160e01b600052602260045260246000fd5b91607f16916109ba565b90601f801991011681019081106001600160401b03821117610a0657604052565b634e487b7160e01b600052604160045260246000fd5b90604051918260008254610a2f816109ab565b90818452602094600191600181169081600014610a9f5750600114610a60575b505050610a5e925003836109e5565b565b600090815285812095935091905b818310610a87575050610a5e9350820101388080610a4f565b85548884018501529485019487945091830191610a6e565b92505050610a5e94925060ff191682840152151560051b820101388080610a4f565b60005b838110610ad45750506000910152565b8181015183820152602001610ac4565b90602091610afd81518092818552858086019101610ac1565b601f01601f1916010190565b9181601f84011215610b36578235916001600160401b038311610b365760208381860195010111610b3657565b600080fd5b602435906001600160a01b0382168203610b3657565b6001600160401b038111610a0657601f01601f191660200190565b929192610b7882610b51565b91610b8660405193846109e5565b829481845281830111610b36578281602093846000960137010152565b908060209392818452848401376000828201840152601f01601f191601019056fe60803461007457601f6104b038819003918201601f19168301916001600160401b038311848410176100795780849260209460405283398101031261007457516001600160a01b0381169081900361007457600080546001600160a01b03191691909117905560405161042090816100908239f35b600080fd5b634e487b7160e01b600052604160045260246000fdfe604060808152600436101561001357600080fd5b600090813560e01c806302a22337146102595780631535530f1461008c57634fe8446f1461004057600080fd5b3461008857602036600319011261008857610084916100799082906001600160a01b0361006b610281565b1681526001602052206102d6565b9051918291826103a1565b0390f35b5080fd5b50346100885780600319360112610088576004359067ffffffffffffffff8083116102555736602384011215610255578260040135908111610255576024368183860101116102515780356001600160a01b038181169182900361024d57865416330361020057855260019260209084825286209461010b865461029c565b601f81116101ba575b508691601f851160011461015257509183949184938895610145575b5050501b916000199060031b1c191617905580f35b0101359250388080610130565b92909184601f198116888a52858a20958a905b8983831061019e5750505010610182575b50505050811b01905580f35b60001960f88660031b161c199201013516905538808080610176565b8786018701358955909701969384019388935090810190610165565b868852828820601f860160051c8101918487106101f6575b601f0160051c019086905b8281106101eb575050610114565b8981550186906101dd565b90915081906101d2565b835162461bcd60e51b8152602060048201526021818401527f4f6e6c79206f776e65722063616e2063616c6c20746869732066756e6374696f6044820152603760f91b6064820152608490fd5b8680fd5b8480fd5b8380fd5b503461008857602036600319011261008857610084916100799082906001600160a01b0361006b5b600435906001600160a01b038216820361029757565b600080fd5b90600182811c921680156102cc575b60208310146102b657565b634e487b7160e01b600052602260045260246000fd5b91607f16916102ab565b906040519160009080546102e98161029c565b908186526020926001916001811690816000146103835750600114610347575b50505050829003601f01601f1916820167ffffffffffffffff81118382101761033157604052565b634e487b7160e01b600052604160045260246000fd5b909293506000528260002091836000935b83851061036f575050505083010138808080610309565b805488860183015293019284908201610358565b60ff191688860152505050151560051b840101905038808080610309565b6020808252825181830181905290939260005b8281106103d657505060409293506000838284010152601f8019910116010190565b8181018601518482016040015285016103b456fea2646970667358221220a1911dd4bcab15278556c1946972989ee04fd46405aead5618e9779f08e86e6d64736f6c63430008180033a2646970667358221220e22600abbf25ab2af70577640485e06328dbfc7b6f7b97b4c11776fb49010abe64736f6c63430008180033",
  "linkReferences": {},
  "deployedLinkReferences": {}
}