{
  "_format": "hh-sol-artifact-1",
  "contractName": "SpinZKGameContract",
  "sourceName": "contracts/game_zk/GameContract.sol",
  "abi": [
    {
      "inputs": [
        {
          "internalType": "address",
          "name": "verifier_address",
          "type": "address"
        }
      ],
      "stateMutability": "nonpayable",
      "type": "constructor"
    },
    {
      "anonymous": false,
      "inputs": [
        {
          "indexed": true,
          "internalType": "uint256",
          "name": "gameId",
          "type": "uint256"
        },
        {
          "indexed": true,
          "internalType": "address",
          "name": "playerAddress",
          "type": "address"
        },
        {
          "indexed": false,
          "internalType": "uint64[4]",
          "name": "metaTransactionHashFromOnChain",
          "type": "uint64[4]"
        }
      ],
      "name": "GameSubmission",
      "type": "event"
    },
    {
      "inputs": [
        {
          "internalType": "uint64",
          "name": "input",
          "type": "uint64"
        }
      ],
      "name": "_reverseBytes",
      "outputs": [
        {
          "internalType": "uint64",
          "name": "",
          "type": "uint64"
        }
      ],
      "stateMutability": "pure",
      "type": "function"
    },
    {
      "inputs": [
        {
          "internalType": "uint64[4]",
          "name": "a",
          "type": "uint64[4]"
        },
        {
          "internalType": "uint64[4]",
          "name": "b",
          "type": "uint64[4]"
        }
      ],
      "name": "equalUintArrays",
      "outputs": [
        {
          "internalType": "bool",
          "name": "",
          "type": "bool"
        }
      ],
      "stateMutability": "pure",
      "type": "function"
    },
    {
      "inputs": [],
      "name": "getRegistryContract",
      "outputs": [
        {
          "internalType": "address",
          "name": "",
          "type": "address"
        }
      ],
      "stateMutability": "view",
      "type": "function"
    },
    {
      "inputs": [],
      "name": "getVerifierContract",
      "outputs": [
        {
          "internalType": "address",
          "name": "",
          "type": "address"
        }
      ],
      "stateMutability": "view",
      "type": "function"
    },
    {
      "inputs": [
        {
          "internalType": "bytes32",
          "name": "data",
          "type": "bytes32"
        }
      ],
      "name": "hashBytes32ToUint64Array",
      "outputs": [
        {
          "internalType": "uint64[4]",
          "name": "",
          "type": "uint64[4]"
        }
      ],
      "stateMutability": "pure",
      "type": "function"
    },
    {
      "inputs": [],
      "name": "owner",
      "outputs": [
        {
          "internalType": "address",
          "name": "",
          "type": "address"
        }
      ],
      "stateMutability": "view",
      "type": "function"
    },
    {
      "inputs": [
        {
          "internalType": "uint256[3]",
          "name": "addressParts",
          "type": "uint256[3]"
        }
      ],
      "name": "parseAddress",
      "outputs": [
        {
          "internalType": "address",
          "name": "",
          "type": "address"
        }
      ],
      "stateMutability": "pure",
      "type": "function"
    },
    {
      "inputs": [
        {
          "internalType": "uint256[][]",
          "name": "instances",
          "type": "uint256[][]"
        }
      ],
      "name": "parseProofInstances",
      "outputs": [
        {
          "internalType": "uint64[4]",
          "name": "metaDataHash",
          "type": "uint64[4]"
        },
        {
          "internalType": "uint64[4]",
          "name": "endGameStateHash",
          "type": "uint64[4]"
        }
      ],
      "stateMutability": "pure",
      "type": "function"
    },
    {
      "inputs": [],
      "name": "registryContract",
      "outputs": [
        {
          "internalType": "contract SpinGameRegistryContract",
          "name": "",
          "type": "address"
        }
      ],
      "stateMutability": "view",
      "type": "function"
    },
    {
      "inputs": [
        {
          "internalType": "address",
          "name": "new_owner",
          "type": "address"
        }
      ],
      "name": "setOwner",
      "outputs": [],
      "stateMutability": "nonpayable",
      "type": "function"
    },
    {
      "inputs": [
        {
          "internalType": "address",
          "name": "verifier_address",
          "type": "address"
        }
      ],
      "name": "setVerifier",
      "outputs": [],
      "stateMutability": "nonpayable",
      "type": "function"
    },
    {
      "inputs": [
        {
          "internalType": "uint256",
          "name": "gameId",
          "type": "uint256"
        },
        {
          "internalType": "bytes",
          "name": "finalState",
          "type": "bytes"
        },
        {
          "internalType": "uint64[4]",
          "name": "playerInputStateHash",
          "type": "uint64[4]"
        },
        {
          "internalType": "uint256[]",
          "name": "proof",
          "type": "uint256[]"
        },
        {
          "internalType": "uint256[]",
          "name": "verify_instance",
          "type": "uint256[]"
        },
        {
          "internalType": "uint256[]",
          "name": "aux",
          "type": "uint256[]"
        },
        {
          "internalType": "uint256[][]",
          "name": "instances",
          "type": "uint256[][]"
        }
      ],
      "name": "submitGame",
      "outputs": [],
      "stateMutability": "nonpayable",
      "type": "function"
    },
    {
      "inputs": [],
      "name": "verifier",
      "outputs": [
        {
          "internalType": "contract IZKVerifier",
          "name": "",
          "type": "address"
        }
      ],
      "stateMutability": "view",
      "type": "function"
    }
  ],
  "bytecode": "0x6080346100dc576001600160401b0390601f6123c738819003918201601f1916830191848311848410176100c6578084926020946040528339810103126100dc57516001600160a01b038082169290918390036100dc5760018060a01b031992338460025416176002558360015416176001556040519061126380830191838310908311176100c657602091839161116483393081520301906000f080156100ba571690600054161760005560405161108290816100e28239f35b6040513d6000823e3d90fd5b634e487b7160e01b600052604160045260246000fd5b600080fdfe6080604052600436101561001257600080fd5b6000803560e01c806313af403514610bc257806328c1f99b14610b355780632b7ac3f314610b995780632bdd45b914610b5c57806336ca3d7314610b3557806337e87d5714610b095780634a00ac6914610aad5780635437988d14610a5f5780637189997e146109aa5780638427fe8e146108f2578063892ff0e5146101005780638da5cb5b146100d75763a74a0434146100ac57600080fd5b346100d457806003193601126100d4576001546040516001600160a01b039091168152602090f35b80fd5b50346100d457806003193601126100d4576002546040516001600160a01b039091168152602090f35b50346100d4576101403660031901126100d4576001600160401b03602435116100d4573660236024350112156100d4576001600160401b0360243560040135116100d45736602480356004013581350101116100d45736606312156100d45760405161016b81610c98565b60c48136821161065f576044905b8282106108da5750505060c4356001600160401b0381116108d6576101a2903690600401610c55565b60e4356001600160401b0381116108d2576101c1903690600401610c55565b91610104356001600160401b038111610677576101e2903690600401610c55565b929093610124356001600160401b0381116108ce57610205903690600401610c55565b95909460018060a01b038a54169760405163f3a0057560e01b815260043560048201526060816024818d5afa9081156108c3578c9161084f575b508051610722575b506001546001600160a01b031694853b1561071e57916102a06102b2938d979593989661028e6040519a8b9963ae022ccd60e01b8b52608060048c015260848b0191611028565b8881036003190160248a015291611028565b85810360031901604487015291611028565b600319838203016064840152868152602081019060208860051b820101918791865b8a81106106ae575050505082809103915afa80156106a35761068c575b50906102fc91610e9e565b509160405163d296306360e01b81526004356004820152336024820152848082604481875afa91821561067f5781926105c1575b5061034a6020928360405192828480945193849201611005565b8101039060025afa156105b6576103618451610dd2565b608060405161036f81610c98565b3690376001600160401b03815116906001600160401b03602082015116926001600160401b03606081604085015116930151166001600160401b038251166001600160401b03602084015116916001600160401b036060816040870151169501511694604051976020890197600435895260408a01526060890152608088015260a087015260c086015260e08501526101008401526101209081840152825261014082018281106001600160401b038211176105a0576020928161043c8894826040528351928391611005565b8101039060025afa156105345761045d6104568451610dd2565b9283610fb7565b1561053f578083913b156105305781604051809263604ffaeb60e11b8252600435600483015233602483015260606044830152602435600401356064830152602435600401356024803501608484013782608460243560040135840101528183608482601f19601f60243560040135011681010301925af180156105345761051c575b50506104ef6040518092610c24565b33907f4689d5a4a7067603e6ddcaa845fa9fe59ab7907b4d0fe1ca8e13e7f9b9dc5da8608060043592a380f35b61052590610c85565b6105305781386104e0565b5080fd5b6040513d84823e3d90fd5b60405162461bcd60e51b815260206004820152603360248201527f537461727420737461746520646f6573206e6f74206d61746368207375626d696044820152727373696f6e2c206e6f206368616c6c656e676560681b6064820152608490fd5b634e487b7160e01b600052604160045260246000fd5b6040513d85823e3d90fd5b9150503d908186823e6105d48282610cce565b602081838101031261067b578051916001600160401b03831161067757808201601f8484010112156106775782820151926001600160401b03841161066357908792916040519161062f6020601f19601f8901160184610cce565b858352830160208683860101011161065f5760209461034a938661065893818601920101611005565b9250610330565b8380fd5b634e487b7160e01b88526041600452602488fd5b8680fd5b8580fd5b50604051903d90823e3d90fd5b9461069b6102fc939296610c85565b9490916102f1565b6040513d88823e3d90fd5b9295509290939550601f198382030184528435601e198936030181121561071a57880190602082359201916001600160401b038111610716578060051b36038313610716576107036020928392600195611028565b960194019101908694928c9694926102d4565b8d80fd5b8c80fd5b8b80fd5b84600110156107b157805160208701350361080a5784600210156107b15760208101516040870135036107c55784600310156107b1576040015160608601350361076c5738610247565b60405162461bcd60e51b815260206004820152601a60248201527f496e76616c696420696d61676520636f6d6d69746d656e7420320000000000006044820152606490fd5b634e487b7160e01b8c52603260045260248cfd5b60405162461bcd60e51b815260206004820152601a60248201527f496e76616c696420696d61676520636f6d6d69746d656e7420310000000000006044820152606490fd5b60405162461bcd60e51b815260206004820152601a60248201527f496e76616c696420696d61676520636f6d6d69746d656e7420300000000000006044820152606490fd5b905060603d6060116108bc575b6108668183610cce565b81019060608183031261071a5781601f8201121561071a576040519161088b83610cb3565b829060608301116107165781905b6060830182106108ac575050503861023f565b8151815260209182019101610899565b503d61085c565b6040513d8e823e3d90fd5b8880fd5b8480fd5b8280fd5b602080916108e784610c0b565b815201910190610179565b50346100d45760603660031901126100d45736602312156100d45760405161091981610cb3565b60648136821161065f57602093506004905b82821061099b575050506001600160401b0363ffffffff61096b61095183855116610d45565b926040610962828888015116610d45565b95015116610d45565b916bffffffffffffffff0000000060405194861b16906001600160401b0360601b9060601b161791841c16178152f35b8135815290840190840161092b565b50346100d4576101003660031901126100d45736602312156100d4576040516109d281610c98565b60848136821161065f576004905b828210610a47575050503660a31215610530576040516109ff81610c98565b61010491813684116108d257602094506084905b848210610a30575050610a269250610fb7565b6040519015158152f35b858091610a3c84610c0b565b815201910190610a13565b60208091610a5484610c0b565b8152019101906109e0565b50346100d45760203660031901126100d4576004356001600160a01b03818116918290036108d657610a9690600254163314610cef565b600180546001600160a01b03191691909117905580f35b50346100d45760203660031901126100d457600435906001600160401b0382116100d457610100610b07610aed610ae73660048701610c55565b90610e9e565b610afd6040939293518094610c24565b6080830190610c24565bf35b50346100d45760203660031901126100d4576080610b28600435610dd2565b610b076040518092610c24565b50346100d457806003193601126100d457546040516001600160a01b039091168152602090f35b50346100d45760203660031901126100d457600435906001600160401b039081831683036100d45750610b90602092610d45565b60405191168152f35b50346100d457806003193601126100d4576001546040516001600160a01b039091168152602090f35b50346100d45760203660031901126100d4576004356001600160a01b03818116918290036108d657610bfa6002549182163314610cef565b6001600160a01b0319161760025580f35b35906001600160401b0382168203610c1f57565b600080fd5b6000915b60048310610c3557505050565b6001906001600160401b0383511681526020809101920192019190610c28565b9181601f84011215610c1f578235916001600160401b038311610c1f576020808501948460051b010111610c1f57565b6001600160401b0381116105a057604052565b608081019081106001600160401b038211176105a057604052565b606081019081106001600160401b038211176105a057604052565b90601f801991011681019081106001600160401b038211176105a057604052565b15610cf657565b60405162461bcd60e51b815260206004820152602160248201527f4f6e6c79206f776e65722063616e2063616c6c20746869732066756e6374696f6044820152603760f91b6064820152608490fd5b600091825b600880851015610da4576001600160fd1b0385168503610d8e5767ffffffffffffff0060019260ff6001600160401b0387168860031b1c16921b1617930192610d4a565b634e487b7160e01b600052601160045260246000fd5b5092509050565b906004811015610dbc5760051b0190565b634e487b7160e01b600052603260045260246000fd5b9060406080604051610de381610c98565b36903760405190610df382610c98565b608036833760005b600480821015610e59578160061b90828204841483151715610e445760c0918203918211610e445750906001600160401b03866001931c16610e3d8286610dab565b5201610dfb565b601190634e487b7160e01b6000525260246000fd5b509193505050565b9015610dbc57803590601e1981360301821215610c1f5701908135916001600160401b038311610c1f576020018260051b36038113610c1f579190565b9160405192610eac84610c98565b60803685378360405191610ebf83610c98565b60803684378294610ed08183610e61565b93909315610dbc576001600160401b03809435168152610ef08284610e61565b60011015610dbc57602085910135166020820152610f0e8284610e61565b60021015610dbc57604085910135166040820152610f2c8284610e61565b60031015610dbc578460608092013516910152610f498183610e61565b60041015610dbc576080013583168452610f638183610e61565b60051015610dbc5760a0013583166020850152610f808183610e61565b60069391931015610dbc578360c0610f9f940135166040860152610e61565b60079291921015610dbc5760e0606092013516910152565b9060009060005b60048110610fcf5750505050600190565b6001600160401b0380610fe28387610dab565b511690610fef8385610dab565b511603610ffe57600101610fbe565b5050905090565b60005b8381106110185750506000910152565b8181015183820152602001611008565b81835290916001600160fb1b038311610c1f5760209260051b80928483013701019056fea2646970667358221220cc03ed68f44347e51c2987c49995cbfeefd66325980927e2ffdbbb1d6002702364736f6c6343000818003360803461007857601f61126338819003918201601f19168301916001600160401b0383118484101761007d5780849260209460405283398101031261007857516001600160a01b038116908190036100785760018055600080546001600160a01b0319169190911790556040516111cf90816100948239f35b600080fd5b634e487b7160e01b600052604160045260246000fdfe608080604052600436101561001357600080fd5b600090813560e01c908162218d7c1461046d57508063117a5b90146103c7578063382d38821461039b578063b135bbb01461037d578063c09ff5d614610240578063d296306314610137578063d3f33009146101105763f3a005751461007857600080fd5b3461010d576020806003193601126101095790606060405161009981610b0a565b369037600435815260026020526002604082200191604051928383905b600382106100f3575050506100ca83610b0a565b6040519291835b600382106100de57606085f35b828060019286518152019401910190926100d1565b82548152600192830192919091019083016100b6565b5080fd5b80fd5b503461010d578060031936011261010d57546040516001600160a01b039091168152602090f35b503461010d57604036600319011261010d57610151610c49565b6004358252602090600282528260018060a01b03602481600160408520015416936040519485938492634fe8446f60e01b84521660048301525afa9283156102345780936101b4575b50506101b0604051928284938452830190610c24565b0390f35b909192503d8082843e6101c78184610b3b565b8201918381840312610109578051906001600160401b038211610230570182601f82011215610109578051916101fc83610c5f565b9361020a6040519586610b3b565b83855285848401011161010d57509061022891848085019101610c01565b90388061019a565b8280fd5b604051903d90823e3d90fd5b503461010d57606036600319011261010d5761025a610c49565b6001600160401b036044358181116103795761027a903690600401610a9e565b84546001600160a01b03949085163303610322578592600435845260026020528560016040862001541691823b1561031e576102d793859160405198899687958694631535530f60e01b8652604060048701526044860191610cc8565b9116602483015203925af18015610313576102f0578280f35b81116102ff5760405238808280f35b634e487b7160e01b82526041600452602482fd5b6040513d85823e3d90fd5b8480fd5b60405162461bcd60e51b815260206004820152602960248201527f4f6e6c792067616d6520636f6e74726163742063616e2063616c6c207468697360448201526810333ab731ba34b7b760b91b6064820152608490fd5b8380fd5b503461010d578060031936011261010d576020600154604051908152f35b503461010d57602036600319011261010d57604060209160043581526002835220541515604051908152f35b503461010d57602036600319011261010d57604090600435815260026020522080546101b060018060a01b039261045f84600183015416946005830154169161045161041560068301610b5c565b61042d600861042660078601610b5c565b9401610b5c565b9460405198899889526020890152604088015260c0606088015260c0870190610c24565b908582036080870152610c24565b9083820360a0850152610c24565b9050346101095760c03660031901126101095736606411610109576064356001600160401b038111610230576104a7903690600401610a9e565b90916084356001600160401b03811161031e576104c8903690600401610a9e565b919060a4356001600160401b038111610a9a576104e9903690600401610a9e565b9190926104b0808201908282106001600160401b03831117610a7b576020918391610cea833930815203019088f0938415610a8f576001546040518060e08101106001600160401b0360e083011117610a7b5760e0810160409081528282526001600160a01b0388166020830152519161056283610b0a565b6004835b60648210610a6b57505060408201928352336060830152610588368a8c610c7a565b6080830152610598368587610c7a565b60a08301526105a8368789610c7a565b60c08301528a526002602090815260408b2082518155908201516001820180546001600160a01b0319166001600160a01b039290921691909117905591518a5b60038110610a5457505060608101516005830180546001600160a01b0319166001600160a01b039290921691909117905560808101518051906001600160401b0382116109935781908c61063f6006870154610ad0565b601f8111610a21575b5050602090601f83116001146109b2578d926109a7575b50508160011b916000199060031b1c19161760068301555b60a08101519081516001600160401b038111610993578b61069b6007860154610ad0565b601f8111610960575b50506020928c601f83116001146108ed5760c0949091836108e2575b50508160011b916000199060031b1c19161760078401555b01518051906001600160401b0382116108ce576106f86008840154610ad0565b601f8111610890575b506020908b601f84116001146107f057936008846107af956107bd99956107a19f9e9c99957f1c89d1b32ffa483287a960141c99b4a26287008b18903c257073f80eb961bd5c9e9c99926107e5575b50508160011b916000199060031b1c1916179101555b6001546040516001600160a01b0390981688529a8b9a97988998906101006060600460208d01373360808c01528060a08c01528a0191610cc8565b9187830360c0890152610cc8565b9184830360e0860152610cc8565b0390a2600181018091116107d15760015580f35b634e487b7160e01b82526011600452602482fd5b015190503880610750565b5090600884018c5260208c20918c5b601f198516811061087857509360086001856107bd99956107a19f9e9c99957f1c89d1b32ffa483287a960141c99b4a26287008b18903c257073f80eb961bd5c9e9c996107af99601f1981161061085f575b505050811b01910155610766565b015160001960f88460031b161c19169055388080610851565b919260206001819286850151815501940192016107ff565b6108be90600885018d5260208d20601f850160051c810191602086106108c4575b601f0160051c0190610cb1565b38610701565b90915081906108b1565b634e487b7160e01b8b52604160045260248bfd5b0151905038806106c0565b50909192600785018d5260208d20918d5b601f1985168110610948575091839160019360c09695601f1981161061092f575b505050811b0160078401556106d8565b015160001960f88460031b161c1916905538808061091f565b919260206001819286850151815501940192016108fe565b602061098c9260078801815220601f840160051c810191602085106108c457601f0160051c0190610cb1565b8b386106a4565b634e487b7160e01b8c52604160045260248cfd5b01519050388061065f565b9250600685018d5260208d20908d935b601f1984168510610a06576001945083601f198116106109ed575b505050811b016006830155610677565b015160001960f88460031b161c191690553880806109dd565b818101518355602094850194600190930192909101906109c2565b6020610a4d9260068901815220601f850160051c810191602086106108c457601f0160051c0190610cb1565b8c38610648565b6001906020835193019260028287010155016105e8565b8135815260209182019101610566565b634e487b7160e01b8a52604160045260248afd5b6040513d89823e3d90fd5b8680fd5b9181601f84011215610acb578235916001600160401b038311610acb5760208381860195010111610acb57565b600080fd5b90600182811c92168015610b00575b6020831014610aea57565b634e487b7160e01b600052602260045260246000fd5b91607f1691610adf565b606081019081106001600160401b03821117610b2557604052565b634e487b7160e01b600052604160045260246000fd5b90601f801991011681019081106001600160401b03821117610b2557604052565b90604051918260008254610b6f81610ad0565b90818452602094600191600181169081600014610bdf5750600114610ba0575b505050610b9e92500383610b3b565b565b600090815285812095935091905b818310610bc7575050610b9e9350820101388080610b8f565b85548884018501529485019487945091830191610bae565b92505050610b9e94925060ff191682840152151560051b820101388080610b8f565b60005b838110610c145750506000910152565b8181015183820152602001610c04565b90602091610c3d81518092818552858086019101610c01565b601f01601f1916010190565b602435906001600160a01b0382168203610acb57565b6001600160401b038111610b2557601f01601f191660200190565b929192610c8682610c5f565b91610c946040519384610b3b565b829481845281830111610acb578281602093846000960137010152565b818110610cbc575050565b60008155600101610cb1565b908060209392818452848401376000828201840152601f01601f191601019056fe60803461007457601f6104b038819003918201601f19168301916001600160401b038311848410176100795780849260209460405283398101031261007457516001600160a01b0381169081900361007457600080546001600160a01b03191691909117905560405161042090816100908239f35b600080fd5b634e487b7160e01b600052604160045260246000fdfe604060808152600436101561001357600080fd5b600090813560e01c806302a22337146102595780631535530f1461008c57634fe8446f1461004057600080fd5b3461008857602036600319011261008857610084916100799082906001600160a01b0361006b610281565b1681526001602052206102d6565b9051918291826103a1565b0390f35b5080fd5b50346100885780600319360112610088576004359067ffffffffffffffff8083116102555736602384011215610255578260040135908111610255576024368183860101116102515780356001600160a01b038181169182900361024d57865416330361020057855260019260209084825286209461010b865461029c565b601f81116101ba575b508691601f851160011461015257509183949184938895610145575b5050501b916000199060031b1c191617905580f35b0101359250388080610130565b92909184601f198116888a52858a20958a905b8983831061019e5750505010610182575b50505050811b01905580f35b60001960f88660031b161c199201013516905538808080610176565b8786018701358955909701969384019388935090810190610165565b868852828820601f860160051c8101918487106101f6575b601f0160051c019086905b8281106101eb575050610114565b8981550186906101dd565b90915081906101d2565b835162461bcd60e51b8152602060048201526021818401527f4f6e6c79206f776e65722063616e2063616c6c20746869732066756e6374696f6044820152603760f91b6064820152608490fd5b8680fd5b8480fd5b8380fd5b503461008857602036600319011261008857610084916100799082906001600160a01b0361006b5b600435906001600160a01b038216820361029757565b600080fd5b90600182811c921680156102cc575b60208310146102b657565b634e487b7160e01b600052602260045260246000fd5b91607f16916102ab565b906040519160009080546102e98161029c565b908186526020926001916001811690816000146103835750600114610347575b50505050829003601f01601f1916820167ffffffffffffffff81118382101761033157604052565b634e487b7160e01b600052604160045260246000fd5b909293506000528260002091836000935b83851061036f575050505083010138808080610309565b805488860183015293019284908201610358565b60ff191688860152505050151560051b840101905038808080610309565b6020808252825181830181905290939260005b8281106103d657505060409293506000838284010152601f8019910116010190565b8181018601518482016040015285016103b456fea2646970667358221220a1911dd4bcab15278556c1946972989ee04fd46405aead5618e9779f08e86e6d64736f6c63430008180033a264697066735822122094be36bce0a05e6cff9a12777249609eec55222b68c4e114dc1e1c56a426b2df64736f6c63430008180033",
  "linkReferences": {},
  "deployedLinkReferences": {}
}