{
  "_format": "hh-sol-artifact-1",
  "contractName": "AggregatorVerifierCoreStep1",
  "sourceName": "contracts/shared/zkwasm_verifier/AggregatorVerifierStep1.sol",
  "abi": [
    {
      "inputs": [
        {
          "internalType": "uint256[]",
          "name": "transcript",
          "type": "uint256[]"
        },
        {
          "internalType": "uint256[]",
          "name": "aux",
          "type": "uint256[]"
        },
        {
          "internalType": "uint256[]",
          "name": "buf",
          "type": "uint256[]"
        }
      ],
      "name": "verify_proof",
      "outputs": [
        {
          "internalType": "uint256[]",
          "name": "",
          "type": "uint256[]"
        }
      ],
      "stateMutability": "view",
      "type": "function"
    }
  ],
  "bytecode": "0x6080806040523461001657612bbe908161001c8239f35b600080fdfe6080604052600436101561001257600080fd5b6000803560e01c63966751901461002857600080fd5b346100fe5760603660031901126100fe5767ffffffffffffffff9060043582811161010a5761005b90369060040161010e565b6024929192358481116101065761007690369060040161010e565b939092604435908682116100fe57366023830112156100fe578160040135968711610101578660051b602092602460206100b181850161019a565b809b81520192820101923684116100fe5750602401905b8282106100ef576100eb6100df8a8a8a8a8a61090e565b604051918291826101c0565b0390f35b813581529083019083016100c8565b80fd5b610144565b8280fd5b5080fd5b9181601f8401121561013f5782359167ffffffffffffffff831161013f576020808501948460051b01011161013f57565b600080fd5b634e487b7160e01b600052604160045260246000fd5b6040519060c0820182811067ffffffffffffffff82111761010157604052565b604051906020820182811067ffffffffffffffff82111761010157604052565b6040519190601f01601f1916820167ffffffffffffffff81118382101761010157604052565b602090602060408183019282815285518094520193019160005b8281106101e8575050505090565b8351855293810193928101926001016101da565b634e487b7160e01b600052603260045260246000fd5b906066101561022257610cc00190565b6101fc565b906067101561022257610ce00190565b90156102225790565b90600110156102225760200190565b90600210156102225760400190565b90600310156102225760600190565b90600410156102225760800190565b90600510156102225760a00190565b906051101561022257610a200190565b90604f1015610222576109e00190565b906050101561022257610a000190565b906054101561022257610a800190565b906052101561022257610a400190565b906053101561022257610a600190565b906057101561022257610ae00190565b906055101561022257610aa00190565b906056101561022257610ac00190565b90600610156102225760c00190565b90600710156102225760e00190565b90605d101561022257610ba00190565b90605c101561022257610b800190565b906062101561022257610c400190565b906061101561022257610c200190565b9060081015610222576101000190565b90602c1015610222576105800190565b90602d1015610222576105a00190565b90602e1015610222576105c00190565b90602f1015610222576105e00190565b9060301015610222576106000190565b9060331015610222576106600190565b90605e101561022257610bc00190565b906063101561022257610c600190565b90603a1015610222576107400190565b90603b1015610222576107600190565b90603c1015610222576107800190565b90603d1015610222576107a00190565b90603e1015610222576107c00190565b90603f1015610222576107e00190565b9060401015610222576108000190565b9060411015610222576108200190565b9060421015610222576108400190565b9060431015610222576108600190565b9060441015610222576108800190565b9060451015610222576108a00190565b9060461015610222576108c00190565b9060481015610222576109000190565b9060491015610222576109200190565b90604a1015610222576109400190565b90604b1015610222576109600190565b90604c1015610222576109800190565b90604d1015610222576109a00190565b90604e1015610222576109c00190565b9060321015610222576106400190565b9060311015610222576106200190565b9060341015610222576106800190565b9060351015610222576106a00190565b9060361015610222576106c00190565b9060371015610222576106e00190565b9060381015610222576107000190565b9060391015610222576107200190565b9060091015610222576101200190565b90600a1015610222576101400190565b906058101561022257610b000190565b90600b1015610222576101600190565b90600c1015610222576101800190565b90600d1015610222576101a00190565b90600e1015610222576101c00190565b90600f1015610222576101e00190565b906059101561022257610b200190565b90605a101561022257610b400190565b8051600b1015610222576101800190565b8051600a1015610222576101600190565b8051600c1015610222576101a00190565b8051600610156102225760e00190565b805160111015610222576102400190565b805160121015610222576102600190565b805160131015610222576102800190565b805160141015610222576102a00190565b805160151015610222576102c00190565b805160161015610222576102e00190565b805160171015610222576103000190565b805160181015610222576103200190565b805160191015610222576103400190565b8051601a1015610222576103600190565b8051601b1015610222576103800190565b8051601c1015610222576103a00190565b8051601d1015610222576103c00190565b8051601e1015610222576103e00190565b8051601f1015610222576104000190565b805160201015610222576104200190565b805160091015610222576101400190565b805160211015610222576104400190565b805160071015610222576101000190565b805160221015610222576104600190565b805160231015610222576104800190565b805160241015610222576104a00190565b805160251015610222576104c00190565b805160261015610222576104e00190565b8051600510156102225760c00190565b8051600410156102225760a00190565b8051600310156102225760800190565b805160271015610222576105000190565b805160281015610222576105200190565b805160291015610222576105400190565b8051602a1015610222576105600190565b8051600210156102225760600190565b634e487b7160e01b600052601160045260246000fd5b90600080516020612b498339815191529182039182116108fa57565b6108c8565b605f198101919082116108fa57565b84819261091b8184610212565b356109268285610227565b3561093084610669565b5261093a8361067a565b526109448261068b565b6001905261095182612884565b600080516020612b49833981519152808097818098818098818981610976819c61069c565b517f2fffa2b50d66f628412d9782f09d3386d766a1168304babe2165fe7ec962e65b096109a2826106ac565b52816109ad826106ac565b516109b78361069c565b516109c1906108de565b90086109cd8887610237565b356109d7916128fc565b6109e0826106bd565b52816109eb8261069c565b517f1283ba6f4b7b1a76ba2008fe823128bea4adb9269cbfd7c41c223be65bc6086309610a17826106ce565b5281610a22826106ac565b51610a2c836106ce565b51610a36906108de565b9008610a428887610240565b35610a4c916128fc565b610a55826106df565b5281610a60826106bd565b51610a6a836106df565b519009610a76826106f0565b5281610a818261069c565b51610a8b836106ac565b51610a95906108de565b9008610aa1888761024f565b35610aab916128fc565b610ab482610701565b5281610abf8261069c565b51610ac9836106ce565b51610ad3906108de565b9008610adf888761025e565b35610ae9916128fc565b610af282610712565b5281610afd82610701565b51610b0783610712565b519009610b1382610723565b5281610b1e826106ce565b51610b28836106ac565b51610b32906108de565b9008610b3e888761026d565b35610b48916128fc565b610b5182610734565b5281610b5c826106ce565b51610b668361069c565b51610b70906108de565b9008610b7c888761027c565b35610b86916128fc565b610b8f82610745565b5281610b9a82610734565b51610ba483610745565b519009610bb082610756565b5281610bbb826106bd565b51610bc58361069c565b519009610bd1906108de565b610bda82610767565b5281610be5826106df565b51610bef836106ce565b519009610bfb82610778565b528180610c0783610767565b51610c11846106df565b51900981610c1e846106bd565b51610c2885610778565b519009610c34906108de565b9008610c3f826106bd565b5281610c4a82610701565b51610c54836106ac565b519009610c60906108de565b610c69826106df565b5281610c7482610712565b51610c7e836106ce565b519009610c8a82610789565b528180610c96836106df565b51610ca084610712565b51900981610cad84610701565b51610cb785610789565b519009610cc3906108de565b9008610cce82610701565b5281610cd982610734565b51610ce3836106ac565b519009610cef906108de565b610cf88261079a565b5281610d0382610745565b51610d0d8361069c565b519009610d19826107ab565b528180610d258361079a565b51610d2f84610745565b51900981610d3c84610734565b51610d46856107ab565b519009610d52906108de565b9008610d5d82610734565b528180808c818080610d6e886106f0565b51610d79858c61028b565b35900981610d8689610723565b51610d91868d61029b565b359009900891610da087610756565b5190610dac908a6102ab565b3590099008610dba846107bc565b519009818c818080610dcb886106bd565b51610dd6858c61028b565b35900981610de389610701565b51610dee868d61029b565b359009900891610dfd87610734565b5190610e09908a6102ab565b35900990089008610e19826107cd565b5281610e2482610767565b51610e2e83610778565b519009610e3a906108de565b610e4382610767565b5281610e4e826106df565b51610e5883610789565b519009610e64906108de565b610e6d826106df565b5281610e788261079a565b51610e82836107ab565b519009610e8e906108de565b610e9782610778565b5281610ea2826107de565b51818c8180610eb0876107cd565b51610eba886107bc565b51900991818080838c610ecc8c610767565b5191610ed79161028b565b35900981848d610ee68d6106df565b5191610ef19161029b565b359009900891610f0089610778565b5190610f0c908c6102ab565b359009900890089009610f1e8261079a565b528180808c818080610f2f886106f0565b51610f3a858c6102bb565b35900981610f4789610723565b51610f52868d6102cb565b359009900891610f6187610756565b5190610f6d908a6102db565b3590099008610f7b846107bc565b519009818c818080610f8c886106bd565b51610f97858c6102bb565b35900981610fa489610701565b51610faf868d6102cb565b359009900891610fbe87610734565b5190610fca908a6102db565b35900990089008610fda826107cd565b5281610fe58261079a565b51818c8180610ff3876107cd565b51610ffd886107bc565b51900991818080838c61100f8c610767565b519161101a916102bb565b35900981848d6110298d6106df565b5191611034916102cb565b35900990089161104389610778565b519061104f908c6102db565b3590099008900890086110618261079a565b528180808c818080611072886106f0565b5161107d858c6102eb565b3590098161108a89610723565b51611095868d6102fb565b3590099008916110a487610756565b51906110b0908a61030b565b35900990086110be846107bc565b519009818c8180806110cf886106bd565b516110da858c6102eb565b359009816110e789610701565b516110f2868d6102fb565b35900990089161110187610734565b519061110d908a61030b565b3590099008900861111d826106bd565b528180611129836107de565b516111338461079a565b519009818c8180611143876106bd565b5161114d886107bc565b51900991818080838c61115f8c610767565b519161116a916102eb565b35900981848d6111798d6106df565b5191611184916102fb565b35900990089161119389610778565b519061119f908c61030b565b3590099008900890086111b1826106bd565b52816111bc8261069c565b517f1589862c1cf3f8b59954774980cc9361c568bcabd9cb7d0858de685794d4772b096111e8826106df565b52816111f3826106df565b516111fd8361069c565b51611207906108de565b9008611213888761031b565b3561121d916128fc565b611226826106f0565b52816112318261069c565b5161123b836106df565b51611245906108de565b9008611251888761032a565b3561125b916128fc565b61126482610701565b528161126f826106f0565b516112798361069c565b519009611285906108de565b61128e82610723565b528161129982610701565b516112a3836106df565b5190096112af906108de565b6112b882610734565b52816112c3826107de565b51818c818080806112d3896106f0565b516112de868d610339565b35900981858c6112ed8c610701565b51916112f891610349565b3590099008611306886107bc565b51900991818061131589610723565b51611320848d610339565b3590099161132d89610734565b5190611339908c610349565b35900990089008900961134b82610756565b528161135682610756565b51818c81808080611366896106f0565b51611371868d610359565b35900981858c6113808c610701565b519161138b91610369565b3590099008611399886107bc565b5190099181806113a889610723565b516113b3848d610359565b359009916113c089610734565b51906113cc908c610369565b3590099008900890086113de826106f0565b52816113e9826107bc565b516113f3836106ac565b516113fd906108de565b9008611408826106ac565b5281611413826107bc565b5161141d836106ce565b51611427906108de565b900861143282610701565b528161143d8261069c565b517f18c95f1ae6514e11a1b30fd7923947c5ffcec5347f16e91b4dd654168326bede0961146982610723565b5281611474826107bc565b5161147e83610723565b51611488906108de565b900861149382610734565b528161149e826107bc565b516114a8836106df565b516114b2906108de565b90086114bd826106df565b52816114c8826106df565b516114d283610734565b5190096114df8887610379565b356114e9916128fc565b6114f282610756565b528180806114ff846106ac565b5161150985610701565b51900961151584610734565b51900961152183610756565b51900961152d82610767565b5281611538826107de565b51818c81611545866107de565b518180611551896107de565b5161155c868d610389565b359009611569858c610399565b35900890099061157990886103a9565b359008900961158782610778565b528180611593836107de565b51818d816115a0876107de565b51816115ab89610778565b516115b6858d6103b9565b3590089009906115c690896103c9565b35900890096115d58c866103d9565b3590086115e182610778565b52816115ec826107de565b51818c816115f9866107de565b518180611605896107de565b5161160f8a610778565b51900961161c858c6103e9565b35900890099061162c90886103f9565b359008900961163a82610778565b528180611646836107de565b51818d81611653876107de565b518161165e89610778565b51611669858d610409565b3590089009906116799089610419565b35900890096116888c86610429565b35900861169482610778565b528161169f826107de565b51818c816116ac866107de565b5181806116b8896107de565b516116c28a610778565b5190096116cf858c610439565b3590089009906116df9088610449565b35900890096116ed82610778565b5281806116f9836107de565b51818d81611706876107de565b518161171189610778565b5161171c858d610459565b35900890099061172c9089610469565b359008900961173b8c86610479565b35900861174782610778565b5281611752826107de565b51818c8161175f866107de565b51818061176b896107de565b516117758a610778565b519009611782858c610489565b3590089009906117929088610499565b35900890096117a082610778565b5281806117ac836107de565b51818d816117b9876107de565b51816117c489610778565b516117cf858d6104a9565b3590089009906117df90896104b9565b35900890096117ee8c866104c9565b3590086117fa82610778565b5281611805826107de565b51818c81611812866107de565b51818061181e896107de565b516118288a610778565b519009611835858c6104d9565b35900890099061184590886104e9565b359008900961185382610778565b52818061185f836107de565b51818d8161186c876107de565b518161187789610778565b51611882858d6104f9565b3590089009906118929089610509565b35900890096118a18c86610519565b3590086118ad82610778565b52816118b8826107de565b51818c816118c5866107de565b5181806118d1896107de565b516118db8a610778565b5190096118e8858c610529565b3590089009906118f89088610539565b359008900961190682610778565b528180808c8180611917838a610409565b3581611923858c610549565b3561192e868d610419565b35900990089161193e818a610399565b359061194a908a610429565b3590099008818d61195b81896103a9565b35906119679089610439565b3590099008818c61197881886103b9565b35906119849088610449565b35900990086119928261079a565b528180808c81806119a28761079a565b51816119ae858c6103c9565b356119b9868d610459565b3590099008916119c9818a610559565b35906119d5908a610469565b3590099008818d816119e7828a610399565b356119f2838b6103a9565b35900990611a009089610479565b3590099008818c81611a1282896103b9565b35611a1d838a6103c9565b35900990611a2b9088610489565b3590099008611a398261079a565b5281611a458b856104c9565b357f30644e72e131a029b85045b68181585d2833e84879b9709143e1f593efffffff9008611a72826107cd565b5281611a7e8b856104c9565b357f30644e72e131a029b85045b68181585d2833e84879b9709143e1f593effffffe9008611aab826107ef565b528180808c81611abb82896103d9565b35611ac6838a610569565b35611ad0906108de565b900890611add90886104c9565b359009611ae9846107cd565b519009611af5836107ef565b519009611b0182610800565b528180611b0e8c866103d9565b35611b198d87610579565b35611b23906108de565b900881611b308d87610589565b35620400009009611b40906108de565b9008611b4b82610811565b528282808c8184818381611b5e8a610811565b51818080641000000000938185611b75898c610569565b3509611b80906108de565b900881866640000000000000998a91611b9891610599565b3509611ba3906108de565b9008611baf858d6104c9565b359009611bbb8c610822565b5281837f30644e72e131a029b85045b68181585d2833e84879b9709143e1f593f00000009b8c91611beb916104c9565b3508611bf68c610833565b5281808c81808080611c078561079a565b51611c1186610844565b519009611c1d85610800565b519008611c2984610844565b5190099181611c3782610822565b51611c4183610833565b51900990611c4e906107ef565b5190099008611c5c8d610844565b519009611c688c61079a565b528c611c738c610811565b5193611c7e916105a9565b3509611c89906108de565b900892611c96908a610569565b3509611ca1906108de565b900881600160481b611cb38f89610599565b3509611cbe906108de565b9008611cc9836107ef565b5282808c81611cd7866107ef565b51816001605a1b611ce8858c6105b9565b3509611cf3906108de565b900890611d0090886104c9565b359009611d0c84610833565b519009611d18836107ef565b52611d228261069c565b51611d2c906129ac565b611d3583610800565b528281611d4184610800565b5108611d4c83610811565b528280611d5884610811565b517f30644e121894ba67550ff245e0f5eb5a25832df811e8df9dd100d30c2c14d8210991611d858461069c565b5108611d9189886105c9565b3590611d9c92612981565b611da582610822565b5281808080611db38561079a565b5181611dbe876107ef565b51611dc8886107cd565b5190099008611dd685610844565b519009818d81611de587610822565b5191611df1908a61029b565b35611dfb906108de565b60010890099008611e0b83610844565b519009611e178261079a565b5281611e2282610811565b517f0b006c1ea5daba5f824a4792cc08e21a539cc045806b63a7fa5131898dd290f30982611e4f8361069c565b517e64abbdd3caaa017722ae3390e424d650cd4731f6b4b5d3227bf715269d19a69008611e7c89886105d9565b3590611e8792612981565b611e90826107cd565b528180611e9c8361079a565b51818d81611ea9876107cd565b519181611eb6828c6105e9565b35611ec1838d6105e9565b35900990611ecf908b6105e9565b35611ed9906108de565b900890099008611ee883610844565b519009611ef48261079a565b52818a8180611f028561079a565b518180611f0f868b6102cb565b35611f1a878c61028b565b35611f24906108de565b9008611f2f88610822565b5190099008611f3d85610844565b51900994611f4b82826102fb565b3591611f56916102bb565b35611f60906108de565b900890611f6c90610822565b5190099008611f7a8d61079a565b52818c611f87888c6103a9565b3590611f9290610854565b519008611f9e8d6107ef565b52818c611fab888c610399565b3590611fb690610854565b519008611fc28d610833565b52818c611fce81610864565b5190611fd99061069c565b519009611fe58d610874565b52818c81808c818b81611ff7876107ef565b518161200289610864565b5161200d85886104e9565b3590099008928261201d88610833565b51816120288a610864565b5161203386866104d9565b359009900891612042916102ab565b359009900991818d81808d612056866107ef565b51938261206288610874565b519761206d81610833565b519061207890610874565b519008916120859161029b565b35900993600080516020612b69833981519152099008096120a5906108de565b90086120b08d6107ef565b5281808d81806120bf83610811565b517f26ca383d8941eb242b9f566f52a9a7916236dd09d149b3769d04d4e79a33660f09816120ec8461069c565b517f2c384cec8fcd80aff76a956880d2d42c7b0731488b9c268d8579a54218e69a2e900861211a89886105f9565b359061212592612981565b8161212f84610811565b517f1aeeb663b1a741126a5323f8bd3b0e7cc12b43f1c32c060c2e2b1c31cb13217d098261215c8561069c565b517f2a3bc2d5a0458713f4ae3d9ea30fde9e3b649bf8a98a50653d97e8d2b1c73d09900861218a8a89610609565b359061219592612981565b90089082806121a383610811565b517f06d787509b0d98f87f5ad785aa7ab78d237d18caded7f36f705f0b5bede8f85009916121d09061069c565b517f0ffdb427e8a478204cd983d675029f1d057df99245b96b369da623f9081218ed90086121fe8887610619565b359061220992612981565b90088d828061221783610811565b517f267a3c30ddafc35fc49cdb327e33e05a3a14f056f6bbd231aa9cc703ac39cd1b09916122449061069c565b517f1d14f752fde2e76206e7e72f264f103c469a2ad86444dd59c70b9a73a2e5c69d90086122728786610629565b359061227d92612981565b90086122888d610833565b528b612293816107cd565b519361229e82610833565b519284806122ab85610811565b517f10756d9fef4d737eacb5a49d9e5b53a004adefa057e7931a9371d43c5f47dc8a09936122d89061069c565b517f1adac846c43da7741efbce6d00b4c4fb62cb2b9c9fedf388eb038d3c5b2b88d690089161230691610639565b359061231192612981565b9008900861231e906108de565b60010861232a88610833565b52818080806123388b61079a565b516123428c610844565b5190098180612351878b6105e9565b3561235c888c6102eb565b35612366906108de565b90086123718d610822565b519009900861237f8a610844565b5190098161238c8a6107ef565b516123968b610833565b51900990086123a48861079a565b52816123b082866103c9565b356123ba89610854565b5190086123c6886107ef565b52816123d282866103b9565b356123dc89610854565b5190086123e888610885565b526123f1612a0a565b6123fa88610896565b528161240588610874565b5161240f89610896565b51900961241b88610896565b528180806124288a6107ef565b51816124338c610864565b5161243e878b610509565b359009900881808b8161245082610885565b519161245b90610864565b51612466898d6104f9565b3590099008612475868a6102db565b359009900981806124858b6107ef565b51816124908d610896565b51600080516020612b6983398151915209900881808c6124af81610885565b51906124ba90610896565b5190086124c7878b6102cb565b35900990096124d5906108de565b90086124e0886107ef565b52816124ec82866103d9565b356124f689610854565b51900861250288610885565b528161250e8286610559565b3561251889610854565b51900861252488610896565b5261252d612a74565b612536886108a7565b528161254188610874565b5161254b896108a7565b519009612557886108a7565b528180806125648a610885565b518161256f8c610864565b5161257a878b610529565b359009900881808b8161258c82610896565b519161259790610864565b516125a2898d610519565b35900990086125b1868a61030b565b359009900981806125c18b610885565b51816125cc8d6108a7565b51600080516020612b6983398151915209900881808c6125eb81610896565b51906125f6906108a7565b519008612603878b6102fb565b3590099009612611906108de565b900861261c88610885565b52818080808061262b8c61079a565b516126358d610844565b519009818c612643816107ef565b519061264e90610833565b519009900861265c8b610844565b519009816126698b610885565b516126738c610833565b519009900861268189610844565b51900961268d8861079a565b52816126998286610389565b356126a389610854565b5190086126af886107ef565b526126b8612ade565b6126c188610885565b52818080806126cf8b6107ef565b51816126da8d610864565b516126e5888c610539565b35900990086126f48589610649565b35900981806127028c6107ef565b51818d61270e81610874565b519061271990610885565b5190099008612728868a6105e9565b359009612734906108de565b900861273f89610833565b51900961274b886107ef565b52818080808061275a8c61079a565b516127648d6107ef565b5190086127708c610844565b5190098161277d8c610822565b5181612789888c610659565b35612793906108de565b600108900990086127a38a610844565b519009816127b08a6107cd565b5181806127bd878b610659565b356127c8888c610659565b3590096127d5878b610659565b356127df906108de565b9008900990086127ee8861079a565b528180806127fc84886104a9565b356128068b6108b8565b51900961281384886104b9565b35900861281f89610854565b51900861282b886107ef565b526128368185610659565b3593826128438383610499565b3561284d8a6108b8565b5190099161285a91610569565b35900861286686610864565b5190089009612874836107ef565b51900961288082610874565b5290565b8051600c10156102225760016101a0820151146128f957604090600790606090610160848282018481875afa1561013f575b61016081036128c6575050505050565b6128cf906108ff565b6128f4858284016080602082016128eb84828a868d5afa6129a5565b60065afa6129a5565b6128b6565b50565b90600080516020612b4983398151915291828282096001036129515715612921570690565b60405162461bcd60e51b8152602060048201526008602482015267646976207a65726f60c01b6044820152606490fd5b60405162461bcd60e51b8152602060048201526008602482015267191a5d8819985a5b60c21b6044820152606490fd5b9190600080516020612b498339815191529283838309036129515715612921570690565b1561013f57565b60c0906129b761015a565b823682376129c361017a565b9283916020938436853784825284808301528460408301526060820152628000006080820152600080516020612b4983398151915260a082015260055afa1561013f575190565b612a1261015a565b60c0368237612a1f61017a565b908160c0602092833684378381528380820152836040820152600080516020612b69833981519152606082015260026080820152600080516020612b4983398151915260a082015260055afa1561013f575190565b612a7c61015a565b60c0368237612a8961017a565b908160c0602092833684378381528380820152836040820152600080516020612b69833981519152606082015260046080820152600080516020612b4983398151915260a082015260055afa1561013f575190565b612ae661015a565b60c0368237612af361017a565b908160c0602092833684378381528380820152836040820152600080516020612b69833981519152606082015260066080820152600080516020612b4983398151915260a082015260055afa1561013f57519056fe30644e72e131a029b85045b68181585d2833e84879b9709143e1f593f000000109226b6e22c6f0ca64ec26aad4c86e715b5f898e5e963f25870e56bbe533e9a2a2646970667358221220eaeaac9c264080036d3f951c963bcb0ff39c998c409a91871c8080c630631e6d64736f6c63430008180033",
  "linkReferences": {},
  "deployedLinkReferences": {}
}