{
  "_format": "hh-sol-artifact-1",
  "contractName": "SpinGameRegistryContract",
  "sourceName": "contracts/shared/GameRegistry.sol",
  "abi": [
    {
      "inputs": [
        {
          "internalType": "address",
          "name": "_gameContract",
          "type": "address"
        }
      ],
      "stateMutability": "nonpayable",
      "type": "constructor"
    },
    {
      "anonymous": false,
      "inputs": [
        {
          "indexed": true,
          "internalType": "uint256",
          "name": "gameId",
          "type": "uint256"
        },
        {
          "indexed": false,
          "internalType": "address",
          "name": "gameStorageAddress",
          "type": "address"
        },
        {
          "indexed": false,
          "internalType": "address",
          "name": "author",
          "type": "address"
        },
        {
          "indexed": false,
          "internalType": "string",
          "name": "authorName",
          "type": "string"
        },
        {
          "indexed": false,
          "internalType": "string",
          "name": "description",
          "type": "string"
        },
        {
          "indexed": false,
          "internalType": "string",
          "name": "gameName",
          "type": "string"
        }
      ],
      "name": "RegisterGame",
      "type": "event"
    },
    {
      "inputs": [],
      "name": "gameContract",
      "outputs": [
        {
          "internalType": "address",
          "name": "",
          "type": "address"
        }
      ],
      "stateMutability": "view",
      "type": "function"
    },
    {
      "inputs": [
        {
          "internalType": "uint256",
          "name": "",
          "type": "uint256"
        }
      ],
      "name": "games",
      "outputs": [
        {
          "internalType": "uint256",
          "name": "gameId",
          "type": "uint256"
        },
        {
          "internalType": "address",
          "name": "gameStorageAddress",
          "type": "address"
        },
        {
          "internalType": "address",
          "name": "author",
          "type": "address"
        },
        {
          "internalType": "string",
          "name": "authorName",
          "type": "string"
        },
        {
          "internalType": "string",
          "name": "description",
          "type": "string"
        },
        {
          "internalType": "string",
          "name": "gameName",
          "type": "string"
        }
      ],
      "stateMutability": "view",
      "type": "function"
    },
    {
      "inputs": [
        {
          "internalType": "uint256",
          "name": "gameId",
          "type": "uint256"
        },
        {
          "internalType": "address",
          "name": "player",
          "type": "address"
        }
      ],
      "name": "getStates",
      "outputs": [
        {
          "internalType": "bytes",
          "name": "",
          "type": "bytes"
        }
      ],
      "stateMutability": "view",
      "type": "function"
    },
    {
      "inputs": [
        {
          "internalType": "uint256",
          "name": "gameId",
          "type": "uint256"
        }
      ],
      "name": "isValidGameID",
      "outputs": [
        {
          "internalType": "bool",
          "name": "",
          "type": "bool"
        }
      ],
      "stateMutability": "view",
      "type": "function"
    },
    {
      "inputs": [],
      "name": "nextGameId",
      "outputs": [
        {
          "internalType": "uint256",
          "name": "",
          "type": "uint256"
        }
      ],
      "stateMutability": "view",
      "type": "function"
    },
    {
      "inputs": [
        {
          "internalType": "string",
          "name": "authorName",
          "type": "string"
        },
        {
          "internalType": "string",
          "name": "description",
          "type": "string"
        },
        {
          "internalType": "string",
          "name": "gameName",
          "type": "string"
        }
      ],
      "name": "registerGame",
      "outputs": [],
      "stateMutability": "nonpayable",
      "type": "function"
    },
    {
      "inputs": [
        {
          "internalType": "uint256",
          "name": "gameId",
          "type": "uint256"
        },
        {
          "internalType": "address",
          "name": "player",
          "type": "address"
        },
        {
          "internalType": "bytes",
          "name": "state",
          "type": "bytes"
        }
      ],
      "name": "updateStates",
      "outputs": [],
      "stateMutability": "nonpayable",
      "type": "function"
    }
  ],
  "bytecode": "0x60803461007857601f61113e38819003918201601f19168301916001600160401b0383118484101761007d5780849260209460405283398101031261007857516001600160a01b038116908190036100785760018055600080546001600160a01b0319169190911790556040516110aa90816100948239f35b600080fd5b634e487b7160e01b600052604160045260246000fdfe6080604052600436101561001257600080fd5b6000803560e01c8063117a5b9014610905578063382d3882146108d957806349c42467146102fb578063b135bbb0146102dd578063c09ff5d6146101a0578063d2963063146100935763d3f330091461006a57600080fd5b34610090578060031936011261009057546040516001600160a01b039091168152602090f35b80fd5b5034610090576040366003190112610090576100ad610b3b565b6004358252602090600282528260018060a01b03602481600160408520015416936040519485938492634fe8446f60e01b84521660048301525afa928315610194578093610110575b505061010c604051928284938452830190610ae4565b0390f35b909192503d8082843e61012381846109e5565b820191838184031261018c578051906001600160401b038211610190570182601f8201121561018c5780519161015883610b51565b9361016660405195866109e5565b83855285848401011161009057509061018491848085019101610ac1565b9038806100f6565b5080fd5b8280fd5b604051903d90823e3d90fd5b5034610090576060366003190112610090576101ba610b3b565b6001600160401b036044358181116102d9576101da903690600401610b09565b84546001600160a01b03949085163303610282578592600435845260026020528560016040862001541691823b1561027e5761023793859160405198899687958694631535530f60e01b8652604060048701526044860191610ba3565b9116602483015203925af1801561027357610250578280f35b811161025f5760405238808280f35b634e487b7160e01b82526041600452602482fd5b6040513d85823e3d90fd5b8480fd5b60405162461bcd60e51b815260206004820152602960248201527f4f6e6c792067616d6520636f6e74726163742063616e2063616c6c207468697360448201526810333ab731ba34b7b760b91b6064820152608490fd5b8380fd5b50346100905780600319360112610090576020600154604051908152f35b5034610090576060366003190112610090576004356001600160401b03811161018c5761032c903690600401610b09565b6024356001600160401b0381116102d95761034b903690600401610b09565b906044356001600160401b0381116108d55761036b903690600401610b09565b90916040516104b0808201908282106001600160401b038311176108b6576020918391610bc5833930815203019088f09384156108ca576001546040518060c08101106001600160401b0360c0830111176108b65760c08101604052818152602081019160018060a01b0388168352604082013381526103ec368b8d610b6c565b91606084019283526103ff368789610b6c565b608085015261040f36898b610b6c565b60a08501528c526002602081905260408d208451815594516001860180546001600160a01b03199081166001600160a01b0393841617909155925191860180549093169116179055518051906001600160401b0382116107d657819061047860038601546109ab565b601f8111610864575b50602090601f83116001146107f5578d926107ea575b50508160011b916000199060031b1c19161760038301555b60808101519081516001600160401b0381116107d6576104d260048501546109ab565b601f811161078f575b506020928c601f831160011461071c5760a094909183610711575b50508160011b916000199060031b1c19161760048401555b01518051906001600160401b0382116106fd5761052e60058401546109ab565b601f81116106b8575b506020908b601f841160011461061857936005846105d7956105e599956105c99f9e9c99957fd3f3f113e99179c4f45fc8c5d7091a8b5fb5556ed07e731c8784e0b3948b1b479e9c999261060d575b50508160011b916000199060031b1c1916179101555b6001549a8b9a604051998a9960018060a01b03168a523360208b015260a060408b015260a08a0191610ba3565b918783036060890152610ba3565b918483036080860152610ba3565b0390a2600181018091116105f95760015580f35b634e487b7160e01b82526011600452602482fd5b015190503880610586565b5090600584018c5260208c20918c5b601f19851681106106a057509360056001856105e599956105c99f9e9c99957fd3f3f113e99179c4f45fc8c5d7091a8b5fb5556ed07e731c8784e0b3948b1b479e9c996105d799601f19811610610687575b505050811b0191015561059c565b015160001960f88460031b161c19169055388080610679565b91926020600181928685015181550194019201610627565b600584018c5260208c20601f840160051c8101602085106106f6575b8d601f840160051c830182106106ec57505050610537565b81556001016106d4565b50806106d4565b634e487b7160e01b8b52604160045260248bfd5b0151905038806104f6565b50909192600485018d5260208d20918d5b601f1985168110610777575091839160019360a09695601f1981161061075e575b505050811b01600484015561050e565b015160001960f88460031b161c1916905538808061074e565b9192602060018192868501518155019401920161072d565b600485018d5260208d20601f830160051c8101602084106107cf575b8e5b601f840160051c830182106107c4575050506104db565b81556001018e6107ad565b50806107ab565b634e487b7160e01b8c52604160045260248cfd5b015190503880610497565b9250600385018d5260208d20908d935b601f1984168510610849576001945083601f19811610610830575b505050811b0160038301556104af565b015160001960f88460031b161c19169055388080610820565b81810151835560209485019460019093019290910190610805565b909150600385018d5260208d20601f840160051c8101602085106108af575b84939291908f5b601f840160051c830182106108a157505050610481565b81558594506001018f61088a565b5080610883565b634e487b7160e01b8a52604160045260248afd5b6040513d89823e3d90fd5b8580fd5b503461009057602036600319011261009057604060209160043581526002835220541515604051908152f35b5034610090576020366003190112610090576040906004358152600260205220805461010c60018060a01b039261099d84600183015416946002830154169161098f61095360038301610a1c565b61096b600561096460048601610a1c565b9401610a1c565b9460405198899889526020890152604088015260c0606088015260c0870190610ae4565b908582036080870152610ae4565b9083820360a0850152610ae4565b90600182811c921680156109db575b60208310146109c557565b634e487b7160e01b600052602260045260246000fd5b91607f16916109ba565b90601f801991011681019081106001600160401b03821117610a0657604052565b634e487b7160e01b600052604160045260246000fd5b90604051918260008254610a2f816109ab565b90818452602094600191600181169081600014610a9f5750600114610a60575b505050610a5e925003836109e5565b565b600090815285812095935091905b818310610a87575050610a5e9350820101388080610a4f565b85548884018501529485019487945091830191610a6e565b92505050610a5e94925060ff191682840152151560051b820101388080610a4f565b60005b838110610ad45750506000910152565b8181015183820152602001610ac4565b90602091610afd81518092818552858086019101610ac1565b601f01601f1916010190565b9181601f84011215610b36578235916001600160401b038311610b365760208381860195010111610b3657565b600080fd5b602435906001600160a01b0382168203610b3657565b6001600160401b038111610a0657601f01601f191660200190565b929192610b7882610b51565b91610b8660405193846109e5565b829481845281830111610b36578281602093846000960137010152565b908060209392818452848401376000828201840152601f01601f191601019056fe60803461007457601f6104b038819003918201601f19168301916001600160401b038311848410176100795780849260209460405283398101031261007457516001600160a01b0381169081900361007457600080546001600160a01b03191691909117905560405161042090816100908239f35b600080fd5b634e487b7160e01b600052604160045260246000fdfe604060808152600436101561001357600080fd5b600090813560e01c806302a22337146102595780631535530f1461008c57634fe8446f1461004057600080fd5b3461008857602036600319011261008857610084916100799082906001600160a01b0361006b610281565b1681526001602052206102d6565b9051918291826103a1565b0390f35b5080fd5b50346100885780600319360112610088576004359067ffffffffffffffff8083116102555736602384011215610255578260040135908111610255576024368183860101116102515780356001600160a01b038181169182900361024d57865416330361020057855260019260209084825286209461010b865461029c565b601f81116101ba575b508691601f851160011461015257509183949184938895610145575b5050501b916000199060031b1c191617905580f35b0101359250388080610130565b92909184601f198116888a52858a20958a905b8983831061019e5750505010610182575b50505050811b01905580f35b60001960f88660031b161c199201013516905538808080610176565b8786018701358955909701969384019388935090810190610165565b868852828820601f860160051c8101918487106101f6575b601f0160051c019086905b8281106101eb575050610114565b8981550186906101dd565b90915081906101d2565b835162461bcd60e51b8152602060048201526021818401527f4f6e6c79206f776e65722063616e2063616c6c20746869732066756e6374696f6044820152603760f91b6064820152608490fd5b8680fd5b8480fd5b8380fd5b503461008857602036600319011261008857610084916100799082906001600160a01b0361006b5b600435906001600160a01b038216820361029757565b600080fd5b90600182811c921680156102cc575b60208310146102b657565b634e487b7160e01b600052602260045260246000fd5b91607f16916102ab565b906040519160009080546102e98161029c565b908186526020926001916001811690816000146103835750600114610347575b50505050829003601f01601f1916820167ffffffffffffffff81118382101761033157604052565b634e487b7160e01b600052604160045260246000fd5b909293506000528260002091836000935b83851061036f575050505083010138808080610309565b805488860183015293019284908201610358565b60ff191688860152505050151560051b840101905038808080610309565b6020808252825181830181905290939260005b8281106103d657505060409293506000838284010152601f8019910116010190565b8181018601518482016040015285016103b456fea2646970667358221220a1911dd4bcab15278556c1946972989ee04fd46405aead5618e9779f08e86e6d64736f6c63430008180033a2646970667358221220e22600abbf25ab2af70577640485e06328dbfc7b6f7b97b4c11776fb49010abe64736f6c63430008180033",
  "linkReferences": {},
  "deployedLinkReferences": {}
}