{
  "_format": "hh-sol-artifact-1",
  "contractName": "MultiSender",
  "sourceName": "contracts/shared/MultiSender.sol",
  "abi": [
    {
      "inputs": [],
      "name": "burn",
      "outputs": [],
      "stateMutability": "nonpayable",
      "type": "function"
    },
    {
      "inputs": [
        {
          "internalType": "address[]",
          "name": "wallets",
          "type": "address[]"
        }
      ],
      "name": "checkBalance",
      "outputs": [
        {
          "internalType": "uint256[]",
          "name": "",
          "type": "uint256[]"
        }
      ],
      "stateMutability": "view",
      "type": "function"
    },
    {
      "inputs": [
        {
          "internalType": "address[]",
          "name": "recipients",
          "type": "address[]"
        },
        {
          "internalType": "uint256",
          "name": "amount",
          "type": "uint256"
        }
      ],
      "name": "distributeETH",
      "outputs": [],
      "stateMutability": "payable",
      "type": "function"
    },
    {
      "inputs": [
        {
          "internalType": "address[]",
          "name": "recipients",
          "type": "address[]"
        },
        {
          "internalType": "uint256[]",
          "name": "amounts",
          "type": "uint256[]"
        }
      ],
      "name": "distributeETHWithDifferentAmounts",
      "outputs": [],
      "stateMutability": "payable",
      "type": "function"
    }
  ],
  "bytecode": "0x6080806040523461001657610596908161001c8239f35b600080fdfe60406080815260048036101561001457600080fd5b600091823560e01c8063285a3032146102bf57806344df8e70146102825780634f72c3b0146101ab5763b76bad291461004c57600080fd5b806003193601126101a75767ffffffffffffffff9180358381116101a357610077903690830161042d565b906024359384116101a357366023850112156101a35783810135936100a361009e86610415565b6103d9565b908195808352602460208094019160051b8301019136831161019f57602401905b8282106101905750505050815184510361014d5750806100e785925115156104fa565b815b815181101561013f57828080806001600160a01b036101088688610536565b5116610114868b610536565b5190828215610136575bf11561012c576001016100e9565b83513d84823e3d90fd5b506108fc61011e565b8261014a47156104c1565b80f35b606490602084519162461bcd60e51b8352820152601b60248201527f4172726179206c656e67746873206d75737420626520657175616c00000000006044820152fd5b813581529083019083016100c4565b8880fd5b8480fd5b8280fd5b5091903461027e57602090816003193601126101a757803567ffffffffffffffff811161027a576101de9136910161042d565b928351916101fa6101f161009e85610415565b93808552610415565b8382019190601f1901368337845b865181101561023a576001906001600160a01b03610226828a610536565b5116316102338288610536565b5201610208565b509190848483519485948186019282875251809352850193925b82811061026357505050500390f35b835185528695509381019392810192600101610254565b8380fd5b5080fd5b83823461027e578160031936011261027e578180808047818082156102b6575bf1156102ac575080f35b51903d90823e3d90fd5b506108fc6102a2565b50806003193601126101a757813567ffffffffffffffff811161027a576102e9903690840161042d565b602435926102f8825185610498565b34106103a35761031461030c835186610498565b3411156104c1565b610320825115156104fa565b831561036057508390815b815181101561035c5782808080886001600160a01b0361034b8789610536565b511682f11561012c5760010161032b565b8280f35b606490602084519162461bcd60e51b8352820152601d60248201527f416d6f756e74206d7573742062652067726561746572207468616e20300000006044820152fd5b606490602084519162461bcd60e51b8352820152601060248201526f092dce6eaccccd2c6d2cadce8408aa8960831b6044820152fd5b6040519190601f01601f1916820167ffffffffffffffff8111838210176103ff57604052565b634e487b7160e01b600052604160045260246000fd5b67ffffffffffffffff81116103ff5760051b60200190565b9080601f8301121561049357602090823561044a61009e82610415565b9360208086848152019260051b82010192831161049357602001905b828210610474575050505090565b81356001600160a01b0381168103610493578152908301908301610466565b600080fd5b818102929181159184041417156104ab57565b634e487b7160e01b600052601160045260246000fd5b156104c857565b60405162461bcd60e51b815260206004820152600a60248201526908af0c6cae6e6408aa8960b31b6044820152606490fd5b1561050157565b60405162461bcd60e51b815260206004820152600d60248201526c4e6f20726563697069656e747360981b6044820152606490fd5b805182101561054a5760209160051b010190565b634e487b7160e01b600052603260045260246000fdfea2646970667358221220e1cf212a0a64f1cd410a1fbbce87a7e367a09a9f751117a5a4e7384460012eba64736f6c63430008180033",
  "linkReferences": {},
  "deployedLinkReferences": {}
}