{
  "_format": "hh-sol-artifact-1",
  "contractName": "AggregatorVerifier",
  "sourceName": "contracts/shared/zkwasm_verifier/AggregatorVerifier.sol",
  "abi": [
    {
      "inputs": [
        {
          "internalType": "contract AggregatorVerifierCoreStep[]",
          "name": "_steps",
          "type": "address[]"
        }
      ],
      "stateMutability": "nonpayable",
      "type": "constructor"
    },
    {
      "inputs": [
        {
          "internalType": "uint256[]",
          "name": "proof",
          "type": "uint256[]"
        },
        {
          "internalType": "uint256[]",
          "name": "verify_instance",
          "type": "uint256[]"
        },
        {
          "internalType": "uint256[]",
          "name": "aux",
          "type": "uint256[]"
        },
        {
          "internalType": "uint256[][]",
          "name": "target_instance",
          "type": "uint256[][]"
        }
      ],
      "name": "verify",
      "outputs": [],
      "stateMutability": "view",
      "type": "function"
    }
  ],
  "bytecode": "0x608060405234620001595762001355803803806200001d816200015e565b92833981019060208082840312620001595781516001600160401b03928382116200015957019280601f85011215620001595783519083821162000122578160051b94836200006e8188016200015e565b80948152019084829782010192831162000159578401905b828210620001385750505051918211620001225768010000000000000000821162000122576000928354838555808410620000fa575b5090838052808420935b838110620000de576040516111d09081620001858239f35b82516001600160a01b03168582015591810191600101620000c6565b8480528383862091820191015b818110620001165750620000bc565b85815560010162000107565b634e487b7160e01b600052604160045260246000fd5b81516001600160a01b03811681036200015957815290840190840162000086565b600080fd5b6040519190601f01601f191682016001600160401b03811183821017620001225760405256fe608060405260048036101561001357600080fd5b600090813560e01c63ae022ccd1461002a57600080fd5b346100c35760803660031901126100c3576001600160401b0381358181116100bf5761005990369084016100c7565b916024358181116100bb5761007190369086016100c7565b6044929192358281116100b75761008b90369088016100c7565b9390926064359081116100b3576100b0976100a8913691016100c7565b96909561054b565b80f35b8880fd5b8780fd5b8580fd5b8380fd5b5080fd5b9181601f840112156100f7578235916001600160401b0383116100f7576020808501948460051b0101116100f757565b600080fd5b634e487b7160e01b600052604160045260246000fd5b602081019081106001600160401b0382111761012d57604052565b6100fc565b90601f801991011681019081106001600160401b0382111761012d57604052565b6001600160401b03811161012d5760051b60200190565b6040519061058082018281106001600160401b0382111761012d57604052602b8252610560366020840137565b604051906101a082018281106001600160401b0382111761012d57604052600c8252610180366020840137565b60405190610e2082018281106001600160401b0382111761012d5760405260708252610e00366020840137565b634e487b7160e01b600052603260045260246000fd5b919081101561024b5760051b81013590601e19813603018212156100f75701908135916001600160401b0383116100f7576020018260051b360381136100f7579190565b6101f1565b919081101561024b5760051b0190565b634e487b7160e01b600052601160045260246000fd5b60001981146102855760010190565b610260565b80516002101561024b5760600190565b80511561024b5760200190565b80516001101561024b5760400190565b80516006101561024b5760e00190565b80516003101561024b5760800190565b80516007101561024b576101000190565b80516004101561024b5760a00190565b80516005101561024b5760c00190565b80516008101561024b576101200190565b80516009101561024b576101400190565b8051600b101561024b576101800190565b805182101561024b5760209160051b010190565b60005481101561024b576000805260206000200190600090565b60209081818403126100f7578051906001600160401b0382116100f757019180601f840112156100f757825161039e81610153565b936103ac6040519586610132565b818552838086019260051b8201019283116100f7578301905b8282106103d3575050505090565b815181529083019083016103c5565b81835290916001600160fb1b0383116100f75760209260051b809284830137010190565b92939061041f90610430936060865260608601916103e2565b9060209484830360208601526103e2565b9060408183039101526020808451928381520193019160005b828110610457575050505090565b835185529381019392810192600101610449565b6040513d6000823e3d90fd5b1561047e57565b60405162461bcd60e51b815260206004820152600f60248201526e1a5b9d985b1a59081dc81c1bda5b9d608a1b6044820152606490fd5b156104bc57565b60405162461bcd60e51b815260206004820152600f60248201526e1a5b9d985b1a590819c81c1bda5b9d608a1b6044820152606490fd5b156104fa57565b60405162461bcd60e51b815260206004820152602360248201527f76657269667920636972637569742070616972696e6720636865636b206661696044820152621b195960ea1b6064820152608490fd5b929695919094939661055b61016a565b96600093845b8281106107645750505060005b8181106107315750505061058290856108c4565b61058b8561028a565b52610594610197565b9461059e8561095e565b6105a9858584610bda565b600093600054925b83861061068e5750505050505061065e9161060a826105d26106599461029a565b516105dc8461029a565b526105e6816102a7565b516105f0846102a7565b526105fa8161028a565b51610604846102b7565b526102c7565b51610614826102d7565b5261061e8161029a565b51151580610677575b61063090610477565b610639816102b7565b51151580610660575b61064b906104b5565b61065481610a1c565b610b8d565b6104f3565b565b5061064b61066d826102d7565b5115159050610642565b50610630610684826102a7565b5115159050610627565b90919293949560006106e9916106ca6106be6106a98b61034f565b905460039190911b1c6001600160a01b031690565b6001600160a01b031690565b6040518080958194630966751960e41b83528c8b8b8b60048701610406565b03915afa801561072c5760019160009161070b575b50960194939291906105b1565b610726913d8091833e61071e8183610132565b810190610369565b386106fe565b61046b565b8061074460019284869c98999a9c610250565b3561075861075187610276565b968b61033b565b5201979594939761056e565b96939099919a95928a61077d898e60009c999c93610207565b90508110156107d6579081898e8c8f9b9a99989796958f906107a1858f8690610207565b6107ab9291610250565b35919e6107b790610276565b9e6107c19161033b565b52600161077d9301939495969798999a610207565b50959a91999497939692959394909392600101610561565b908160051b918083046020149015171561028557565b6001600160401b03811161012d57601f01601f191660200190565b60405190606082018281106001600160401b0382111761012d5760405260218252604082602036910137565b6040519060a082018281106001600160401b0382111761012d57604052606182526080366020840137565b9061088082610804565b61088d6040519182610132565b828152809261089e601f1991610804565b0190602036910137565b906001820180921161028557565b602001908160201161028557565b91906005906001600160fb1b0381168103610285576108e58160051b610876565b9160005b82811061092957505050610926919250602081519101207f30644e72e131a029b85045b68181585d2833e84879b9709143e1f593f0000001900690565b90565b60209080831b81158282048414171561028557808301831161028557600192610952838a61033b565b519187010152016108e9565b80511561024b5760209060208101917f060c5b2f930feec62c8a4b4adeea6525254aac8d460a834b4b03754c314ccd35835281516001101561024b576040927f24818e9fc1e3f4241d092a22c8c1a9d9e0225df902b1e083b2435684bfd809e96040840152602092606093604060079360608160075afa156100f7575b8381036109ea57505050505050565b6109f390610bcb565b610a17868284016080878201610a0e84828c868c5afa610b86565b60065afa610b86565b6109db565b80516002101561024b577f18200ab429e477fe6ce71d0c760859ca99039d2d93d50cd2c7c2ecaaf33b66d4606082015280516003101561024b577f0285eb95b7ee827e3472b0189424a708cb313d7ed0abb433061f37b80a652c4b60808201527f1e5eb59b791f81e782b404e5993e8bb2ffeda7975bd65c06e350cbcaf358d699610aa6826102e8565b527f279e74809d63a268f0188c656a5f4ae832c672677e28caf0ab66641cb381404e610ad1826102f8565b527f198e9393920d483a7260bfb731fb5d25f1aa493335a9e71297e485b7aef312c2610afc82610308565b527f1800deef121f1e76426a00665e5c4479674322d4f75edadd46debd5cd992f6ed610b2782610319565b528051600a101561024b57610b83817f275dc4a288d1afb3cbb1ac09187524c7db36395df7be3b99e673b13a075a65ec6101607f1d9befcd05a5323e6da4d435f3b617cdb3af83285c2df711ef39c01571827f9d94015261032a565b52565b156100f757565b60405190610b9a82610112565b60203683378051908160051b9180830460201490151715610285576020918284920160085afa156100f75751151590565b605f1981019190821161028557565b929190610be56101c4565b917f13dec0a49ba54354b32cb6b9e9589471eaa7a1a3408632ae98d2c6e65c057f81610c108461029a565b52610c1a8161029a565b51610c24846102a7565b52610c2e816102a7565b51610c388461028a565b52600092600380855b60088110610edc5750610c5490836110d3565b610c5d8461028a565b52600160005b60048110610e915750610c7690836110d3565b610c7f846102c7565b52610c8982610f8f565b610c92846102e8565b52600160005b60078110610e3f5750610cab90836110d3565b610cb4846102f8565b5260019060005b818110610dd6575050610cce90826110d3565b610cd7836102b7565b52600160005b60388110610da4575091610d88610d8283610d0161065e999a96610d4098966110d3565b610d0a856102d7565b52610d1481610f8f565b610d1d85610308565b52610d47610d2c898789610250565b35610d40610d398b6108a8565b888a610250565b3590610f27565b610d5b610d5389610276565b988688610250565b35610d65826102a7565b52610d72610d5389610276565b35610d7c8261028a565b5261104c565b91610319565b52610d9e610d97858385610250565b35946108a8565b91610250565b600190610dbb610db388610276565b97878b610250565b35610dcf610dc885610276565b948661033b565b5201610cdd565b600190610df6610de789898d610250565b35610d408c8a610d9e8d6108a8565b610e0a610e0289610276565b98888c610250565b35610e1e610e1786610276565b958761033b565b52610e2b610e0289610276565b35610e38610e1786610276565b5201610cbb565b600190610e50610de789898d610250565b610e5c610e0289610276565b35610e70610e6985610276565b948761033b565b52610e7d610e0289610276565b35610e8a610e6985610276565b5201610c98565b600190610ea2610de789898d610250565b610eae610e0289610276565b35610ebb610e6985610276565b52610ec8610e0289610276565b35610ed5610e6985610276565b5201610c63565b600190610eed610de789898d610250565b610ef9610e0289610276565b35610f06610e6985610276565b52610f13610e0289610276565b35610f20610e6985610276565b5201610c41565b80151580610f86575b610f38575050565b6003907f30644e72e131a029b85045b68181585d97816a916871ca8d3c208c16d87cfd479182828181819509090891800903610f7057565b634e487b7160e01b600052600160045260246000fd5b50811515610f30565b80516001906001101561024b576000604083015260405190610fb082610112565b6020368337610fbd61081f565b9081516020101561024b576000604083015360005b81811061102457505091610ffd918360206109269551910120809152610ff78261029a565b5261029a565b517f30644e72e131a029b85045b68181585d2833e84879b9709143e1f593f0000001900690565b8061103761103284936107ee565b6108b6565b611041828861033b565b519085015201610fd2565b80516003906003101561024b57600060808301526040519061106d82610112565b602036833761107a61084b565b90600061108683611179565b5360005b8181106110af57505091610ffd918360206109269551910120809152610ff78261029a565b806110be6110326001936107ee565b6110c8828861033b565b51908501520161108a565b9060006110e0828461033b565b52604051906110ee82610112565b60203683376001600160fb1b0381168103610285576111176111128260051b6108a8565b610876565b90600061112c611126836107ee565b84611189565b5360005b81811061115557505091610ffd918360206109269551910120809152610ff78261029a565b806111646110326001936107ee565b61116e828861033b565b519085015201611130565b80516060101561024b5760800190565b90815181101561024b57016020019056fea2646970667358221220ca1c3e2034edb1c20c404f9ea7da0720f02004be67765bd86c8c10e469082e9c64736f6c63430008180033",
  "linkReferences": {},
  "deployedLinkReferences": {}
}